{
  "_format": "hh-sol-artifact-1",
  "contractName": "DAOToken",
  "sourceName": "contracts/DAOToken.sol",
  "abi": [
    {
      "anonymous": false,
      "inputs": [
        {
          "indexed": false,
          "internalType": "address",
          "name": "previousAdmin",
          "type": "address"
        },
        {
          "indexed": false,
          "internalType": "address",
          "name": "newAdmin",
          "type": "address"
        }
      ],
      "name": "AdminChanged",
      "type": "event"
    },
    {
      "anonymous": false,
      "inputs": [
        {
          "indexed": true,
          "internalType": "address",
          "name": "owner",
          "type": "address"
        },
        {
          "indexed": true,
          "internalType": "address",
          "name": "spender",
          "type": "address"
        },
        {
          "indexed": false,
          "internalType": "uint256",
          "name": "value",
          "type": "uint256"
        }
      ],
      "name": "Approval",
      "type": "event"
    },
    {
      "anonymous": false,
      "inputs": [
        {
          "indexed": true,
          "internalType": "address",
          "name": "beacon",
          "type": "address"
        }
      ],
      "name": "BeaconUpgraded",
      "type": "event"
    },
    {
      "anonymous": false,
      "inputs": [
        {
          "indexed": true,
          "internalType": "address",
          "name": "previousOwner",
          "type": "address"
        },
        {
          "indexed": true,
          "internalType": "address",
          "name": "newOwner",
          "type": "address"
        }
      ],
      "name": "OwnershipTransferred",
      "type": "event"
    },
    {
      "anonymous": false,
      "inputs": [
        {
          "indexed": true,
          "internalType": "address",
          "name": "from",
          "type": "address"
        },
        {
          "indexed": true,
          "internalType": "address",
          "name": "to",
          "type": "address"
        },
        {
          "indexed": false,
          "internalType": "uint256",
          "name": "value",
          "type": "uint256"
        }
      ],
      "name": "Transfer",
      "type": "event"
    },
    {
      "anonymous": false,
      "inputs": [
        {
          "indexed": true,
          "internalType": "address",
          "name": "implementation",
          "type": "address"
        }
      ],
      "name": "Upgraded",
      "type": "event"
    },
    {
      "inputs": [
        {
          "internalType": "address",
          "name": "owner",
          "type": "address"
        },
        {
          "internalType": "address",
          "name": "spender",
          "type": "address"
        }
      ],
      "name": "allowance",
      "outputs": [
        {
          "internalType": "uint256",
          "name": "",
          "type": "uint256"
        }
      ],
      "stateMutability": "view",
      "type": "function"
    },
    {
      "inputs": [
        {
          "internalType": "address",
          "name": "spender",
          "type": "address"
        },
        {
          "internalType": "uint256",
          "name": "amount",
          "type": "uint256"
        }
      ],
      "name": "approve",
      "outputs": [
        {
          "internalType": "bool",
          "name": "",
          "type": "bool"
        }
      ],
      "stateMutability": "nonpayable",
      "type": "function"
    },
    {
      "inputs": [
        {
          "internalType": "address",
          "name": "account",
          "type": "address"
        }
      ],
      "name": "balanceOf",
      "outputs": [
        {
          "internalType": "uint256",
          "name": "",
          "type": "uint256"
        }
      ],
      "stateMutability": "view",
      "type": "function"
    },
    {
      "inputs": [],
      "name": "decimals",
      "outputs": [
        {
          "internalType": "uint8",
          "name": "",
          "type": "uint8"
        }
      ],
      "stateMutability": "view",
      "type": "function"
    },
    {
      "inputs": [
        {
          "internalType": "address",
          "name": "spender",
          "type": "address"
        },
        {
          "internalType": "uint256",
          "name": "subtractedValue",
          "type": "uint256"
        }
      ],
      "name": "decreaseAllowance",
      "outputs": [
        {
          "internalType": "bool",
          "name": "",
          "type": "bool"
        }
      ],
      "stateMutability": "nonpayable",
      "type": "function"
    },
    {
      "inputs": [
        {
          "internalType": "address",
          "name": "spender",
          "type": "address"
        },
        {
          "internalType": "uint256",
          "name": "addedValue",
          "type": "uint256"
        }
      ],
      "name": "increaseAllowance",
      "outputs": [
        {
          "internalType": "bool",
          "name": "",
          "type": "bool"
        }
      ],
      "stateMutability": "nonpayable",
      "type": "function"
    },
    {
      "inputs": [
        {
          "internalType": "string",
          "name": "_name",
          "type": "string"
        },
        {
          "internalType": "string",
          "name": "_symbol",
          "type": "string"
        },
        {
          "internalType": "uint256",
          "name": "_amount",
          "type": "uint256"
        },
        {
          "internalType": "address",
          "name": "_to",
          "type": "address"
        }
      ],
      "name": "initialize",
      "outputs": [],
      "stateMutability": "nonpayable",
      "type": "function"
    },
    {
      "inputs": [
        {
          "internalType": "address",
          "name": "_to",
          "type": "address"
        },
        {
          "internalType": "uint256",
          "name": "_amount",
          "type": "uint256"
        }
      ],
      "name": "mint",
      "outputs": [],
      "stateMutability": "nonpayable",
      "type": "function"
    },
    {
      "inputs": [],
      "name": "name",
      "outputs": [
        {
          "internalType": "string",
          "name": "",
          "type": "string"
        }
      ],
      "stateMutability": "view",
      "type": "function"
    },
    {
      "inputs": [],
      "name": "owner",
      "outputs": [
        {
          "internalType": "address",
          "name": "",
          "type": "address"
        }
      ],
      "stateMutability": "view",
      "type": "function"
    },
    {
      "inputs": [],
      "name": "renounceOwnership",
      "outputs": [],
      "stateMutability": "nonpayable",
      "type": "function"
    },
    {
      "inputs": [],
      "name": "symbol",
      "outputs": [
        {
          "internalType": "string",
          "name": "",
          "type": "string"
        }
      ],
      "stateMutability": "view",
      "type": "function"
    },
    {
      "inputs": [],
      "name": "totalSupply",
      "outputs": [
        {
          "internalType": "uint256",
          "name": "",
          "type": "uint256"
        }
      ],
      "stateMutability": "view",
      "type": "function"
    },
    {
      "inputs": [
        {
          "internalType": "address",
          "name": "recipient",
          "type": "address"
        },
        {
          "internalType": "uint256",
          "name": "amount",
          "type": "uint256"
        }
      ],
      "name": "transfer",
      "outputs": [
        {
          "internalType": "bool",
          "name": "",
          "type": "bool"
        }
      ],
      "stateMutability": "nonpayable",
      "type": "function"
    },
    {
      "inputs": [
        {
          "internalType": "address",
          "name": "sender",
          "type": "address"
        },
        {
          "internalType": "address",
          "name": "recipient",
          "type": "address"
        },
        {
          "internalType": "uint256",
          "name": "amount",
          "type": "uint256"
        }
      ],
      "name": "transferFrom",
      "outputs": [
        {
          "internalType": "bool",
          "name": "",
          "type": "bool"
        }
      ],
      "stateMutability": "nonpayable",
      "type": "function"
    },
    {
      "inputs": [
        {
          "internalType": "address",
          "name": "newOwner",
          "type": "address"
        }
      ],
      "name": "transferOwnership",
      "outputs": [],
      "stateMutability": "nonpayable",
      "type": "function"
    },
    {
      "inputs": [
        {
          "internalType": "address",
          "name": "newImplementation",
          "type": "address"
        }
      ],
      "name": "upgradeTo",
      "outputs": [],
      "stateMutability": "nonpayable",
      "type": "function"
    },
    {
      "inputs": [
        {
          "internalType": "address",
          "name": "newImplementation",
          "type": "address"
        },
        {
          "internalType": "bytes",
          "name": "data",
          "type": "bytes"
        }
      ],
      "name": "upgradeToAndCall",
      "outputs": [],
      "stateMutability": "payable",
      "type": "function"
    }
  ],
  "bytecode": "0x60a06040523060601b60805234801561001757600080fd5b5060805160601c61188d61004b600039600081816104ec0152818161052c015281816106290152610669015261188d6000f3fe6080604052600436106101095760003560e01c806370a0823111610095578063a457c2d711610064578063a457c2d7146102c1578063a9059cbb146102e1578063bd3a13f614610301578063dd62ed3e14610321578063f2fde38b1461036757600080fd5b806370a0823114610239578063715018a61461026f5780638da5cb5b1461028457806395d89b41146102ac57600080fd5b8063313ce567116100dc578063313ce567146101a85780633659cfe6146101c457806339509351146101e657806340c10f19146102065780634f1ef2861461022657600080fd5b806306fdde031461010e578063095ea7b31461013957806318160ddd1461016957806323b872dd14610188575b600080fd5b34801561011a57600080fd5b50610123610387565b604051610130919061152a565b60405180910390f35b34801561014557600080fd5b5061015961015436600461146a565b610419565b6040519015158152602001610130565b34801561017557600080fd5b506035545b604051908152602001610130565b34801561019457600080fd5b506101596101a33660046113d0565b610430565b3480156101b457600080fd5b5060405160128152602001610130565b3480156101d057600080fd5b506101e46101df366004611384565b6104e1565b005b3480156101f257600080fd5b5061015961020136600461146a565b6105aa565b34801561021257600080fd5b506101e461022136600461146a565b6105e6565b6101e461023436600461140b565b61061e565b34801561024557600080fd5b5061017a610254366004611384565b6001600160a01b031660009081526033602052604090205490565b34801561027b57600080fd5b506101e46106d4565b34801561029057600080fd5b506065546040516001600160a01b039091168152602001610130565b3480156102b857600080fd5b5061012361070a565b3480156102cd57600080fd5b506101596102dc36600461146a565b610719565b3480156102ed57600080fd5b506101596102fc36600461146a565b6107b2565b34801561030d57600080fd5b506101e461031c366004611493565b6107bf565b34801561032d57600080fd5b5061017a61033c36600461139e565b6001600160a01b03918216600090815260346020908152604080832093909416825291909152205490565b34801561037357600080fd5b506101e4610382366004611384565b610858565b606060368054610396906117c9565b80601f01602080910402602001604051908101604052809291908181526020018280546103c2906117c9565b801561040f5780601f106103e45761010080835404028352916020019161040f565b820191906000526020600020905b8154815290600101906020018083116103f257829003601f168201915b5050505050905090565b60006104263384846108f0565b5060015b92915050565b600061043d848484610a14565b6001600160a01b0384166000908152603460209081526040808320338452909152902054828110156104c75760405162461bcd60e51b815260206004820152602860248201527f45524332303a207472616e7366657220616d6f756e74206578636565647320616044820152676c6c6f77616e636560c01b60648201526084015b60405180910390fd5b6104d485338584036108f0565b60019150505b9392505050565b306001600160a01b037f000000000000000000000000000000000000000000000000000000000000000016141561052a5760405162461bcd60e51b81526004016104be9061155d565b7f00000000000000000000000000000000000000000000000000000000000000006001600160a01b031661055c610be4565b6001600160a01b0316146105825760405162461bcd60e51b81526004016104be906115a9565b61058b81610c12565b604080516000808252602082019092526105a791839190610c3c565b50565b3360008181526034602090815260408083206001600160a01b038716845290915281205490916104269185906105e1908690611678565b6108f0565b6065546001600160a01b031633146106105760405162461bcd60e51b81526004016104be90611643565b61061a8282610d80565b5050565b306001600160a01b037f00000000000000000000000000000000000000000000000000000000000000001614156106675760405162461bcd60e51b81526004016104be9061155d565b7f00000000000000000000000000000000000000000000000000000000000000006001600160a01b0316610699610be4565b6001600160a01b0316146106bf5760405162461bcd60e51b81526004016104be906115a9565b6106c882610c12565b61061a82826001610c3c565b6065546001600160a01b031633146106fe5760405162461bcd60e51b81526004016104be90611643565b6107086000610e5f565b565b606060378054610396906117c9565b3360009081526034602090815260408083206001600160a01b03861684529091528120548281101561079b5760405162461bcd60e51b815260206004820152602560248201527f45524332303a2064656372656173656420616c6c6f77616e63652062656c6f77604482015264207a65726f60d81b60648201526084016104be565b6107a833858584036108f0565b5060019392505050565b6000610426338484610a14565b600054610100900460ff16806107d8575060005460ff16155b6107f45760405162461bcd60e51b81526004016104be906115f5565b600054610100900460ff16158015610816576000805461ffff19166101011790555b6108208585610eb1565b61083f826108306012600a6116d3565b61083a908661177e565b610d80565b8015610851576000805461ff00191690555b5050505050565b6065546001600160a01b031633146108825760405162461bcd60e51b81526004016104be90611643565b6001600160a01b0381166108e75760405162461bcd60e51b815260206004820152602660248201527f4f776e61626c653a206e6577206f776e657220697320746865207a65726f206160448201526564647265737360d01b60648201526084016104be565b6105a781610e5f565b6001600160a01b0383166109525760405162461bcd60e51b8152602060048201526024808201527f45524332303a20617070726f76652066726f6d20746865207a65726f206164646044820152637265737360e01b60648201526084016104be565b6001600160a01b0382166109b35760405162461bcd60e51b815260206004820152602260248201527f45524332303a20617070726f766520746f20746865207a65726f206164647265604482015261737360f01b60648201526084016104be565b6001600160a01b0383811660008181526034602090815260408083209487168084529482529182902085905590518481527f8c5be1e5ebec7d5bd14f71427d1e84f3dd0314c0f7b2291e5b200ac8c7c3b925910160405180910390a3505050565b6001600160a01b038316610a785760405162461bcd60e51b815260206004820152602560248201527f45524332303a207472616e736665722066726f6d20746865207a65726f206164604482015264647265737360d81b60648201526084016104be565b6001600160a01b038216610ada5760405162461bcd60e51b815260206004820152602360248201527f45524332303a207472616e7366657220746f20746865207a65726f206164647260448201526265737360e81b60648201526084016104be565b6001600160a01b03831660009081526033602052604090205481811015610b525760405162461bcd60e51b815260206004820152602660248201527f45524332303a207472616e7366657220616d6f756e7420657863656564732062604482015265616c616e636560d01b60648201526084016104be565b6001600160a01b03808516600090815260336020526040808220858503905591851681529081208054849290610b89908490611678565b92505081905550826001600160a01b0316846001600160a01b03167fddf252ad1be2c89b69c2b068fc378daa952ba7f163c4a11628f55a4df523b3ef84604051610bd591815260200190565b60405180910390a35b50505050565b7f360894a13ba1a3210667c828492db98dca3e2076cc3735a920a3ca505d382bbc546001600160a01b031690565b6065546001600160a01b031633146105a75760405162461bcd60e51b81526004016104be90611643565b6000610c46610be4565b9050610c5184610f31565b600083511180610c5e5750815b15610c6f57610c6d8484610fd6565b505b7f4910fdfa16fed3260ed0e7147f7cc6da11a60208b5b9406d12a635614ffd9143805460ff1661085157805460ff191660011781556040516001600160a01b0383166024820152610cee90869060440160408051601f198184030181529190526020810180516001600160e01b0316631b2ce7f360e11b179052610fd6565b50805460ff19168155610cff610be4565b6001600160a01b0316826001600160a01b031614610d775760405162461bcd60e51b815260206004820152602f60248201527f45524331393637557067726164653a207570677261646520627265616b73206660448201526e75727468657220757067726164657360881b60648201526084016104be565b610851856110c1565b6001600160a01b038216610dd65760405162461bcd60e51b815260206004820152601f60248201527f45524332303a206d696e7420746f20746865207a65726f20616464726573730060448201526064016104be565b8060356000828254610de89190611678565b90915550506001600160a01b03821660009081526033602052604081208054839290610e15908490611678565b90915550506040518181526001600160a01b038316906000907fddf252ad1be2c89b69c2b068fc378daa952ba7f163c4a11628f55a4df523b3ef9060200160405180910390a35050565b606580546001600160a01b038381166001600160a01b0319831681179093556040519116919082907f8be0079c531659141344cd1fd0a4f28419497f9722a3daafe3b4186f6b6457e090600090a35050565b600054610100900460ff1680610eca575060005460ff16155b610ee65760405162461bcd60e51b81526004016104be906115f5565b600054610100900460ff16158015610f08576000805461ffff19166101011790555b610f10611101565b610f1a838361116c565b8015610f2c576000805461ff00191690555b505050565b803b610f955760405162461bcd60e51b815260206004820152602d60248201527f455243313936373a206e657720696d706c656d656e746174696f6e206973206e60448201526c1bdd08184818dbdb9d1c9858dd609a1b60648201526084016104be565b7f360894a13ba1a3210667c828492db98dca3e2076cc3735a920a3ca505d382bbc80546001600160a01b0319166001600160a01b0392909216919091179055565b6060823b6110355760405162461bcd60e51b815260206004820152602660248201527f416464726573733a2064656c65676174652063616c6c20746f206e6f6e2d636f6044820152651b9d1c9858dd60d21b60648201526084016104be565b600080846001600160a01b031684604051611050919061150e565b600060405180830381855af49150503d806000811461108b576040519150601f19603f3d011682016040523d82523d6000602084013e611090565b606091505b50915091506110b8828260405180606001604052806027815260200161183160279139611201565b95945050505050565b6110ca81610f31565b6040516001600160a01b038216907fbc7cd75a20ee27fd9adebab32041f755214dbc6bffa90cc0225b39da2e5c2d3b90600090a250565b600054610100900460ff168061111a575060005460ff16155b6111365760405162461bcd60e51b81526004016104be906115f5565b600054610100900460ff16158015611158576000805461ffff19166101011790555b80156105a7576000805461ff001916905550565b600054610100900460ff1680611185575060005460ff16155b6111a15760405162461bcd60e51b81526004016104be906115f5565b600054610100900460ff161580156111c3576000805461ffff19166101011790555b82516111d690603690602086019061123a565b5081516111ea90603790602085019061123a565b508015610f2c576000805461ff0019169055505050565b606083156112105750816104da565b8251156112205782518084602001fd5b8160405162461bcd60e51b81526004016104be919061152a565b828054611246906117c9565b90600052602060002090601f01602090048101928261126857600085556112ae565b82601f1061128157805160ff19168380011785556112ae565b828001600101855582156112ae579182015b828111156112ae578251825591602001919060010190611293565b506112ba9291506112be565b5090565b5b808211156112ba57600081556001016112bf565b600067ffffffffffffffff808411156112ee576112ee61181a565b604051601f8501601f19908116603f011681019082821181831017156113165761131661181a565b8160405280935085815286868601111561132f57600080fd5b858560208301376000602087830101525050509392505050565b80356001600160a01b038116811461136057600080fd5b919050565b600082601f830112611375578081fd5b6104da838335602085016112d3565b600060208284031215611395578081fd5b6104da82611349565b600080604083850312156113b0578081fd5b6113b983611349565b91506113c760208401611349565b90509250929050565b6000806000606084860312156113e4578081fd5b6113ed84611349565b92506113fb60208501611349565b9150604084013590509250925092565b6000806040838503121561141d578182fd5b61142683611349565b9150602083013567ffffffffffffffff811115611441578182fd5b8301601f81018513611451578182fd5b611460858235602084016112d3565b9150509250929050565b6000806040838503121561147c578182fd5b61148583611349565b946020939093013593505050565b600080600080608085870312156114a8578081fd5b843567ffffffffffffffff808211156114bf578283fd5b6114cb88838901611365565b955060208701359150808211156114e0578283fd5b506114ed87828801611365565b9350506040850135915061150360608601611349565b905092959194509250565b6000825161152081846020870161179d565b9190910192915050565b602081526000825180602084015261154981604085016020870161179d565b601f01601f19169190910160400192915050565b6020808252602c908201527f46756e6374696f6e206d7573742062652063616c6c6564207468726f7567682060408201526b19195b1959d85d1958d85b1b60a21b606082015260800190565b6020808252602c908201527f46756e6374696f6e206d7573742062652063616c6c6564207468726f7567682060408201526b6163746976652070726f787960a01b606082015260800190565b6020808252602e908201527f496e697469616c697a61626c653a20636f6e747261637420697320616c72656160408201526d191e481a5b9a5d1a585b1a5e995960921b606082015260800190565b6020808252818101527f4f776e61626c653a2063616c6c6572206973206e6f7420746865206f776e6572604082015260600190565b6000821982111561168b5761168b611804565b500190565b600181815b808511156116cb5781600019048211156116b1576116b1611804565b808516156116be57918102915b93841c9390800290611695565b509250929050565b60006104da60ff8416836000826116ec5750600161042a565b816116f95750600061042a565b816001811461170f576002811461171957611735565b600191505061042a565b60ff84111561172a5761172a611804565b50506001821b61042a565b5060208310610133831016604e8410600b8410161715611758575081810a61042a565b6117628383611690565b806000190482111561177657611776611804565b029392505050565b600081600019048311821515161561179857611798611804565b500290565b60005b838110156117b85781810151838201526020016117a0565b83811115610bde5750506000910152565b600181811c908216806117dd57607f821691505b602082108114156117fe57634e487b7160e01b600052602260045260246000fd5b50919050565b634e487b7160e01b600052601160045260246000fd5b634e487b7160e01b600052604160045260246000fdfe416464726573733a206c6f772d6c6576656c2064656c65676174652063616c6c206661696c6564a2646970667358221220e62188eda12ed29d7167b897099ce7c42c798aa7a99c215956ffd5cf7c87807f64736f6c63430008040033",
  "linkReferences": {},
  "deployedLinkReferences": {}
}