{
  "_format": "hh-sol-artifact-1",
  "contractName": "Factory",
  "sourceName": "contracts/Factory.sol",
  "abi": [
    {
      "anonymous": false,
      "inputs": [
        {
          "indexed": false,
          "internalType": "address",
          "name": "previousAdmin",
          "type": "address"
        },
        {
          "indexed": false,
          "internalType": "address",
          "name": "newAdmin",
          "type": "address"
        }
      ],
      "name": "AdminChanged",
      "type": "event"
    },
    {
      "anonymous": false,
      "inputs": [
        {
          "indexed": true,
          "internalType": "address",
          "name": "beacon",
          "type": "address"
        }
      ],
      "name": "BeaconUpgraded",
      "type": "event"
    },
    {
      "anonymous": false,
      "inputs": [
        {
          "indexed": false,
          "internalType": "string",
          "name": "name",
          "type": "string"
        },
        {
          "indexed": true,
          "internalType": "address",
          "name": "vault",
          "type": "address"
        },
        {
          "indexed": true,
          "internalType": "address",
          "name": "tokenAddress",
          "type": "address"
        }
      ],
      "name": "NewVault",
      "type": "event"
    },
    {
      "anonymous": false,
      "inputs": [
        {
          "indexed": true,
          "internalType": "address",
          "name": "previousOwner",
          "type": "address"
        },
        {
          "indexed": true,
          "internalType": "address",
          "name": "newOwner",
          "type": "address"
        }
      ],
      "name": "OwnershipTransferred",
      "type": "event"
    },
    {
      "anonymous": false,
      "inputs": [
        {
          "indexed": true,
          "internalType": "address",
          "name": "implementation",
          "type": "address"
        }
      ],
      "name": "Upgraded",
      "type": "event"
    },
    {
      "inputs": [
        {
          "internalType": "uint256",
          "name": "_id",
          "type": "uint256"
        }
      ],
      "name": "delVault",
      "outputs": [],
      "stateMutability": "nonpayable",
      "type": "function"
    },
    {
      "inputs": [
        {
          "internalType": "address",
          "name": "_vaultAddress",
          "type": "address"
        }
      ],
      "name": "delegateToCeramic",
      "outputs": [
        {
          "internalType": "string",
          "name": "",
          "type": "string"
        }
      ],
      "stateMutability": "view",
      "type": "function"
    },
    {
      "inputs": [
        {
          "internalType": "address",
          "name": "_vaultAddr",
          "type": "address"
        }
      ],
      "name": "distributeVaultTokens",
      "outputs": [],
      "stateMutability": "nonpayable",
      "type": "function"
    },
    {
      "inputs": [],
      "name": "getAllVaults",
      "outputs": [
        {
          "components": [
            {
              "internalType": "uint256",
              "name": "id",
              "type": "uint256"
            },
            {
              "internalType": "address",
              "name": "addr",
              "type": "address"
            }
          ],
          "internalType": "struct CRUD.Instance[]",
          "name": "",
          "type": "tuple[]"
        }
      ],
      "stateMutability": "view",
      "type": "function"
    },
    {
      "inputs": [
        {
          "internalType": "uint256",
          "name": "_id",
          "type": "uint256"
        }
      ],
      "name": "getVaultAddress",
      "outputs": [
        {
          "internalType": "address",
          "name": "",
          "type": "address"
        }
      ],
      "stateMutability": "view",
      "type": "function"
    },
    {
      "inputs": [
        {
          "internalType": "address",
          "name": "_initiator",
          "type": "address"
        }
      ],
      "name": "initialize",
      "outputs": [],
      "stateMutability": "nonpayable",
      "type": "function"
    },
    {
      "inputs": [],
      "name": "initiator",
      "outputs": [
        {
          "internalType": "address",
          "name": "",
          "type": "address"
        }
      ],
      "stateMutability": "view",
      "type": "function"
    },
    {
      "inputs": [
        {
          "internalType": "string",
          "name": "_vaultName",
          "type": "string"
        },
        {
          "internalType": "string",
          "name": "_ticker",
          "type": "string"
        },
        {
          "internalType": "uint256",
          "name": "_sharesAmount",
          "type": "uint256"
        }
      ],
      "name": "newVault",
      "outputs": [],
      "stateMutability": "payable",
      "type": "function"
    },
    {
      "inputs": [],
      "name": "owner",
      "outputs": [
        {
          "internalType": "address",
          "name": "",
          "type": "address"
        }
      ],
      "stateMutability": "view",
      "type": "function"
    },
    {
      "inputs": [],
      "name": "renounceOwnership",
      "outputs": [],
      "stateMutability": "nonpayable",
      "type": "function"
    },
    {
      "inputs": [
        {
          "internalType": "address",
          "name": "_new_initiator",
          "type": "address"
        }
      ],
      "name": "setInitiator",
      "outputs": [],
      "stateMutability": "nonpayable",
      "type": "function"
    },
    {
      "inputs": [
        {
          "internalType": "address",
          "name": "_vaultAddr",
          "type": "address"
        },
        {
          "internalType": "address",
          "name": "_initiator",
          "type": "address"
        }
      ],
      "name": "setupVault",
      "outputs": [],
      "stateMutability": "nonpayable",
      "type": "function"
    },
    {
      "inputs": [
        {
          "internalType": "address",
          "name": "newOwner",
          "type": "address"
        }
      ],
      "name": "transferOwnership",
      "outputs": [],
      "stateMutability": "nonpayable",
      "type": "function"
    },
    {
      "inputs": [
        {
          "internalType": "address",
          "name": "newImplementation",
          "type": "address"
        }
      ],
      "name": "upgradeTo",
      "outputs": [],
      "stateMutability": "nonpayable",
      "type": "function"
    },
    {
      "inputs": [
        {
          "internalType": "address",
          "name": "newImplementation",
          "type": "address"
        },
        {
          "internalType": "bytes",
          "name": "data",
          "type": "bytes"
        }
      ],
      "name": "upgradeToAndCall",
      "outputs": [],
      "stateMutability": "payable",
      "type": "function"
    }
  ],
  "bytecode": "0x60a06040523060601b60805234801561001757600080fd5b5060805160601c61566461004b600039600081816106ee0152818161072e015281816107b701526107f701526156646000f3fe6080604052600436106100e85760003560e01c80638da5cb5b1161008a578063d59dfd6111610059578063d59dfd6114610258578063e6bd26a214610278578063f2fde38b14610298578063f72663c2146102b857600080fd5b80638da5cb5b146101d857806397331bf9146101f6578063c4d66de814610218578063c6fb3ecc1461023857600080fd5b80633659cfe6116100c65780633659cfe6146101585780634f1ef286146101785780635c39fcc11461018b578063715018a6146101c357600080fd5b80631fb1f96d146100ed578063302aa11e14610123578063354e214514610145575b600080fd5b3480156100f957600080fd5b5061010d6101083660046111ea565b6102d8565b60405161011a91906114b0565b60405180910390f35b34801561012f57600080fd5b5061014361013e3660046113f8565b610384565b005b61014361015336600461138e565b610418565b34801561016457600080fd5b506101436101733660046111ea565b6106e3565b61014361018636600461125a565b6107ac565b34801561019757600080fd5b5060c9546101ab906001600160a01b031681565b6040516001600160a01b03909116815260200161011a565b3480156101cf57600080fd5b50610143610866565b3480156101e457600080fd5b506097546001600160a01b03166101ab565b34801561020257600080fd5b5061020b61089c565b60405161011a9190611458565b34801561022457600080fd5b506101436102333660046111ea565b610922565b34801561024457600080fd5b506101436102533660046111ea565b6109fa565b34801561026457600080fd5b506101436102733660046111ea565b610a80565b34801561028457600080fd5b506101ab6102933660046113f8565b610ad9565b3480156102a457600080fd5b506101436102b33660046111ea565b610b5c565b3480156102c457600080fd5b506101436102d3366004611222565b610bf4565b6001600160a01b038116600090815260cc602052604090208054606091906102ff906116c8565b80601f016020809104026020016040519081016040528092919081815260200182805461032b906116c8565b80156103785780601f1061034d57610100808354040283529160200191610378565b820191906000526020600020905b81548152906001019060200180831161035b57829003601f168201915b50505050509050919050565b6097546001600160a01b031633146103b75760405162461bcd60e51b81526004016103ae90611609565b60405180910390fd5b60cb546040516357771a2360e01b8152600481018390526001600160a01b03909116906357771a2390602401600060405180830381600087803b1580156103fd57600080fd5b505af1158015610411573d6000803e3d6000fd5b5050505050565b600060405161042690611159565b604051809103906000f080158015610442573d6000803e3d6000fd5b5060405163588ca48760e11b81529091506001600160a01b0382169063b119490e90610476908790879087906004016114ed565b600060405180830381600087803b15801561049057600080fd5b505af11580156104a4573d6000803e3d6000fd5b505060c95460405163d59dfd6160e01b81526001600160a01b039182166004820152908416925063d59dfd619150602401600060405180830381600087803b1580156104ef57600080fd5b505af1158015610503573d6000803e3d6000fd5b5050505060008190506000826001600160a01b03166310fe9ae86040518163ffffffff1660e01b815260040160206040518083038186803b15801561054757600080fd5b505afa15801561055b573d6000803e3d6000fd5b505050506040513d601f19601f8201168201806040525081019061057f9190611206565b604051635aac895b60e01b81523360048201529091506001600160a01b03841690635aac895b9034906024016000604051808303818588803b1580156105c457600080fd5b505af11580156105d8573d6000803e3d6000fd5b5050505050806001600160a01b0316826001600160a01b03167fcd0442b3f935a8c98745f6e083226c5937c39406bbc691d8b5e216c7b34176e38860405161062091906114b0565b60405180910390a361065b604051806040016040528060118152602001702b30bab63a1031b932b0ba32b21030ba1d60791b81525083610c81565b60cb5460ca5460405163780ff34960e11b815260048101919091526001600160a01b0384811660248301529091169063f01fe69290604401600060405180830381600087803b1580156106ad57600080fd5b505af11580156106c1573d6000803e3d6000fd5b505060ca80549250905060006106d683611703565b9190505550505050505050565b306001600160a01b037f000000000000000000000000000000000000000000000000000000000000000016141561072c5760405162461bcd60e51b81526004016103ae90611523565b7f00000000000000000000000000000000000000000000000000000000000000006001600160a01b031661075e610cc6565b6001600160a01b0316146107845760405162461bcd60e51b81526004016103ae9061156f565b61078d81610cf4565b604080516000808252602082019092526107a991839190610d1e565b50565b306001600160a01b037f00000000000000000000000000000000000000000000000000000000000000001614156107f55760405162461bcd60e51b81526004016103ae90611523565b7f00000000000000000000000000000000000000000000000000000000000000006001600160a01b0316610827610cc6565b6001600160a01b03161461084d5760405162461bcd60e51b81526004016103ae9061156f565b61085682610cf4565b61086282826001610d1e565b5050565b6097546001600160a01b031633146108905760405162461bcd60e51b81526004016103ae90611609565b61089a6000610e62565b565b60cb54604080516341f654f760e01b815290516060926001600160a01b0316916341f654f7916004808301926000929190829003018186803b1580156108e157600080fd5b505afa1580156108f5573d6000803e3d6000fd5b505050506040513d6000823e601f3d908101601f1916820160405261091d91908101906112bb565b905090565b600054610100900460ff168061093b575060005460ff16155b6109575760405162461bcd60e51b81526004016103ae906115bb565b600054610100900460ff16158015610979576000805461ffff19166101011790555b610981610eb4565b60c980546001600160a01b0319166001600160a01b0384161790556040516109a890611166565b604051809103906000f0801580156109c4573d6000803e3d6000fd5b5060cb80546001600160a01b0319166001600160a01b03929092169190911790558015610862576000805461ff00191690555050565b6097546001600160a01b03163314610a245760405162461bcd60e51b81526004016103ae90611609565b6000819050806001600160a01b0316639ab1b4846040518163ffffffff1660e01b8152600401600060405180830381600087803b158015610a6457600080fd5b505af1158015610a78573d6000803e3d6000fd5b505050505050565b6097546001600160a01b03163314610aaa5760405162461bcd60e51b81526004016103ae90611609565b6001600160a01b038116156107a95760c980546001600160a01b0383166001600160a01b031990911617905550565b60cb5460405163ed2e5a9760e01b8152600481018390526000916001600160a01b03169063ed2e5a979060240160206040518083038186803b158015610b1e57600080fd5b505afa158015610b32573d6000803e3d6000fd5b505050506040513d601f19601f82011682018060405250810190610b569190611206565b92915050565b6097546001600160a01b03163314610b865760405162461bcd60e51b81526004016103ae90611609565b6001600160a01b038116610beb5760405162461bcd60e51b815260206004820152602660248201527f4f776e61626c653a206e6577206f776e657220697320746865207a65726f206160448201526564647265737360d01b60648201526084016103ae565b6107a981610e62565b6097546001600160a01b03163314610c1e5760405162461bcd60e51b81526004016103ae90611609565b60405163d59dfd6160e01b81526001600160a01b03828116600483015283919082169063d59dfd6190602401600060405180830381600087803b158015610c6457600080fd5b505af1158015610c78573d6000803e3d6000fd5b50505050505050565b6108628282604051602401610c979291906114c3565b60408051601f198184030181529190526020810180516001600160e01b031663319af33360e01b179052610f28565b7f360894a13ba1a3210667c828492db98dca3e2076cc3735a920a3ca505d382bbc546001600160a01b031690565b6097546001600160a01b031633146107a95760405162461bcd60e51b81526004016103ae90611609565b6000610d28610cc6565b9050610d3384610f49565b600083511180610d405750815b15610d5157610d4f8484610fee565b505b7f4910fdfa16fed3260ed0e7147f7cc6da11a60208b5b9406d12a635614ffd9143805460ff1661041157805460ff191660011781556040516001600160a01b0383166024820152610dd090869060440160408051601f198184030181529190526020810180516001600160e01b0316631b2ce7f360e11b179052610fee565b50805460ff19168155610de1610cc6565b6001600160a01b0316826001600160a01b031614610e595760405162461bcd60e51b815260206004820152602f60248201527f45524331393637557067726164653a207570677261646520627265616b73206660448201526e75727468657220757067726164657360881b60648201526084016103ae565b610411856110d9565b609780546001600160a01b038381166001600160a01b0319831681179093556040519116919082907f8be0079c531659141344cd1fd0a4f28419497f9722a3daafe3b4186f6b6457e090600090a35050565b600054610100900460ff1680610ecd575060005460ff16155b610ee95760405162461bcd60e51b81526004016103ae906115bb565b600054610100900460ff16158015610f0b576000805461ffff19166101011790555b610f1433610e62565b80156107a9576000805461ff001916905550565b80516a636f6e736f6c652e6c6f67602083016000808483855afa5050505050565b803b610fad5760405162461bcd60e51b815260206004820152602d60248201527f455243313936373a206e657720696d706c656d656e746174696f6e206973206e60448201526c1bdd08184818dbdb9d1c9858dd609a1b60648201526084016103ae565b7f360894a13ba1a3210667c828492db98dca3e2076cc3735a920a3ca505d382bbc80546001600160a01b0319166001600160a01b0392909216919091179055565b6060823b61104d5760405162461bcd60e51b815260206004820152602660248201527f416464726573733a2064656c65676174652063616c6c20746f206e6f6e2d636f6044820152651b9d1c9858dd60d21b60648201526084016103ae565b600080846001600160a01b031684604051611068919061143c565b600060405180830381855af49150503d80600081146110a3576040519150601f19603f3d011682016040523d82523d6000602084013e6110a8565b606091505b50915091506110d0828260405180606001604052806027815260200161560860279139611119565b95945050505050565b6110e281610f49565b6040516001600160a01b038216907fbc7cd75a20ee27fd9adebab32041f755214dbc6bffa90cc0225b39da2e5c2d3b90600090a250565b60608315611128575081611152565b8251156111385782518084602001fd5b8160405162461bcd60e51b81526004016103ae91906114b0565b9392505050565b6139618061175683390190565b610551806150b783390190565b600067ffffffffffffffff83111561118d5761118d61172a565b6111a0601f8401601f1916602001611667565b90508281528383830111156111b457600080fd5b828260208301376000602084830101529392505050565b600082601f8301126111db578081fd5b61115283833560208501611173565b6000602082840312156111fb578081fd5b813561115281611740565b600060208284031215611217578081fd5b815161115281611740565b60008060408385031215611234578081fd5b823561123f81611740565b9150602083013561124f81611740565b809150509250929050565b6000806040838503121561126c578182fd5b823561127781611740565b9150602083013567ffffffffffffffff811115611292578182fd5b8301601f810185136112a2578182fd5b6112b185823560208401611173565b9150509250929050565b600060208083850312156112cd578182fd5b825167ffffffffffffffff808211156112e4578384fd5b818501915085601f8301126112f7578384fd5b8151818111156113095761130961172a565b611317848260051b01611667565b8181528481019250838501600683901b85018601891015611336578687fd5b8694505b8285101561138257604080828b031215611352578788fd5b61135a61163e565b825181528783015161136b81611740565b81890152855260019590950194938601930161133a565b50979650505050505050565b6000806000606084860312156113a2578081fd5b833567ffffffffffffffff808211156113b9578283fd5b6113c5878388016111cb565b945060208601359150808211156113da578283fd5b506113e7868287016111cb565b925050604084013590509250925092565b600060208284031215611409578081fd5b5035919050565b60008151808452611428816020860160208601611698565b601f01601f19169290920160200192915050565b6000825161144e818460208701611698565b9190910192915050565b602080825282518282018190526000919060409081850190868401855b828110156114a3578151805185528601516001600160a01b0316868501529284019290850190600101611475565b5091979650505050505050565b6020815260006111526020830184611410565b6040815260006114d66040830185611410565b905060018060a01b03831660208301529392505050565b6060815260006115006060830186611410565b82810360208401526115128186611410565b915050826040830152949350505050565b6020808252602c908201527f46756e6374696f6e206d7573742062652063616c6c6564207468726f7567682060408201526b19195b1959d85d1958d85b1b60a21b606082015260800190565b6020808252602c908201527f46756e6374696f6e206d7573742062652063616c6c6564207468726f7567682060408201526b6163746976652070726f787960a01b606082015260800190565b6020808252602e908201527f496e697469616c697a61626c653a20636f6e747261637420697320616c72656160408201526d191e481a5b9a5d1a585b1a5e995960921b606082015260800190565b6020808252818101527f4f776e61626c653a2063616c6c6572206973206e6f7420746865206f776e6572604082015260600190565b6040805190810167ffffffffffffffff811182821017156116615761166161172a565b60405290565b604051601f8201601f1916810167ffffffffffffffff811182821017156116905761169061172a565b604052919050565b60005b838110156116b357818101518382015260200161169b565b838111156116c2576000848401525b50505050565b600181811c908216806116dc57607f821691505b602082108114156116fd57634e487b7160e01b600052602260045260246000fd5b50919050565b600060001982141561172357634e487b7160e01b81526011600452602481fd5b5060010190565b634e487b7160e01b600052604160045260246000fd5b6001600160a01b03811681146107a957600080fdfe60a06040523060601b60805260cf805460ff1916905534801561002157600080fd5b5060805160601c61390c6100556000396000818161072a0152818161076a015281816107f30152610833015261390c6000f3fe6080604052600436106101665760003560e01c80637a766460116100d1578063b119490e1161008a578063d59dfd6111610064578063d59dfd61146103fd578063dd701b3a1461041d578063ddd5e1b214610432578063f2fde38b1461045257600080fd5b8063b119490e14610380578063c040e6b8146103a0578063c084b10b146103c757600080fd5b80637a766460146102cb57806385a383d0146102eb578063862b092b1461030b5780638da5cb5b1461032d5780639ab1b4841461034b578063a694fc3a1461036057600080fd5b80633659cfe6116101235780633659cfe6146102305780634f1ef28614610250578063521ad829146102635780635aac895b146102835780635c39fcc114610296578063715018a6146102b657600080fd5b80630508c8cb1461016b5780630bcf70d91461018257806310fe9ae81461019557806312065fe0146101d15780631d9a4bf2146101ee57806333289a4614610210575b600080fd5b34801561017757600080fd5b50610180610472565b005b610180610190366004611b01565b6104b4565b3480156101a157600080fd5b5060cf5461010090046001600160a01b03165b6040516001600160a01b0390911681526020015b60405180910390f35b3480156101dd57600080fd5b50475b6040519081526020016101c8565b3480156101fa57600080fd5b50610203610560565b6040516101c89190611ba4565b34801561021c57600080fd5b5061018061022b366004611b01565b610603565b34801561023c57600080fd5b5061018061024b366004611994565b61071f565b61018061025e3660046119ae565b6107e8565b34801561026f57600080fd5b5061018061027e366004611b31565b61089e565b610180610291366004611994565b610913565b3480156102a257600080fd5b5060c9546101b4906001600160a01b031681565b3480156102c257600080fd5b50610180610a0a565b3480156102d757600080fd5b506101e06102e6366004611994565b610a40565b3480156102f757600080fd5b50610180610306366004611994565b610aa6565b34801561031757600080fd5b50610320610ba0565b6040516101c89190611c19565b34801561033957600080fd5b506033546001600160a01b03166101b4565b34801561035757600080fd5b50610180610c31565b34801561036c57600080fd5b5061018061037b366004611b01565b610ec0565b34801561038c57600080fd5b5061018061039b366004611a97565b6110d0565b3480156103ac57600080fd5b5060cf546103ba9060ff1681565b6040516101c89190611bf1565b3480156103d357600080fd5b506101e06103e2366004611994565b6001600160a01b0316600090815260cb602052604090205490565b34801561040957600080fd5b50610180610418366004611994565b611213565b34801561042957600080fd5b5061032061126c565b34801561043e57600080fd5b5061018061044d366004611b31565b6112bc565b34801561045e57600080fd5b5061018061046d366004611994565b611402565b60c9546001600160a01b031633146104a55760405162461bcd60e51b815260040161049c90611cbf565b60405180910390fd5b60cf805460ff19166001179055565b60c9546001600160a01b031633146104de5760405162461bcd60e51b815260040161049c90611cbf565b60c9546040516001600160a01b039091169082156108fc029083906000818181858888f19350505050158015610518573d6000803e3d6000fd5b5060c9546040518281526001600160a01b039091169030907fec81baf44a01b9ebf929a2549dea1929ade755e2c39675465b7b7af5681adaa99060200160405180910390a350565b6060600160cf5460ff16600181111561058957634e487b7160e01b600052602160045260246000fd5b146105a65760405162461bcd60e51b815260040161049c90611deb565b60ce8054604080516020808402820181019092528281529291908301828280156105f957602002820191906000526020600020905b81546001600160a01b031681526001909101906020018083116105db575b5050505050905090565b33600090815260cb602052604090205461065f5760405162461bcd60e51b815260206004820152601760248201527f546865207573657220686173206e6f206465706f736974000000000000000000604482015260640161049c565b33600090815260cb60205260409020548111156106ca5760405162461bcd60e51b8152602060048201526024808201527f4e6f7420656e6f756768206465706f736974206f6e207573657227732062616c604482015263616e636560e01b606482015260840161049c565b33600090815260cb6020526040812080548392906106e9908490611ed2565b9091555050604051339082156108fc029083906000818181858888f1935050505015801561071b573d6000803e3d6000fd5b5050565b306001600160a01b037f00000000000000000000000000000000000000000000000000000000000000001614156107685760405162461bcd60e51b815260040161049c90611c73565b7f00000000000000000000000000000000000000000000000000000000000000006001600160a01b031661079a61149a565b6001600160a01b0316146107c05760405162461bcd60e51b815260040161049c90611d1c565b6107c9816114c8565b604080516000808252602082019092526107e5918391906114f2565b50565b306001600160a01b037f00000000000000000000000000000000000000000000000000000000000000001614156108315760405162461bcd60e51b815260040161049c90611c73565b7f00000000000000000000000000000000000000000000000000000000000000006001600160a01b031661086361149a565b6001600160a01b0316146108895760405162461bcd60e51b815260040161049c90611d1c565b610892826114c8565b61071b828260016114f2565b600160cf5460ff1660018111156108c557634e487b7160e01b600052602160045260246000fd5b146108e25760405162461bcd60e51b815260040161049c90611deb565b6001600160a01b038116600090815260cc60205260408120805484929061090a908490611e7b565b90915550505050565b6001600160a01b038116600090815260cb602052604090205461097c5760ca80546001810182556000919091527f42d72674974f694b5f5159593243114d38a5c39c89d6b62fee061ff523240ee10180546001600160a01b0319166001600160a01b0383161790555b3460d0600082825461098e9190611e7b565b90915550506001600160a01b038116600090815260cb6020526040812080543492906109bb908490611e7b565b9091555050604080513081526001600160a01b0383166020820152348183015290517f83df459d706116d1b3f1c7b7f77cfea4c635275f5d1e1a53827f536ef48db77d9181900360600190a150565b6033546001600160a01b03163314610a345760405162461bcd60e51b815260040161049c90611db6565b610a3e600061163d565b565b6000600160cf5460ff166001811115610a6957634e487b7160e01b600052602160045260246000fd5b14610a865760405162461bcd60e51b815260040161049c90611deb565b506001600160a01b038116600090815260cc60205260409020545b919050565b6033546001600160a01b03163314610ad05760405162461bcd60e51b815260040161049c90611db6565b6001600160a01b038116600090815260cd602052604090205460ff1615610b395760405162461bcd60e51b815260206004820152601c60248201527f5468697320617373657420697320616c7265616479206c6f636b656400000000604482015260640161049c565b60ce805460018181019092557fd36cd1c74ef8d7326d8021b776c18fb5a5724b7f7bc93c2f42e43e10ef27d12a0180546001600160a01b039093166001600160a01b031990931683179055600091825260cd6020526040909120805460ff19169091179055565b606060cf60019054906101000a90046001600160a01b03166001600160a01b03166306fdde036040518163ffffffff1660e01b815260040160006040518083038186803b158015610bf057600080fd5b505afa158015610c04573d6000803e3d6000fd5b505050506040513d6000823e601f3d908101601f19168201604052610c2c9190810190611a2d565b905090565b600160cf5460ff166001811115610c5857634e487b7160e01b600052602160045260246000fd5b14610c755760405162461bcd60e51b815260040161049c90611deb565b6033546001600160a01b03163314610c9f5760405162461bcd60e51b815260040161049c90611db6565b600060d05460cf60019054906101000a90046001600160a01b03166001600160a01b03166318160ddd6040518163ffffffff1660e01b815260040160206040518083038186803b158015610cf257600080fd5b505afa158015610d06573d6000803e3d6000fd5b505050506040513d601f19601f82011682018060405250810190610d2a9190611b19565b610d349190611e93565b60cf54604080516318160ddd60e01b815290519293506101009091046001600160a01b03169163095ea7b391309184916318160ddd916004808301926020929190829003018186803b158015610d8957600080fd5b505afa158015610d9d573d6000803e3d6000fd5b505050506040513d601f19601f82011682018060405250810190610dc19190611b19565b6040516001600160e01b031960e085901b1681526001600160a01b0390921660048301526024820152604401602060405180830381600087803b158015610e0757600080fd5b505af1158015610e1b573d6000803e3d6000fd5b505050506040513d601f19601f82011682018060405250810190610e3f9190611a0d565b5060005b60ca5481101561071b57600060ca8281548110610e7057634e487b7160e01b600052603260045260246000fd5b60009182526020808320909101546001600160a01b031680835260cb909152604090912054909150610ead90610ea7908590611eb3565b8261089e565b5080610eb881611f15565b915050610e43565b600160cf5460ff166001811115610ee757634e487b7160e01b600052602160045260246000fd5b14610f045760405162461bcd60e51b815260040161049c90611deb565b60cf54604051636eb1769f60e11b8152336004820152306024820152829161010090046001600160a01b03169063dd62ed3e9060440160206040518083038186803b158015610f5257600080fd5b505afa158015610f66573d6000803e3d6000fd5b505050506040513d601f19601f82011682018060405250810190610f8a9190611b19565b101561101a5760cf5460405163095ea7b360e01b8152306004820152602481018390526101009091046001600160a01b03169063095ea7b390604401602060405180830381600087803b158015610fe057600080fd5b505af1158015610ff4573d6000803e3d6000fd5b505050506040513d601f19601f820116820180604052508101906110189190611a0d565b505b60cf546040516323b872dd60e01b8152336004820152306024820152604481018390526101009091046001600160a01b0316906323b872dd90606401602060405180830381600087803b15801561107057600080fd5b505af1158015611084573d6000803e3d6000fd5b505050506040513d601f19601f820116820180604052508101906110a89190611a0d565b5033600090815260cc6020526040812080548392906110c8908490611e7b565b909155505050565b600054610100900460ff16806110e9575060005460ff16155b6111055760405162461bcd60e51b815260040161049c90611d68565b600054610100900460ff16158015611127576000805461ffff19166101011790555b61112f61168f565b60405161113b90611913565b604051809103906000f080158015611157573d6000803e3d6000fd5b5060cf8054610100600160a81b0319166101006001600160a01b0393841681029190911791829055604051635e9d09fb60e11b815291049091169063bd3a13f6906111ac908790879087903090600401611c2c565b600060405180830381600087803b1580156111c657600080fd5b505af11580156111da573d6000803e3d6000fd5b505060cf5461010090046001600160a01b031691506111fa905081610aa6565b50801561120d576000805461ff00191690555b50505050565b6033546001600160a01b0316331461123d5760405162461bcd60e51b815260040161049c90611db6565b6001600160a01b038116156107e55760c980546001600160a01b0383166001600160a01b031990911617905550565b606060cf60019054906101000a90046001600160a01b03166001600160a01b03166395d89b416040518163ffffffff1660e01b815260040160006040518083038186803b158015610bf057600080fd5b600160cf5460ff1660018111156112e357634e487b7160e01b600052602160045260246000fd5b146113005760405162461bcd60e51b815260040161049c90611deb565b336001600160a01b0382161461131557600080fd5b6001600160a01b038116600090815260cc6020526040902054828110156113c35760cf5460405163a9059cbb60e01b81526001600160a01b038481166004830152602482018490526101009092049091169063a9059cbb906044015b602060405180830381600087803b15801561138b57600080fd5b505af115801561139f573d6000803e3d6000fd5b505050506040513d601f19601f8201168201806040525081019061120d9190611a0d565b60cf5460405163a9059cbb60e01b81526001600160a01b038481166004830152602482018690526101009092049091169063a9059cbb90604401611371565b6033546001600160a01b0316331461142c5760405162461bcd60e51b815260040161049c90611db6565b6001600160a01b0381166114915760405162461bcd60e51b815260206004820152602660248201527f4f776e61626c653a206e6577206f776e657220697320746865207a65726f206160448201526564647265737360d01b606482015260840161049c565b6107e58161163d565b7f360894a13ba1a3210667c828492db98dca3e2076cc3735a920a3ca505d382bbc546001600160a01b031690565b6033546001600160a01b031633146107e55760405162461bcd60e51b815260040161049c90611db6565b60006114fc61149a565b905061150784611703565b6000835111806115145750815b156115255761152384846117a8565b505b7f4910fdfa16fed3260ed0e7147f7cc6da11a60208b5b9406d12a635614ffd9143805460ff1661163657805460ff191660011781556040516001600160a01b03831660248201526115a490869060440160408051601f198184030181529190526020810180516001600160e01b0316631b2ce7f360e11b1790526117a8565b50805460ff191681556115b561149a565b6001600160a01b0316826001600160a01b03161461162d5760405162461bcd60e51b815260206004820152602f60248201527f45524331393637557067726164653a207570677261646520627265616b73206660448201526e75727468657220757067726164657360881b606482015260840161049c565b61163685611893565b5050505050565b603380546001600160a01b038381166001600160a01b0319831681179093556040519116919082907f8be0079c531659141344cd1fd0a4f28419497f9722a3daafe3b4186f6b6457e090600090a35050565b600054610100900460ff16806116a8575060005460ff16155b6116c45760405162461bcd60e51b815260040161049c90611d68565b600054610100900460ff161580156116e6576000805461ffff19166101011790555b6116ef3361163d565b80156107e5576000805461ff001916905550565b803b6117675760405162461bcd60e51b815260206004820152602d60248201527f455243313936373a206e657720696d706c656d656e746174696f6e206973206e60448201526c1bdd08184818dbdb9d1c9858dd609a1b606482015260840161049c565b7f360894a13ba1a3210667c828492db98dca3e2076cc3735a920a3ca505d382bbc80546001600160a01b0319166001600160a01b0392909216919091179055565b6060823b6118075760405162461bcd60e51b815260206004820152602660248201527f416464726573733a2064656c65676174652063616c6c20746f206e6f6e2d636f6044820152651b9d1c9858dd60d21b606482015260840161049c565b600080846001600160a01b0316846040516118229190611b88565b600060405180830381855af49150503d806000811461185d576040519150601f19603f3d011682016040523d82523d6000602084013e611862565b606091505b509150915061188a82826040518060600160405280602781526020016138b0602791396118d3565b95945050505050565b61189c81611703565b6040516001600160a01b038216907fbc7cd75a20ee27fd9adebab32041f755214dbc6bffa90cc0225b39da2e5c2d3b90600090a250565b606083156118e257508161190c565b8251156118f25782518084602001fd5b8160405162461bcd60e51b815260040161049c9190611c19565b9392505050565b61195380611f5d83390190565b600061193361192e84611e53565b611e22565b905082815283838301111561194757600080fd5b828260208301376000602084830101529392505050565b80356001600160a01b0381168114610aa157600080fd5b600082601f830112611985578081fd5b61190c83833560208501611920565b6000602082840312156119a5578081fd5b61190c8261195e565b600080604083850312156119c0578081fd5b6119c98361195e565b9150602083013567ffffffffffffffff8111156119e4578182fd5b8301601f810185136119f4578182fd5b611a0385823560208401611920565b9150509250929050565b600060208284031215611a1e578081fd5b8151801515811461190c578182fd5b600060208284031215611a3e578081fd5b815167ffffffffffffffff811115611a54578182fd5b8201601f81018413611a64578182fd5b8051611a7261192e82611e53565b818152856020838501011115611a86578384fd5b61188a826020830160208601611ee9565b600080600060608486031215611aab578081fd5b833567ffffffffffffffff80821115611ac2578283fd5b611ace87838801611975565b94506020860135915080821115611ae3578283fd5b50611af086828701611975565b925050604084013590509250925092565b600060208284031215611b12578081fd5b5035919050565b600060208284031215611b2a578081fd5b5051919050565b60008060408385031215611b43578182fd5b82359150611b536020840161195e565b90509250929050565b60008151808452611b74816020860160208601611ee9565b601f01601f19169290920160200192915050565b60008251611b9a818460208701611ee9565b9190910192915050565b6020808252825182820181905260009190848201906040850190845b81811015611be55783516001600160a01b031683529284019291840191600101611bc0565b50909695505050505050565b6020810160028310611c1357634e487b7160e01b600052602160045260246000fd5b91905290565b60208152600061190c6020830184611b5c565b608081526000611c3f6080830187611b5c565b8281036020840152611c518187611b5c565b604084019590955250506001600160a01b039190911660609091015292915050565b6020808252602c908201527f46756e6374696f6e206d7573742062652063616c6c6564207468726f7567682060408201526b19195b1959d85d1958d85b1b60a21b606082015260800190565b6020808252603f908201527f546f2072756e2074686973206d6574686f6420796f75206e65656420746f206260408201527f6520616e20696e69746961746f72206f662074686520636f6e74726163742e00606082015260800190565b6020808252602c908201527f46756e6374696f6e206d7573742062652063616c6c6564207468726f7567682060408201526b6163746976652070726f787960a01b606082015260800190565b6020808252602e908201527f496e697469616c697a61626c653a20636f6e747261637420697320616c72656160408201526d191e481a5b9a5d1a585b1a5e995960921b606082015260800190565b6020808252818101527f4f776e61626c653a2063616c6c6572206973206e6f7420746865206f776e6572604082015260600190565b60208082526019908201527f54686520706f6f6c206973206e6f742066756c6c207965742100000000000000604082015260600190565b604051601f8201601f1916810167ffffffffffffffff81118282101715611e4b57611e4b611f46565b604052919050565b600067ffffffffffffffff821115611e6d57611e6d611f46565b50601f01601f191660200190565b60008219821115611e8e57611e8e611f30565b500190565b600082611eae57634e487b7160e01b81526012600452602481fd5b500490565b6000816000190483118215151615611ecd57611ecd611f30565b500290565b600082821015611ee457611ee4611f30565b500390565b60005b83811015611f04578181015183820152602001611eec565b8381111561120d5750506000910152565b6000600019821415611f2957611f29611f30565b5060010190565b634e487b7160e01b600052601160045260246000fd5b634e487b7160e01b600052604160045260246000fdfe60a06040523060601b60805234801561001757600080fd5b5060805160601c61190861004b600039600081816104ec0152818161052c01528181610629015261066901526119086000f3fe6080604052600436106101095760003560e01c806370a0823111610095578063a457c2d711610064578063a457c2d7146102c1578063a9059cbb146102e1578063bd3a13f614610301578063dd62ed3e14610321578063f2fde38b1461036757600080fd5b806370a0823114610239578063715018a61461026f5780638da5cb5b1461028457806395d89b41146102ac57600080fd5b8063313ce567116100dc578063313ce567146101a85780633659cfe6146101c457806339509351146101e657806340c10f19146102065780634f1ef2861461022657600080fd5b806306fdde031461010e578063095ea7b31461013957806318160ddd1461016957806323b872dd14610188575b600080fd5b34801561011a57600080fd5b50610123610387565b60405161013091906115a5565b60405180910390f35b34801561014557600080fd5b506101596101543660046114e5565b610419565b6040519015158152602001610130565b34801561017557600080fd5b506035545b604051908152602001610130565b34801561019457600080fd5b506101596101a336600461144b565b610430565b3480156101b457600080fd5b5060405160128152602001610130565b3480156101d057600080fd5b506101e46101df3660046113ff565b6104e1565b005b3480156101f257600080fd5b506101596102013660046114e5565b6105aa565b34801561021257600080fd5b506101e46102213660046114e5565b6105e6565b6101e4610234366004611486565b61061e565b34801561024557600080fd5b5061017a6102543660046113ff565b6001600160a01b031660009081526033602052604090205490565b34801561027b57600080fd5b506101e46106d4565b34801561029057600080fd5b506065546040516001600160a01b039091168152602001610130565b3480156102b857600080fd5b5061012361070a565b3480156102cd57600080fd5b506101596102dc3660046114e5565b610719565b3480156102ed57600080fd5b506101596102fc3660046114e5565b6107b2565b34801561030d57600080fd5b506101e461031c36600461150e565b6107bf565b34801561032d57600080fd5b5061017a61033c366004611419565b6001600160a01b03918216600090815260346020908152604080832093909416825291909152205490565b34801561037357600080fd5b506101e46103823660046113ff565b610860565b60606036805461039690611844565b80601f01602080910402602001604051908101604052809291908181526020018280546103c290611844565b801561040f5780601f106103e45761010080835404028352916020019161040f565b820191906000526020600020905b8154815290600101906020018083116103f257829003601f168201915b5050505050905090565b60006104263384846108f8565b5060015b92915050565b600061043d848484610a1c565b6001600160a01b0384166000908152603460209081526040808320338452909152902054828110156104c75760405162461bcd60e51b815260206004820152602860248201527f45524332303a207472616e7366657220616d6f756e74206578636565647320616044820152676c6c6f77616e636560c01b60648201526084015b60405180910390fd5b6104d485338584036108f8565b60019150505b9392505050565b306001600160a01b037f000000000000000000000000000000000000000000000000000000000000000016141561052a5760405162461bcd60e51b81526004016104be906115d8565b7f00000000000000000000000000000000000000000000000000000000000000006001600160a01b031661055c610bec565b6001600160a01b0316146105825760405162461bcd60e51b81526004016104be90611624565b61058b81610c1a565b604080516000808252602082019092526105a791839190610c44565b50565b3360008181526034602090815260408083206001600160a01b038716845290915281205490916104269185906105e19086906116f3565b6108f8565b6065546001600160a01b031633146106105760405162461bcd60e51b81526004016104be906116be565b61061a8282610d88565b5050565b306001600160a01b037f00000000000000000000000000000000000000000000000000000000000000001614156106675760405162461bcd60e51b81526004016104be906115d8565b7f00000000000000000000000000000000000000000000000000000000000000006001600160a01b0316610699610bec565b6001600160a01b0316146106bf5760405162461bcd60e51b81526004016104be90611624565b6106c882610c1a565b61061a82826001610c44565b6065546001600160a01b031633146106fe5760405162461bcd60e51b81526004016104be906116be565b6107086000610e67565b565b60606037805461039690611844565b3360009081526034602090815260408083206001600160a01b03861684529091528120548281101561079b5760405162461bcd60e51b815260206004820152602560248201527f45524332303a2064656372656173656420616c6c6f77616e63652062656c6f77604482015264207a65726f60d81b60648201526084016104be565b6107a833858584036108f8565b5060019392505050565b6000610426338484610a1c565b600054610100900460ff16806107d8575060005460ff16155b6107f45760405162461bcd60e51b81526004016104be90611670565b600054610100900460ff16158015610816576000805461ffff19166101011790555b6108208585610eb9565b610828610f39565b610847826108386012600a61174e565b61084290866117f9565b610d88565b8015610859576000805461ff00191690555b5050505050565b6065546001600160a01b0316331461088a5760405162461bcd60e51b81526004016104be906116be565b6001600160a01b0381166108ef5760405162461bcd60e51b815260206004820152602660248201527f4f776e61626c653a206e6577206f776e657220697320746865207a65726f206160448201526564647265737360d01b60648201526084016104be565b6105a781610e67565b6001600160a01b03831661095a5760405162461bcd60e51b8152602060048201526024808201527f45524332303a20617070726f76652066726f6d20746865207a65726f206164646044820152637265737360e01b60648201526084016104be565b6001600160a01b0382166109bb5760405162461bcd60e51b815260206004820152602260248201527f45524332303a20617070726f766520746f20746865207a65726f206164647265604482015261737360f01b60648201526084016104be565b6001600160a01b0383811660008181526034602090815260408083209487168084529482529182902085905590518481527f8c5be1e5ebec7d5bd14f71427d1e84f3dd0314c0f7b2291e5b200ac8c7c3b925910160405180910390a3505050565b6001600160a01b038316610a805760405162461bcd60e51b815260206004820152602560248201527f45524332303a207472616e736665722066726f6d20746865207a65726f206164604482015264647265737360d81b60648201526084016104be565b6001600160a01b038216610ae25760405162461bcd60e51b815260206004820152602360248201527f45524332303a207472616e7366657220746f20746865207a65726f206164647260448201526265737360e81b60648201526084016104be565b6001600160a01b03831660009081526033602052604090205481811015610b5a5760405162461bcd60e51b815260206004820152602660248201527f45524332303a207472616e7366657220616d6f756e7420657863656564732062604482015265616c616e636560d01b60648201526084016104be565b6001600160a01b03808516600090815260336020526040808220858503905591851681529081208054849290610b919084906116f3565b92505081905550826001600160a01b0316846001600160a01b03167fddf252ad1be2c89b69c2b068fc378daa952ba7f163c4a11628f55a4df523b3ef84604051610bdd91815260200190565b60405180910390a35b50505050565b7f360894a13ba1a3210667c828492db98dca3e2076cc3735a920a3ca505d382bbc546001600160a01b031690565b6065546001600160a01b031633146105a75760405162461bcd60e51b81526004016104be906116be565b6000610c4e610bec565b9050610c5984610fad565b600083511180610c665750815b15610c7757610c758484611052565b505b7f4910fdfa16fed3260ed0e7147f7cc6da11a60208b5b9406d12a635614ffd9143805460ff1661085957805460ff191660011781556040516001600160a01b0383166024820152610cf690869060440160408051601f198184030181529190526020810180516001600160e01b0316631b2ce7f360e11b179052611052565b50805460ff19168155610d07610bec565b6001600160a01b0316826001600160a01b031614610d7f5760405162461bcd60e51b815260206004820152602f60248201527f45524331393637557067726164653a207570677261646520627265616b73206660448201526e75727468657220757067726164657360881b60648201526084016104be565b6108598561113d565b6001600160a01b038216610dde5760405162461bcd60e51b815260206004820152601f60248201527f45524332303a206d696e7420746f20746865207a65726f20616464726573730060448201526064016104be565b8060356000828254610df091906116f3565b90915550506001600160a01b03821660009081526033602052604081208054839290610e1d9084906116f3565b90915550506040518181526001600160a01b038316906000907fddf252ad1be2c89b69c2b068fc378daa952ba7f163c4a11628f55a4df523b3ef9060200160405180910390a35050565b606580546001600160a01b038381166001600160a01b0319831681179093556040519116919082907f8be0079c531659141344cd1fd0a4f28419497f9722a3daafe3b4186f6b6457e090600090a35050565b600054610100900460ff1680610ed2575060005460ff16155b610eee5760405162461bcd60e51b81526004016104be90611670565b600054610100900460ff16158015610f10576000805461ffff19166101011790555b610f1861117d565b610f2283836111e7565b8015610f34576000805461ff00191690555b505050565b600054610100900460ff1680610f52575060005460ff16155b610f6e5760405162461bcd60e51b81526004016104be90611670565b600054610100900460ff16158015610f90576000805461ffff19166101011790555b610f9933610e67565b80156105a7576000805461ff001916905550565b803b6110115760405162461bcd60e51b815260206004820152602d60248201527f455243313936373a206e657720696d706c656d656e746174696f6e206973206e60448201526c1bdd08184818dbdb9d1c9858dd609a1b60648201526084016104be565b7f360894a13ba1a3210667c828492db98dca3e2076cc3735a920a3ca505d382bbc80546001600160a01b0319166001600160a01b0392909216919091179055565b6060823b6110b15760405162461bcd60e51b815260206004820152602660248201527f416464726573733a2064656c65676174652063616c6c20746f206e6f6e2d636f6044820152651b9d1c9858dd60d21b60648201526084016104be565b600080846001600160a01b0316846040516110cc9190611589565b600060405180830381855af49150503d8060008114611107576040519150601f19603f3d011682016040523d82523d6000602084013e61110c565b606091505b509150915061113482826040518060600160405280602781526020016118ac6027913961127c565b95945050505050565b61114681610fad565b6040516001600160a01b038216907fbc7cd75a20ee27fd9adebab32041f755214dbc6bffa90cc0225b39da2e5c2d3b90600090a250565b600054610100900460ff1680611196575060005460ff16155b6111b25760405162461bcd60e51b81526004016104be90611670565b600054610100900460ff16158015610f99576000805461ffff191661010117905580156105a7576000805461ff001916905550565b600054610100900460ff1680611200575060005460ff16155b61121c5760405162461bcd60e51b81526004016104be90611670565b600054610100900460ff1615801561123e576000805461ffff19166101011790555b82516112519060369060208601906112b5565b5081516112659060379060208501906112b5565b508015610f34576000805461ff0019169055505050565b6060831561128b5750816104da565b82511561129b5782518084602001fd5b8160405162461bcd60e51b81526004016104be91906115a5565b8280546112c190611844565b90600052602060002090601f0160209004810192826112e35760008555611329565b82601f106112fc57805160ff1916838001178555611329565b82800160010185558215611329579182015b8281111561132957825182559160200191906001019061130e565b50611335929150611339565b5090565b5b80821115611335576000815560010161133a565b600067ffffffffffffffff8084111561136957611369611895565b604051601f8501601f19908116603f0116810190828211818310171561139157611391611895565b816040528093508581528686860111156113aa57600080fd5b858560208301376000602087830101525050509392505050565b80356001600160a01b03811681146113db57600080fd5b919050565b600082601f8301126113f0578081fd5b6104da8383356020850161134e565b600060208284031215611410578081fd5b6104da826113c4565b6000806040838503121561142b578081fd5b611434836113c4565b9150611442602084016113c4565b90509250929050565b60008060006060848603121561145f578081fd5b611468846113c4565b9250611476602085016113c4565b9150604084013590509250925092565b60008060408385031215611498578182fd5b6114a1836113c4565b9150602083013567ffffffffffffffff8111156114bc578182fd5b8301601f810185136114cc578182fd5b6114db8582356020840161134e565b9150509250929050565b600080604083850312156114f7578182fd5b611500836113c4565b946020939093013593505050565b60008060008060808587031215611523578081fd5b843567ffffffffffffffff8082111561153a578283fd5b611546888389016113e0565b9550602087013591508082111561155b578283fd5b50611568878288016113e0565b9350506040850135915061157e606086016113c4565b905092959194509250565b6000825161159b818460208701611818565b9190910192915050565b60208152600082518060208401526115c4816040850160208701611818565b601f01601f19169190910160400192915050565b6020808252602c908201527f46756e6374696f6e206d7573742062652063616c6c6564207468726f7567682060408201526b19195b1959d85d1958d85b1b60a21b606082015260800190565b6020808252602c908201527f46756e6374696f6e206d7573742062652063616c6c6564207468726f7567682060408201526b6163746976652070726f787960a01b606082015260800190565b6020808252602e908201527f496e697469616c697a61626c653a20636f6e747261637420697320616c72656160408201526d191e481a5b9a5d1a585b1a5e995960921b606082015260800190565b6020808252818101527f4f776e61626c653a2063616c6c6572206973206e6f7420746865206f776e6572604082015260600190565b600082198211156117065761170661187f565b500190565b600181815b8085111561174657816000190482111561172c5761172c61187f565b8085161561173957918102915b93841c9390800290611710565b509250929050565b60006104da60ff8416836000826117675750600161042a565b816117745750600061042a565b816001811461178a5760028114611794576117b0565b600191505061042a565b60ff8411156117a5576117a561187f565b50506001821b61042a565b5060208310610133831016604e8410600b84101617156117d3575081810a61042a565b6117dd838361170b565b80600019048211156117f1576117f161187f565b029392505050565b60008160001904831182151516156118135761181361187f565b500290565b60005b8381101561183357818101518382015260200161181b565b83811115610be65750506000910152565b600181811c9082168061185857607f821691505b6020821081141561187957634e487b7160e01b600052602260045260246000fd5b50919050565b634e487b7160e01b600052601160045260246000fd5b634e487b7160e01b600052604160045260246000fdfe416464726573733a206c6f772d6c6576656c2064656c65676174652063616c6c206661696c6564a2646970667358221220a4d4c08a632906d4cae7629edaa73d8c30e3cc8576c3e0f57d8e2405d2e18edf64736f6c63430008040033416464726573733a206c6f772d6c6576656c2064656c65676174652063616c6c206661696c6564a264697066735822122052e93afb1a653d1314ed1004efd9ad48ac54ef9257ad326202b87c554661b5d664736f6c63430008040033608060405234801561001057600080fd5b50610531806100206000396000f3fe608060405234801561001057600080fd5b50600436106100625760003560e01c806341f654f71461006757806357771a2314610085578063711e32151461009a578063e68c24ae146100ca578063ed2e5a97146100dd578063f01fe69214610108575b600080fd5b61006f6101ab565b60405161007c91906104a3565b60405180910390f35b610098610093366004610451565b610220565b005b6100ad6100a8366004610451565b6102a5565b604080519283526001600160a01b0390911660208301520161007c565b6100986100d8366004610469565b6102dc565b6100f06100eb366004610451565b610375565b6040516001600160a01b03909116815260200161007c565b610098610116366004610469565b604080518082019091529182526001600160a01b03908116602083019081526000805460018101825590805292517f290decd9548b62a8d60345a988386fc84ba6bc95484008f6362f93160ef3e563600290940293840155517f290decd9548b62a8d60345a988386fc84ba6bc95484008f6362f93160ef3e56490920180546001600160a01b03191692909116919091179055565b60606000805480602002602001604051908101604052809291908181526020016000905b828210156102175760008481526020908190206040805180820190915260028502909101805482526001908101546001600160a01b03168284015290835290920191016101cf565b50505050905090565b806000828154811061024257634e487b7160e01b600052603260045260246000fd5b9060005260206000209060020201600001541461025e57600080fd5b6000818154811061027f57634e487b7160e01b600052603260045260246000fd5b60009182526020822060029091020190815560010180546001600160a01b031916905550565b600081815481106102b557600080fd5b6000918252602090912060029091020180546001909101549091506001600160a01b031682565b81600083815481106102fe57634e487b7160e01b600052603260045260246000fd5b9060005260206000209060020201600001541461031a57600080fd5b806000838154811061033c57634e487b7160e01b600052603260045260246000fd5b906000526020600020906002020160010160006101000a8154816001600160a01b0302191690836001600160a01b031602179055505050565b6000816000838154811061039957634e487b7160e01b600052603260045260246000fd5b9060005260206000209060020201600001541461040d5760405162461bcd60e51b815260206004820152602860248201527f546865207661756c742077697468207468697320696e64657820646f6573206e6044820152671bdd08195e1a5cdd60c21b606482015260840160405180910390fd5b6000828154811061042e57634e487b7160e01b600052603260045260246000fd5b60009182526020909120600160029092020101546001600160a01b031692915050565b600060208284031215610462578081fd5b5035919050565b6000806040838503121561047b578081fd5b8235915060208301356001600160a01b0381168114610498578182fd5b809150509250929050565b602080825282518282018190526000919060409081850190868401855b828110156104ee578151805185528601516001600160a01b03168685015292840192908501906001016104c0565b509197965050505050505056fea2646970667358221220d5934fc7af5377ec900f4f9896b42db13fc55c7fc0ff5c26f3f4e6edaf8a7dd064736f6c63430008040033416464726573733a206c6f772d6c6576656c2064656c65676174652063616c6c206661696c6564a26469706673582212201bc71dbb55219cdcc18ac12541e93e6e154ddeae2e499c44fe597e8f169f3e6f64736f6c63430008040033",
  "linkReferences": {},
  "deployedLinkReferences": {}
}