{
  "_format": "hh-sol-artifact-1",
  "contractName": "Factory",
  "sourceName": "contracts/Factory.sol",
  "abi": [
    {
      "anonymous": false,
      "inputs": [
        {
          "indexed": false,
          "internalType": "address",
          "name": "previousAdmin",
          "type": "address"
        },
        {
          "indexed": false,
          "internalType": "address",
          "name": "newAdmin",
          "type": "address"
        }
      ],
      "name": "AdminChanged",
      "type": "event"
    },
    {
      "anonymous": false,
      "inputs": [
        {
          "indexed": true,
          "internalType": "address",
          "name": "beacon",
          "type": "address"
        }
      ],
      "name": "BeaconUpgraded",
      "type": "event"
    },
    {
      "anonymous": false,
      "inputs": [
        {
          "indexed": false,
          "internalType": "uint256",
          "name": "vaultId",
          "type": "uint256"
        },
        {
          "indexed": false,
          "internalType": "address",
          "name": "sender",
          "type": "address"
        },
        {
          "indexed": false,
          "internalType": "uint256",
          "name": "deposit",
          "type": "uint256"
        }
      ],
      "name": "NewDeposit",
      "type": "event"
    },
    {
      "anonymous": false,
      "inputs": [
        {
          "indexed": false,
          "internalType": "string",
          "name": "name",
          "type": "string"
        },
        {
          "indexed": true,
          "internalType": "address",
          "name": "vault",
          "type": "address"
        }
      ],
      "name": "NewVault",
      "type": "event"
    },
    {
      "anonymous": false,
      "inputs": [
        {
          "indexed": true,
          "internalType": "address",
          "name": "previousOwner",
          "type": "address"
        },
        {
          "indexed": true,
          "internalType": "address",
          "name": "newOwner",
          "type": "address"
        }
      ],
      "name": "OwnershipTransferred",
      "type": "event"
    },
    {
      "anonymous": false,
      "inputs": [
        {
          "indexed": true,
          "internalType": "address",
          "name": "implementation",
          "type": "address"
        }
      ],
      "name": "Upgraded",
      "type": "event"
    },
    {
      "inputs": [
        {
          "internalType": "uint256",
          "name": "_id",
          "type": "uint256"
        }
      ],
      "name": "delVault",
      "outputs": [],
      "stateMutability": "nonpayable",
      "type": "function"
    },
    {
      "inputs": [
        {
          "internalType": "address",
          "name": "_vaultAddress",
          "type": "address"
        }
      ],
      "name": "delegateToCeramic",
      "outputs": [
        {
          "internalType": "string",
          "name": "",
          "type": "string"
        }
      ],
      "stateMutability": "view",
      "type": "function"
    },
    {
      "inputs": [
        {
          "internalType": "address",
          "name": "_vaultAddr",
          "type": "address"
        }
      ],
      "name": "distributeVaultTokens",
      "outputs": [],
      "stateMutability": "nonpayable",
      "type": "function"
    },
    {
      "inputs": [],
      "name": "getAllVaults",
      "outputs": [
        {
          "components": [
            {
              "internalType": "uint256",
              "name": "id",
              "type": "uint256"
            },
            {
              "internalType": "address",
              "name": "addr",
              "type": "address"
            }
          ],
          "internalType": "struct CRUD.Instance[]",
          "name": "",
          "type": "tuple[]"
        }
      ],
      "stateMutability": "view",
      "type": "function"
    },
    {
      "inputs": [
        {
          "internalType": "uint256",
          "name": "_id",
          "type": "uint256"
        }
      ],
      "name": "getVaultAddress",
      "outputs": [
        {
          "internalType": "address",
          "name": "",
          "type": "address"
        }
      ],
      "stateMutability": "view",
      "type": "function"
    },
    {
      "inputs": [
        {
          "internalType": "address",
          "name": "_initiator",
          "type": "address"
        }
      ],
      "name": "initialize",
      "outputs": [],
      "stateMutability": "nonpayable",
      "type": "function"
    },
    {
      "inputs": [],
      "name": "initiator",
      "outputs": [
        {
          "internalType": "address",
          "name": "",
          "type": "address"
        }
      ],
      "stateMutability": "view",
      "type": "function"
    },
    {
      "inputs": [
        {
          "internalType": "string",
          "name": "_vaultName",
          "type": "string"
        },
        {
          "internalType": "string",
          "name": "_ticker",
          "type": "string"
        },
        {
          "internalType": "uint256",
          "name": "_shares_amount",
          "type": "uint256"
        }
      ],
      "name": "newVault",
      "outputs": [
        {
          "internalType": "address",
          "name": "",
          "type": "address"
        }
      ],
      "stateMutability": "payable",
      "type": "function"
    },
    {
      "inputs": [],
      "name": "owner",
      "outputs": [
        {
          "internalType": "address",
          "name": "",
          "type": "address"
        }
      ],
      "stateMutability": "view",
      "type": "function"
    },
    {
      "inputs": [],
      "name": "renounceOwnership",
      "outputs": [],
      "stateMutability": "nonpayable",
      "type": "function"
    },
    {
      "inputs": [
        {
          "internalType": "address",
          "name": "_new_initiator",
          "type": "address"
        }
      ],
      "name": "setInitiator",
      "outputs": [],
      "stateMutability": "nonpayable",
      "type": "function"
    },
    {
      "inputs": [
        {
          "internalType": "address",
          "name": "_vaultAddr",
          "type": "address"
        },
        {
          "internalType": "address",
          "name": "_initiator",
          "type": "address"
        }
      ],
      "name": "setupVault",
      "outputs": [],
      "stateMutability": "nonpayable",
      "type": "function"
    },
    {
      "inputs": [
        {
          "internalType": "address",
          "name": "newOwner",
          "type": "address"
        }
      ],
      "name": "transferOwnership",
      "outputs": [],
      "stateMutability": "nonpayable",
      "type": "function"
    },
    {
      "inputs": [
        {
          "internalType": "address",
          "name": "newImplementation",
          "type": "address"
        }
      ],
      "name": "upgradeTo",
      "outputs": [],
      "stateMutability": "nonpayable",
      "type": "function"
    },
    {
      "inputs": [
        {
          "internalType": "address",
          "name": "newImplementation",
          "type": "address"
        },
        {
          "internalType": "bytes",
          "name": "data",
          "type": "bytes"
        }
      ],
      "name": "upgradeToAndCall",
      "outputs": [],
      "stateMutability": "payable",
      "type": "function"
    }
  ],
  "bytecode": "0x60a06040523060601b60805234801561001757600080fd5b5060805160601c6152d061004b600039600081816105f40152818161063d015281816106c6015261070601526152d06000f3fe6080604052600436106100e85760003560e01c80638da5cb5b1161008a578063d59dfd6111610059578063d59dfd6114610258578063e6bd26a214610278578063f2fde38b14610298578063f72663c2146102b857600080fd5b80638da5cb5b146101d857806397331bf9146101f6578063c4d66de814610218578063c6fb3ecc1461023857600080fd5b80633659cfe6116100c65780633659cfe6146101705780634f1ef286146101905780635c39fcc1146101a3578063715018a6146101c357600080fd5b80631fb1f96d146100ed578063302aa11e14610123578063354e214514610145575b600080fd5b3480156100f957600080fd5b5061010d6101083660046110f2565b6102d8565b60405161011a91906113b8565b60405180910390f35b34801561012f57600080fd5b5061014361013e366004611300565b610384565b005b610158610153366004611296565b6103fc565b6040516001600160a01b03909116815260200161011a565b34801561017c57600080fd5b5061014361018b3660046110f2565b6105e9565b61014361019e366004611162565b6106bb565b3480156101af57600080fd5b5060c954610158906001600160a01b031681565b3480156101cf57600080fd5b50610143610775565b3480156101e457600080fd5b506097546001600160a01b0316610158565b34801561020257600080fd5b5061020b6107ab565b60405161011a9190611360565b34801561022457600080fd5b506101436102333660046110f2565b610831565b34801561024457600080fd5b506101436102533660046110f2565b610909565b34801561026457600080fd5b506101436102733660046110f2565b61098f565b34801561028457600080fd5b50610158610293366004611300565b6109e8565b3480156102a457600080fd5b506101436102b33660046110f2565b610a6b565b3480156102c457600080fd5b506101436102d336600461112a565b610b03565b6001600160a01b038116600090815260cc602052604090208054606091906102ff906115d0565b80601f016020809104026020016040519081016040528092919081815260200182805461032b906115d0565b80156103785780601f1061034d57610100808354040283529160200191610378565b820191906000526020600020905b81548152906001019060200180831161035b57829003601f168201915b50505050509050919050565b60c9546001600160a01b0316331461039b57600080fd5b60cb546040516357771a2360e01b8152600481018390526001600160a01b03909116906357771a2390602401600060405180830381600087803b1580156103e157600080fd5b505af11580156103f5573d6000803e3d6000fd5b5050505050565b60008060405161040b90611061565b604051809103906000f080158015610427573d6000803e3d6000fd5b5060405163588ca48760e11b81529091506001600160a01b0382169063b119490e9061045b908890889088906004016113f5565b600060405180830381600087803b15801561047557600080fd5b505af1158015610489573d6000803e3d6000fd5b5050604051635aac895b60e01b81523360048201528392506001600160a01b0383169150635aac895b9034906024016000604051808303818588803b1580156104d157600080fd5b505af11580156104e5573d6000803e3d6000fd5b505050505061051d604051806040016040528060118152602001702b30bab63a1031b932b0ba32b21030ba1d60791b81525082610b90565b60cb5460ca5460405163780ff34960e11b815260048101919091526001600160a01b0383811660248301529091169063f01fe69290604401600060405180830381600087803b15801561056f57600080fd5b505af1158015610583573d6000803e3d6000fd5b50505050806001600160a01b03167fbc74e7d50ea3ee16733ddc67491c62e4cbea020296f5cc6e5219fdf80d357faf876040516105c091906113b8565b60405180910390a260ca80549060006105d88361160b565b9091555090925050505b9392505050565b306001600160a01b037f000000000000000000000000000000000000000000000000000000000000000016141561063b5760405162461bcd60e51b81526004016106329061142b565b60405180910390fd5b7f00000000000000000000000000000000000000000000000000000000000000006001600160a01b031661066d610bd5565b6001600160a01b0316146106935760405162461bcd60e51b815260040161063290611477565b61069c81610c03565b604080516000808252602082019092526106b891839190610c2d565b50565b306001600160a01b037f00000000000000000000000000000000000000000000000000000000000000001614156107045760405162461bcd60e51b81526004016106329061142b565b7f00000000000000000000000000000000000000000000000000000000000000006001600160a01b0316610736610bd5565b6001600160a01b03161461075c5760405162461bcd60e51b815260040161063290611477565b61076582610c03565b61077182826001610c2d565b5050565b6097546001600160a01b0316331461079f5760405162461bcd60e51b815260040161063290611511565b6107a96000610d71565b565b60cb54604080516341f654f760e01b815290516060926001600160a01b0316916341f654f7916004808301926000929190829003018186803b1580156107f057600080fd5b505afa158015610804573d6000803e3d6000fd5b505050506040513d6000823e601f3d908101601f1916820160405261082c91908101906111c3565b905090565b600054610100900460ff168061084a575060005460ff16155b6108665760405162461bcd60e51b8152600401610632906114c3565b600054610100900460ff16158015610888576000805461ffff19166101011790555b610890610dc3565b60c980546001600160a01b0319166001600160a01b0384161790556040516108b79061106e565b604051809103906000f0801580156108d3573d6000803e3d6000fd5b5060cb80546001600160a01b0319166001600160a01b03929092169190911790558015610771576000805461ff00191690555050565b6097546001600160a01b031633146109335760405162461bcd60e51b815260040161063290611511565b6000819050806001600160a01b0316639ab1b4846040518163ffffffff1660e01b8152600401600060405180830381600087803b15801561097357600080fd5b505af1158015610987573d6000803e3d6000fd5b505050505050565b6097546001600160a01b031633146109b95760405162461bcd60e51b815260040161063290611511565b6001600160a01b038116156106b85760c980546001600160a01b0383166001600160a01b031990911617905550565b60cb5460405163ed2e5a9760e01b8152600481018390526000916001600160a01b03169063ed2e5a979060240160206040518083038186803b158015610a2d57600080fd5b505afa158015610a41573d6000803e3d6000fd5b505050506040513d601f19601f82011682018060405250810190610a65919061110e565b92915050565b6097546001600160a01b03163314610a955760405162461bcd60e51b815260040161063290611511565b6001600160a01b038116610afa5760405162461bcd60e51b815260206004820152602660248201527f4f776e61626c653a206e6577206f776e657220697320746865207a65726f206160448201526564647265737360d01b6064820152608401610632565b6106b881610d71565b6097546001600160a01b03163314610b2d5760405162461bcd60e51b815260040161063290611511565b60405163d59dfd6160e01b81526001600160a01b03828116600483015283919082169063d59dfd6190602401600060405180830381600087803b158015610b7357600080fd5b505af1158015610b87573d6000803e3d6000fd5b50505050505050565b6107718282604051602401610ba69291906113cb565b60408051601f198184030181529190526020810180516001600160e01b031663319af33360e01b179052610e37565b7f360894a13ba1a3210667c828492db98dca3e2076cc3735a920a3ca505d382bbc546001600160a01b031690565b6097546001600160a01b031633146106b85760405162461bcd60e51b815260040161063290611511565b6000610c37610bd5565b9050610c4284610e58565b600083511180610c4f5750815b15610c6057610c5e8484610efd565b505b7f4910fdfa16fed3260ed0e7147f7cc6da11a60208b5b9406d12a635614ffd9143805460ff166103f557805460ff191660011781556040516001600160a01b0383166024820152610cdf90869060440160408051601f198184030181529190526020810180516001600160e01b0316631b2ce7f360e11b179052610efd565b50805460ff19168155610cf0610bd5565b6001600160a01b0316826001600160a01b031614610d685760405162461bcd60e51b815260206004820152602f60248201527f45524331393637557067726164653a207570677261646520627265616b73206660448201526e75727468657220757067726164657360881b6064820152608401610632565b6103f585610fe8565b609780546001600160a01b038381166001600160a01b0319831681179093556040519116919082907f8be0079c531659141344cd1fd0a4f28419497f9722a3daafe3b4186f6b6457e090600090a35050565b600054610100900460ff1680610ddc575060005460ff16155b610df85760405162461bcd60e51b8152600401610632906114c3565b600054610100900460ff16158015610e1a576000805461ffff19166101011790555b610e2333610d71565b80156106b8576000805461ff001916905550565b80516a636f6e736f6c652e6c6f67602083016000808483855afa5050505050565b803b610ebc5760405162461bcd60e51b815260206004820152602d60248201527f455243313936373a206e657720696d706c656d656e746174696f6e206973206e60448201526c1bdd08184818dbdb9d1c9858dd609a1b6064820152608401610632565b7f360894a13ba1a3210667c828492db98dca3e2076cc3735a920a3ca505d382bbc80546001600160a01b0319166001600160a01b0392909216919091179055565b6060823b610f5c5760405162461bcd60e51b815260206004820152602660248201527f416464726573733a2064656c65676174652063616c6c20746f206e6f6e2d636f6044820152651b9d1c9858dd60d21b6064820152608401610632565b600080846001600160a01b031684604051610f779190611344565b600060405180830381855af49150503d8060008114610fb2576040519150601f19603f3d011682016040523d82523d6000602084013e610fb7565b606091505b5091509150610fdf828260405180606001604052806027815260200161527460279139611028565b95945050505050565b610ff181610e58565b6040516001600160a01b038216907fbc7cd75a20ee27fd9adebab32041f755214dbc6bffa90cc0225b39da2e5c2d3b90600090a250565b606083156110375750816105e2565b8251156110475782518084602001fd5b8160405162461bcd60e51b815260040161063291906113b8565b61371d8061165e83390190565b6104f980614d7b83390190565b600067ffffffffffffffff83111561109557611095611632565b6110a8601f8401601f191660200161156f565b90508281528383830111156110bc57600080fd5b828260208301376000602084830101529392505050565b600082601f8301126110e3578081fd5b6105e28383356020850161107b565b600060208284031215611103578081fd5b81356105e281611648565b60006020828403121561111f578081fd5b81516105e281611648565b6000806040838503121561113c578081fd5b823561114781611648565b9150602083013561115781611648565b809150509250929050565b60008060408385031215611174578182fd5b823561117f81611648565b9150602083013567ffffffffffffffff81111561119a578182fd5b8301601f810185136111aa578182fd5b6111b98582356020840161107b565b9150509250929050565b600060208083850312156111d5578182fd5b825167ffffffffffffffff808211156111ec578384fd5b818501915085601f8301126111ff578384fd5b81518181111561121157611211611632565b61121f848260051b0161156f565b8181528481019250838501600683901b8501860189101561123e578687fd5b8694505b8285101561128a57604080828b03121561125a578788fd5b611262611546565b825181528783015161127381611648565b818901528552600195909501949386019301611242565b50979650505050505050565b6000806000606084860312156112aa578081fd5b833567ffffffffffffffff808211156112c1578283fd5b6112cd878388016110d3565b945060208601359150808211156112e2578283fd5b506112ef868287016110d3565b925050604084013590509250925092565b600060208284031215611311578081fd5b5035919050565b600081518084526113308160208601602086016115a0565b601f01601f19169290920160200192915050565b600082516113568184602087016115a0565b9190910192915050565b602080825282518282018190526000919060409081850190868401855b828110156113ab578151805185528601516001600160a01b031686850152928401929085019060010161137d565b5091979650505050505050565b6020815260006105e26020830184611318565b6040815260006113de6040830185611318565b905060018060a01b03831660208301529392505050565b6060815260006114086060830186611318565b828103602084015261141a8186611318565b915050826040830152949350505050565b6020808252602c908201527f46756e6374696f6e206d7573742062652063616c6c6564207468726f7567682060408201526b19195b1959d85d1958d85b1b60a21b606082015260800190565b6020808252602c908201527f46756e6374696f6e206d7573742062652063616c6c6564207468726f7567682060408201526b6163746976652070726f787960a01b606082015260800190565b6020808252602e908201527f496e697469616c697a61626c653a20636f6e747261637420697320616c72656160408201526d191e481a5b9a5d1a585b1a5e995960921b606082015260800190565b6020808252818101527f4f776e61626c653a2063616c6c6572206973206e6f7420746865206f776e6572604082015260600190565b6040805190810167ffffffffffffffff8111828210171561156957611569611632565b60405290565b604051601f8201601f1916810167ffffffffffffffff8111828210171561159857611598611632565b604052919050565b60005b838110156115bb5781810151838201526020016115a3565b838111156115ca576000848401525b50505050565b600181811c908216806115e457607f821691505b6020821081141561160557634e487b7160e01b600052602260045260246000fd5b50919050565b600060001982141561162b57634e487b7160e01b81526011600452602481fd5b5060010190565b634e487b7160e01b600052604160045260246000fd5b6001600160a01b03811681146106b857600080fdfe60a06040523060601b60805260cf805460ff1916905534801561002157600080fd5b5060805160601c6136c8610055600039600081816104f601528181610536015281816105bf01526105ff01526136c86000f3fe6080604052600436106101405760003560e01c806385a383d0116100b6578063c040e6b81161006f578063c040e6b814610347578063c084b10b1461036e578063d59dfd61146103a4578063dd701b3a146103c4578063ddd5e1b2146103d9578063f2fde38b146103f957600080fd5b806385a383d014610292578063862b092b146102b25780638da5cb5b146102d45780639ab1b484146102f2578063a7d545db14610307578063b119490e1461032757600080fd5b80634f1ef286116101085780634f1ef286146101f7578063521ad8291461020a5780635aac895b1461022a5780635c39fcc11461023d578063715018a61461025d5780637a7664601461027257600080fd5b80630508c8cb1461014557806310fe9ae81461015c57806312065fe0146101985780631d9a4bf2146101b55780633659cfe6146101d7575b600080fd5b34801561015157600080fd5b5061015a610419565b005b34801561016857600080fd5b5060cf5461010090046001600160a01b03165b6040516001600160a01b0390911681526020015b60405180910390f35b3480156101a457600080fd5b50475b60405190815260200161018f565b3480156101c157600080fd5b506101ca61043f565b60405161018f91906119d4565b3480156101e357600080fd5b5061015a6101f23660046117a1565b6104eb565b61015a6102053660046117bb565b6105b4565b34801561021657600080fd5b5061015a610225366004611926565b61066e565b61015a6102383660046117a1565b6106e3565b34801561024957600080fd5b5060c95461017b906001600160a01b031681565b34801561026957600080fd5b5061015a610793565b34801561027e57600080fd5b506101a761028d3660046117a1565b6107c9565b34801561029e57600080fd5b5061015a6102ad3660046117a1565b61082f565b3480156102be57600080fd5b506102c7610929565b60405161018f9190611a49565b3480156102e057600080fd5b506033546001600160a01b031661017b565b3480156102fe57600080fd5b5061015a6109fe565b34801561031357600080fd5b5061015a610322366004611951565b610c8d565b34801561033357600080fd5b5061015a6103423660046118a4565b610eae565b34801561035357600080fd5b5060cf546103619060ff1681565b60405161018f9190611a21565b34801561037a57600080fd5b506101a76103893660046117a1565b6001600160a01b0316600090815260cb602052604090205490565b3480156103b057600080fd5b5061015a6103bf3660046117a1565b610ff1565b3480156103d057600080fd5b506102c761104a565b3480156103e557600080fd5b5061015a6103f4366004611926565b6110de565b34801561040557600080fd5b5061015a6104143660046117a1565b61120f565b60c9546001600160a01b0316331461043057600080fd5b60cf805460ff19166001179055565b6060600160cf5460ff16600181111561046857634e487b7160e01b600052602160045260246000fd5b1461048e5760405162461bcd60e51b815260040161048590611bbe565b60405180910390fd5b60ce8054604080516020808402820181019092528281529291908301828280156104e157602002820191906000526020600020905b81546001600160a01b031681526001909101906020018083116104c3575b5050505050905090565b306001600160a01b037f00000000000000000000000000000000000000000000000000000000000000001614156105345760405162461bcd60e51b815260040161048590611aa3565b7f00000000000000000000000000000000000000000000000000000000000000006001600160a01b03166105666112a7565b6001600160a01b03161461058c5760405162461bcd60e51b815260040161048590611aef565b610595816112d5565b604080516000808252602082019092526105b1918391906112ff565b50565b306001600160a01b037f00000000000000000000000000000000000000000000000000000000000000001614156105fd5760405162461bcd60e51b815260040161048590611aa3565b7f00000000000000000000000000000000000000000000000000000000000000006001600160a01b031661062f6112a7565b6001600160a01b0316146106555760405162461bcd60e51b815260040161048590611aef565b61065e826112d5565b61066a828260016112ff565b5050565b600160cf5460ff16600181111561069557634e487b7160e01b600052602160045260246000fd5b146106b25760405162461bcd60e51b815260040161048590611bbe565b6001600160a01b038116600090815260cc6020526040812080548492906106da908490611c4e565b90915550505050565b6001600160a01b038116600090815260cb602052604090205461074c5760ca80546001810182556000919091527f42d72674974f694b5f5159593243114d38a5c39c89d6b62fee061ff523240ee10180546001600160a01b0319166001600160a01b0383161790555b3460d0600082825461075e9190611c4e565b90915550506001600160a01b038116600090815260cb60205260408120805434929061078b908490611c4e565b909155505050565b6033546001600160a01b031633146107bd5760405162461bcd60e51b815260040161048590611b89565b6107c7600061144a565b565b6000600160cf5460ff1660018111156107f257634e487b7160e01b600052602160045260246000fd5b1461080f5760405162461bcd60e51b815260040161048590611bbe565b506001600160a01b038116600090815260cc60205260409020545b919050565b6033546001600160a01b031633146108595760405162461bcd60e51b815260040161048590611b89565b6001600160a01b038116600090815260cd602052604090205460ff16156108c25760405162461bcd60e51b815260206004820152601c60248201527f5468697320617373657420697320616c7265616479206c6f636b6564000000006044820152606401610485565b60ce805460018181019092557fd36cd1c74ef8d7326d8021b776c18fb5a5724b7f7bc93c2f42e43e10ef27d12a0180546001600160a01b039093166001600160a01b031990931683179055600091825260cd6020526040909120805460ff19169091179055565b6060600160cf5460ff16600181111561095257634e487b7160e01b600052602160045260246000fd5b1461096f5760405162461bcd60e51b815260040161048590611bbe565b60cf60019054906101000a90046001600160a01b03166001600160a01b03166306fdde036040518163ffffffff1660e01b815260040160006040518083038186803b1580156109bd57600080fd5b505afa1580156109d1573d6000803e3d6000fd5b505050506040513d6000823e601f3d908101601f191682016040526109f9919081019061183a565b905090565b600160cf5460ff166001811115610a2557634e487b7160e01b600052602160045260246000fd5b14610a425760405162461bcd60e51b815260040161048590611bbe565b6033546001600160a01b03163314610a6c5760405162461bcd60e51b815260040161048590611b89565b600060d05460cf60019054906101000a90046001600160a01b03166001600160a01b03166318160ddd6040518163ffffffff1660e01b815260040160206040518083038186803b158015610abf57600080fd5b505afa158015610ad3573d6000803e3d6000fd5b505050506040513d601f19601f82011682018060405250810190610af7919061190e565b610b019190611c66565b60cf54604080516318160ddd60e01b815290519293506101009091046001600160a01b03169163095ea7b391309184916318160ddd916004808301926020929190829003018186803b158015610b5657600080fd5b505afa158015610b6a573d6000803e3d6000fd5b505050506040513d601f19601f82011682018060405250810190610b8e919061190e565b6040516001600160e01b031960e085901b1681526001600160a01b0390921660048301526024820152604401602060405180830381600087803b158015610bd457600080fd5b505af1158015610be8573d6000803e3d6000fd5b505050506040513d601f19601f82011682018060405250810190610c0c919061181a565b5060005b60ca5481101561066a57600060ca8281548110610c3d57634e487b7160e01b600052603260045260246000fd5b60009182526020808320909101546001600160a01b031680835260cb909152604090912054909150610c7a90610c74908590611c86565b8261066e565b5080610c8581611cd1565b915050610c10565b600160cf5460ff166001811115610cb457634e487b7160e01b600052602160045260246000fd5b14610cd15760405162461bcd60e51b815260040161048590611bbe565b60cf54604051636eb1769f60e11b81526001600160a01b03838116600483015230602483015285926101009004169063dd62ed3e9060440160206040518083038186803b158015610d2157600080fd5b505afa158015610d35573d6000803e3d6000fd5b505050506040513d601f19601f82011682018060405250810190610d59919061190e565b1015610de95760cf5460405163095ea7b360e01b8152306004820152602481018590526101009091046001600160a01b03169063095ea7b390604401602060405180830381600087803b158015610daf57600080fd5b505af1158015610dc3573d6000803e3d6000fd5b505050506040513d601f19601f82011682018060405250810190610de7919061181a565b505b60cf546040516323b872dd60e01b81526001600160a01b03838116600483015230602483015260448201869052610100909204909116906323b872dd90606401602060405180830381600087803b158015610e4357600080fd5b505af1158015610e57573d6000803e3d6000fd5b505050506040513d601f19601f82011682018060405250810190610e7b919061181a565b506001600160a01b038216600090815260cc602052604081208054859290610ea4908490611c4e565b9091555050505050565b600054610100900460ff1680610ec7575060005460ff16155b610ee35760405162461bcd60e51b815260040161048590611b3b565b600054610100900460ff16158015610f05576000805461ffff19166101011790555b610f0d61149c565b604051610f1990611720565b604051809103906000f080158015610f35573d6000803e3d6000fd5b5060cf8054610100600160a81b0319166101006001600160a01b0393841681029190911791829055604051635e9d09fb60e11b815291049091169063bd3a13f690610f8a908790879087903090600401611a5c565b600060405180830381600087803b158015610fa457600080fd5b505af1158015610fb8573d6000803e3d6000fd5b505060cf5461010090046001600160a01b03169150610fd890508161082f565b508015610feb576000805461ff00191690555b50505050565b6033546001600160a01b0316331461101b5760405162461bcd60e51b815260040161048590611b89565b6001600160a01b038116156105b15760c980546001600160a01b0383166001600160a01b031990911617905550565b6060600160cf5460ff16600181111561107357634e487b7160e01b600052602160045260246000fd5b146110905760405162461bcd60e51b815260040161048590611bbe565b60cf60019054906101000a90046001600160a01b03166001600160a01b03166395d89b416040518163ffffffff1660e01b815260040160006040518083038186803b1580156109bd57600080fd5b600160cf5460ff16600181111561110557634e487b7160e01b600052602160045260246000fd5b146111225760405162461bcd60e51b815260040161048590611bbe565b6001600160a01b038116600090815260cc6020526040902054828110156111d05760cf5460405163a9059cbb60e01b81526001600160a01b038481166004830152602482018490526101009092049091169063a9059cbb906044015b602060405180830381600087803b15801561119857600080fd5b505af11580156111ac573d6000803e3d6000fd5b505050506040513d601f19601f82011682018060405250810190610feb919061181a565b60cf5460405163a9059cbb60e01b81526001600160a01b038481166004830152602482018690526101009092049091169063a9059cbb9060440161117e565b6033546001600160a01b031633146112395760405162461bcd60e51b815260040161048590611b89565b6001600160a01b03811661129e5760405162461bcd60e51b815260206004820152602660248201527f4f776e61626c653a206e6577206f776e657220697320746865207a65726f206160448201526564647265737360d01b6064820152608401610485565b6105b18161144a565b7f360894a13ba1a3210667c828492db98dca3e2076cc3735a920a3ca505d382bbc546001600160a01b031690565b6033546001600160a01b031633146105b15760405162461bcd60e51b815260040161048590611b89565b60006113096112a7565b905061131484611510565b6000835111806113215750815b156113325761133084846115b5565b505b7f4910fdfa16fed3260ed0e7147f7cc6da11a60208b5b9406d12a635614ffd9143805460ff1661144357805460ff191660011781556040516001600160a01b03831660248201526113b190869060440160408051601f198184030181529190526020810180516001600160e01b0316631b2ce7f360e11b1790526115b5565b50805460ff191681556113c26112a7565b6001600160a01b0316826001600160a01b03161461143a5760405162461bcd60e51b815260206004820152602f60248201527f45524331393637557067726164653a207570677261646520627265616b73206660448201526e75727468657220757067726164657360881b6064820152608401610485565b611443856116a0565b5050505050565b603380546001600160a01b038381166001600160a01b0319831681179093556040519116919082907f8be0079c531659141344cd1fd0a4f28419497f9722a3daafe3b4186f6b6457e090600090a35050565b600054610100900460ff16806114b5575060005460ff16155b6114d15760405162461bcd60e51b815260040161048590611b3b565b600054610100900460ff161580156114f3576000805461ffff19166101011790555b6114fc3361144a565b80156105b1576000805461ff001916905550565b803b6115745760405162461bcd60e51b815260206004820152602d60248201527f455243313936373a206e657720696d706c656d656e746174696f6e206973206e60448201526c1bdd08184818dbdb9d1c9858dd609a1b6064820152608401610485565b7f360894a13ba1a3210667c828492db98dca3e2076cc3735a920a3ca505d382bbc80546001600160a01b0319166001600160a01b0392909216919091179055565b6060823b6116145760405162461bcd60e51b815260206004820152602660248201527f416464726573733a2064656c65676174652063616c6c20746f206e6f6e2d636f6044820152651b9d1c9858dd60d21b6064820152608401610485565b600080846001600160a01b03168460405161162f91906119b8565b600060405180830381855af49150503d806000811461166a576040519150601f19603f3d011682016040523d82523d6000602084013e61166f565b606091505b5091509150611697828260405180606001604052806027815260200161366c602791396116e0565b95945050505050565b6116a981611510565b6040516001600160a01b038216907fbc7cd75a20ee27fd9adebab32041f755214dbc6bffa90cc0225b39da2e5c2d3b90600090a250565b606083156116ef575081611719565b8251156116ff5782518084602001fd5b8160405162461bcd60e51b81526004016104859190611a49565b9392505050565b61195380611d1983390190565b600061174061173b84611c26565b611bf5565b905082815283838301111561175457600080fd5b828260208301376000602084830101529392505050565b80356001600160a01b038116811461082a57600080fd5b600082601f830112611792578081fd5b6117198383356020850161172d565b6000602082840312156117b2578081fd5b6117198261176b565b600080604083850312156117cd578081fd5b6117d68361176b565b9150602083013567ffffffffffffffff8111156117f1578182fd5b8301601f81018513611801578182fd5b6118108582356020840161172d565b9150509250929050565b60006020828403121561182b578081fd5b81518015158114611719578182fd5b60006020828403121561184b578081fd5b815167ffffffffffffffff811115611861578182fd5b8201601f81018413611871578182fd5b805161187f61173b82611c26565b818152856020838501011115611893578384fd5b611697826020830160208601611ca5565b6000806000606084860312156118b8578081fd5b833567ffffffffffffffff808211156118cf578283fd5b6118db87838801611782565b945060208601359150808211156118f0578283fd5b506118fd86828701611782565b925050604084013590509250925092565b60006020828403121561191f578081fd5b5051919050565b60008060408385031215611938578182fd5b823591506119486020840161176b565b90509250929050565b600080600060608486031215611965578283fd5b833592506119756020850161176b565b91506119836040850161176b565b90509250925092565b600081518084526119a4816020860160208601611ca5565b601f01601f19169290920160200192915050565b600082516119ca818460208701611ca5565b9190910192915050565b6020808252825182820181905260009190848201906040850190845b81811015611a155783516001600160a01b0316835292840192918401916001016119f0565b50909695505050505050565b6020810160028310611a4357634e487b7160e01b600052602160045260246000fd5b91905290565b602081526000611719602083018461198c565b608081526000611a6f608083018761198c565b8281036020840152611a81818761198c565b604084019590955250506001600160a01b039190911660609091015292915050565b6020808252602c908201527f46756e6374696f6e206d7573742062652063616c6c6564207468726f7567682060408201526b19195b1959d85d1958d85b1b60a21b606082015260800190565b6020808252602c908201527f46756e6374696f6e206d7573742062652063616c6c6564207468726f7567682060408201526b6163746976652070726f787960a01b606082015260800190565b6020808252602e908201527f496e697469616c697a61626c653a20636f6e747261637420697320616c72656160408201526d191e481a5b9a5d1a585b1a5e995960921b606082015260800190565b6020808252818101527f4f776e61626c653a2063616c6c6572206973206e6f7420746865206f776e6572604082015260600190565b60208082526019908201527f54686520706f6f6c206973206e6f742066756c6c207965742100000000000000604082015260600190565b604051601f8201601f1916810167ffffffffffffffff81118282101715611c1e57611c1e611d02565b604052919050565b600067ffffffffffffffff821115611c4057611c40611d02565b50601f01601f191660200190565b60008219821115611c6157611c61611cec565b500190565b600082611c8157634e487b7160e01b81526012600452602481fd5b500490565b6000816000190483118215151615611ca057611ca0611cec565b500290565b60005b83811015611cc0578181015183820152602001611ca8565b83811115610feb5750506000910152565b6000600019821415611ce557611ce5611cec565b5060010190565b634e487b7160e01b600052601160045260246000fd5b634e487b7160e01b600052604160045260246000fdfe60a06040523060601b60805234801561001757600080fd5b5060805160601c61190861004b600039600081816104ec0152818161052c01528181610629015261066901526119086000f3fe6080604052600436106101095760003560e01c806370a0823111610095578063a457c2d711610064578063a457c2d7146102c1578063a9059cbb146102e1578063bd3a13f614610301578063dd62ed3e14610321578063f2fde38b1461036757600080fd5b806370a0823114610239578063715018a61461026f5780638da5cb5b1461028457806395d89b41146102ac57600080fd5b8063313ce567116100dc578063313ce567146101a85780633659cfe6146101c457806339509351146101e657806340c10f19146102065780634f1ef2861461022657600080fd5b806306fdde031461010e578063095ea7b31461013957806318160ddd1461016957806323b872dd14610188575b600080fd5b34801561011a57600080fd5b50610123610387565b60405161013091906115a5565b60405180910390f35b34801561014557600080fd5b506101596101543660046114e5565b610419565b6040519015158152602001610130565b34801561017557600080fd5b506035545b604051908152602001610130565b34801561019457600080fd5b506101596101a336600461144b565b610430565b3480156101b457600080fd5b5060405160128152602001610130565b3480156101d057600080fd5b506101e46101df3660046113ff565b6104e1565b005b3480156101f257600080fd5b506101596102013660046114e5565b6105aa565b34801561021257600080fd5b506101e46102213660046114e5565b6105e6565b6101e4610234366004611486565b61061e565b34801561024557600080fd5b5061017a6102543660046113ff565b6001600160a01b031660009081526033602052604090205490565b34801561027b57600080fd5b506101e46106d4565b34801561029057600080fd5b506065546040516001600160a01b039091168152602001610130565b3480156102b857600080fd5b5061012361070a565b3480156102cd57600080fd5b506101596102dc3660046114e5565b610719565b3480156102ed57600080fd5b506101596102fc3660046114e5565b6107b2565b34801561030d57600080fd5b506101e461031c36600461150e565b6107bf565b34801561032d57600080fd5b5061017a61033c366004611419565b6001600160a01b03918216600090815260346020908152604080832093909416825291909152205490565b34801561037357600080fd5b506101e46103823660046113ff565b610860565b60606036805461039690611844565b80601f01602080910402602001604051908101604052809291908181526020018280546103c290611844565b801561040f5780601f106103e45761010080835404028352916020019161040f565b820191906000526020600020905b8154815290600101906020018083116103f257829003601f168201915b5050505050905090565b60006104263384846108f8565b5060015b92915050565b600061043d848484610a1c565b6001600160a01b0384166000908152603460209081526040808320338452909152902054828110156104c75760405162461bcd60e51b815260206004820152602860248201527f45524332303a207472616e7366657220616d6f756e74206578636565647320616044820152676c6c6f77616e636560c01b60648201526084015b60405180910390fd5b6104d485338584036108f8565b60019150505b9392505050565b306001600160a01b037f000000000000000000000000000000000000000000000000000000000000000016141561052a5760405162461bcd60e51b81526004016104be906115d8565b7f00000000000000000000000000000000000000000000000000000000000000006001600160a01b031661055c610bec565b6001600160a01b0316146105825760405162461bcd60e51b81526004016104be90611624565b61058b81610c1a565b604080516000808252602082019092526105a791839190610c44565b50565b3360008181526034602090815260408083206001600160a01b038716845290915281205490916104269185906105e19086906116f3565b6108f8565b6065546001600160a01b031633146106105760405162461bcd60e51b81526004016104be906116be565b61061a8282610d88565b5050565b306001600160a01b037f00000000000000000000000000000000000000000000000000000000000000001614156106675760405162461bcd60e51b81526004016104be906115d8565b7f00000000000000000000000000000000000000000000000000000000000000006001600160a01b0316610699610bec565b6001600160a01b0316146106bf5760405162461bcd60e51b81526004016104be90611624565b6106c882610c1a565b61061a82826001610c44565b6065546001600160a01b031633146106fe5760405162461bcd60e51b81526004016104be906116be565b6107086000610e67565b565b60606037805461039690611844565b3360009081526034602090815260408083206001600160a01b03861684529091528120548281101561079b5760405162461bcd60e51b815260206004820152602560248201527f45524332303a2064656372656173656420616c6c6f77616e63652062656c6f77604482015264207a65726f60d81b60648201526084016104be565b6107a833858584036108f8565b5060019392505050565b6000610426338484610a1c565b600054610100900460ff16806107d8575060005460ff16155b6107f45760405162461bcd60e51b81526004016104be90611670565b600054610100900460ff16158015610816576000805461ffff19166101011790555b6108208585610eb9565b610828610f39565b610847826108386012600a61174e565b61084290866117f9565b610d88565b8015610859576000805461ff00191690555b5050505050565b6065546001600160a01b0316331461088a5760405162461bcd60e51b81526004016104be906116be565b6001600160a01b0381166108ef5760405162461bcd60e51b815260206004820152602660248201527f4f776e61626c653a206e6577206f776e657220697320746865207a65726f206160448201526564647265737360d01b60648201526084016104be565b6105a781610e67565b6001600160a01b03831661095a5760405162461bcd60e51b8152602060048201526024808201527f45524332303a20617070726f76652066726f6d20746865207a65726f206164646044820152637265737360e01b60648201526084016104be565b6001600160a01b0382166109bb5760405162461bcd60e51b815260206004820152602260248201527f45524332303a20617070726f766520746f20746865207a65726f206164647265604482015261737360f01b60648201526084016104be565b6001600160a01b0383811660008181526034602090815260408083209487168084529482529182902085905590518481527f8c5be1e5ebec7d5bd14f71427d1e84f3dd0314c0f7b2291e5b200ac8c7c3b925910160405180910390a3505050565b6001600160a01b038316610a805760405162461bcd60e51b815260206004820152602560248201527f45524332303a207472616e736665722066726f6d20746865207a65726f206164604482015264647265737360d81b60648201526084016104be565b6001600160a01b038216610ae25760405162461bcd60e51b815260206004820152602360248201527f45524332303a207472616e7366657220746f20746865207a65726f206164647260448201526265737360e81b60648201526084016104be565b6001600160a01b03831660009081526033602052604090205481811015610b5a5760405162461bcd60e51b815260206004820152602660248201527f45524332303a207472616e7366657220616d6f756e7420657863656564732062604482015265616c616e636560d01b60648201526084016104be565b6001600160a01b03808516600090815260336020526040808220858503905591851681529081208054849290610b919084906116f3565b92505081905550826001600160a01b0316846001600160a01b03167fddf252ad1be2c89b69c2b068fc378daa952ba7f163c4a11628f55a4df523b3ef84604051610bdd91815260200190565b60405180910390a35b50505050565b7f360894a13ba1a3210667c828492db98dca3e2076cc3735a920a3ca505d382bbc546001600160a01b031690565b6065546001600160a01b031633146105a75760405162461bcd60e51b81526004016104be906116be565b6000610c4e610bec565b9050610c5984610fad565b600083511180610c665750815b15610c7757610c758484611052565b505b7f4910fdfa16fed3260ed0e7147f7cc6da11a60208b5b9406d12a635614ffd9143805460ff1661085957805460ff191660011781556040516001600160a01b0383166024820152610cf690869060440160408051601f198184030181529190526020810180516001600160e01b0316631b2ce7f360e11b179052611052565b50805460ff19168155610d07610bec565b6001600160a01b0316826001600160a01b031614610d7f5760405162461bcd60e51b815260206004820152602f60248201527f45524331393637557067726164653a207570677261646520627265616b73206660448201526e75727468657220757067726164657360881b60648201526084016104be565b6108598561113d565b6001600160a01b038216610dde5760405162461bcd60e51b815260206004820152601f60248201527f45524332303a206d696e7420746f20746865207a65726f20616464726573730060448201526064016104be565b8060356000828254610df091906116f3565b90915550506001600160a01b03821660009081526033602052604081208054839290610e1d9084906116f3565b90915550506040518181526001600160a01b038316906000907fddf252ad1be2c89b69c2b068fc378daa952ba7f163c4a11628f55a4df523b3ef9060200160405180910390a35050565b606580546001600160a01b038381166001600160a01b0319831681179093556040519116919082907f8be0079c531659141344cd1fd0a4f28419497f9722a3daafe3b4186f6b6457e090600090a35050565b600054610100900460ff1680610ed2575060005460ff16155b610eee5760405162461bcd60e51b81526004016104be90611670565b600054610100900460ff16158015610f10576000805461ffff19166101011790555b610f1861117d565b610f2283836111e7565b8015610f34576000805461ff00191690555b505050565b600054610100900460ff1680610f52575060005460ff16155b610f6e5760405162461bcd60e51b81526004016104be90611670565b600054610100900460ff16158015610f90576000805461ffff19166101011790555b610f9933610e67565b80156105a7576000805461ff001916905550565b803b6110115760405162461bcd60e51b815260206004820152602d60248201527f455243313936373a206e657720696d706c656d656e746174696f6e206973206e60448201526c1bdd08184818dbdb9d1c9858dd609a1b60648201526084016104be565b7f360894a13ba1a3210667c828492db98dca3e2076cc3735a920a3ca505d382bbc80546001600160a01b0319166001600160a01b0392909216919091179055565b6060823b6110b15760405162461bcd60e51b815260206004820152602660248201527f416464726573733a2064656c65676174652063616c6c20746f206e6f6e2d636f6044820152651b9d1c9858dd60d21b60648201526084016104be565b600080846001600160a01b0316846040516110cc9190611589565b600060405180830381855af49150503d8060008114611107576040519150601f19603f3d011682016040523d82523d6000602084013e61110c565b606091505b509150915061113482826040518060600160405280602781526020016118ac6027913961127c565b95945050505050565b61114681610fad565b6040516001600160a01b038216907fbc7cd75a20ee27fd9adebab32041f755214dbc6bffa90cc0225b39da2e5c2d3b90600090a250565b600054610100900460ff1680611196575060005460ff16155b6111b25760405162461bcd60e51b81526004016104be90611670565b600054610100900460ff16158015610f99576000805461ffff191661010117905580156105a7576000805461ff001916905550565b600054610100900460ff1680611200575060005460ff16155b61121c5760405162461bcd60e51b81526004016104be90611670565b600054610100900460ff1615801561123e576000805461ffff19166101011790555b82516112519060369060208601906112b5565b5081516112659060379060208501906112b5565b508015610f34576000805461ff0019169055505050565b6060831561128b5750816104da565b82511561129b5782518084602001fd5b8160405162461bcd60e51b81526004016104be91906115a5565b8280546112c190611844565b90600052602060002090601f0160209004810192826112e35760008555611329565b82601f106112fc57805160ff1916838001178555611329565b82800160010185558215611329579182015b8281111561132957825182559160200191906001019061130e565b50611335929150611339565b5090565b5b80821115611335576000815560010161133a565b600067ffffffffffffffff8084111561136957611369611895565b604051601f8501601f19908116603f0116810190828211818310171561139157611391611895565b816040528093508581528686860111156113aa57600080fd5b858560208301376000602087830101525050509392505050565b80356001600160a01b03811681146113db57600080fd5b919050565b600082601f8301126113f0578081fd5b6104da8383356020850161134e565b600060208284031215611410578081fd5b6104da826113c4565b6000806040838503121561142b578081fd5b611434836113c4565b9150611442602084016113c4565b90509250929050565b60008060006060848603121561145f578081fd5b611468846113c4565b9250611476602085016113c4565b9150604084013590509250925092565b60008060408385031215611498578182fd5b6114a1836113c4565b9150602083013567ffffffffffffffff8111156114bc578182fd5b8301601f810185136114cc578182fd5b6114db8582356020840161134e565b9150509250929050565b600080604083850312156114f7578182fd5b611500836113c4565b946020939093013593505050565b60008060008060808587031215611523578081fd5b843567ffffffffffffffff8082111561153a578283fd5b611546888389016113e0565b9550602087013591508082111561155b578283fd5b50611568878288016113e0565b9350506040850135915061157e606086016113c4565b905092959194509250565b6000825161159b818460208701611818565b9190910192915050565b60208152600082518060208401526115c4816040850160208701611818565b601f01601f19169190910160400192915050565b6020808252602c908201527f46756e6374696f6e206d7573742062652063616c6c6564207468726f7567682060408201526b19195b1959d85d1958d85b1b60a21b606082015260800190565b6020808252602c908201527f46756e6374696f6e206d7573742062652063616c6c6564207468726f7567682060408201526b6163746976652070726f787960a01b606082015260800190565b6020808252602e908201527f496e697469616c697a61626c653a20636f6e747261637420697320616c72656160408201526d191e481a5b9a5d1a585b1a5e995960921b606082015260800190565b6020808252818101527f4f776e61626c653a2063616c6c6572206973206e6f7420746865206f776e6572604082015260600190565b600082198211156117065761170661187f565b500190565b600181815b8085111561174657816000190482111561172c5761172c61187f565b8085161561173957918102915b93841c9390800290611710565b509250929050565b60006104da60ff8416836000826117675750600161042a565b816117745750600061042a565b816001811461178a5760028114611794576117b0565b600191505061042a565b60ff8411156117a5576117a561187f565b50506001821b61042a565b5060208310610133831016604e8410600b84101617156117d3575081810a61042a565b6117dd838361170b565b80600019048211156117f1576117f161187f565b029392505050565b60008160001904831182151516156118135761181361187f565b500290565b60005b8381101561183357818101518382015260200161181b565b83811115610be65750506000910152565b600181811c9082168061185857607f821691505b6020821081141561187957634e487b7160e01b600052602260045260246000fd5b50919050565b634e487b7160e01b600052601160045260246000fd5b634e487b7160e01b600052604160045260246000fdfe416464726573733a206c6f772d6c6576656c2064656c65676174652063616c6c206661696c6564a2646970667358221220a4d4c08a632906d4cae7629edaa73d8c30e3cc8576c3e0f57d8e2405d2e18edf64736f6c63430008040033416464726573733a206c6f772d6c6576656c2064656c65676174652063616c6c206661696c6564a26469706673582212205bee40686312fedbe4ee041902610b742976410803929f80c8427149071cfead64736f6c63430008040033608060405234801561001057600080fd5b506104d9806100206000396000f3fe608060405234801561001057600080fd5b50600436106100625760003560e01c806341f654f71461006757806357771a2314610085578063711e32151461009a578063e68c24ae146100ca578063ed2e5a97146100dd578063f01fe69214610108575b600080fd5b61006f6101ab565b60405161007c919061044b565b60405180910390f35b6100986100933660046103f9565b610220565b005b6100ad6100a83660046103f9565b6102a5565b604080519283526001600160a01b0390911660208301520161007c565b6100986100d8366004610411565b6102dc565b6100f06100eb3660046103f9565b610375565b6040516001600160a01b03909116815260200161007c565b610098610116366004610411565b604080518082019091529182526001600160a01b03908116602083019081526000805460018101825590805292517f290decd9548b62a8d60345a988386fc84ba6bc95484008f6362f93160ef3e563600290940293840155517f290decd9548b62a8d60345a988386fc84ba6bc95484008f6362f93160ef3e56490920180546001600160a01b03191692909116919091179055565b60606000805480602002602001604051908101604052809291908181526020016000905b828210156102175760008481526020908190206040805180820190915260028502909101805482526001908101546001600160a01b03168284015290835290920191016101cf565b50505050905090565b806000828154811061024257634e487b7160e01b600052603260045260246000fd5b9060005260206000209060020201600001541461025e57600080fd5b6000818154811061027f57634e487b7160e01b600052603260045260246000fd5b60009182526020822060029091020190815560010180546001600160a01b031916905550565b600081815481106102b557600080fd5b6000918252602090912060029091020180546001909101549091506001600160a01b031682565b81600083815481106102fe57634e487b7160e01b600052603260045260246000fd5b9060005260206000209060020201600001541461031a57600080fd5b806000838154811061033c57634e487b7160e01b600052603260045260246000fd5b906000526020600020906002020160010160006101000a8154816001600160a01b0302191690836001600160a01b031602179055505050565b6000816000838154811061039957634e487b7160e01b600052603260045260246000fd5b906000526020600020906002020160000154146103b557600080fd5b600082815481106103d657634e487b7160e01b600052603260045260246000fd5b60009182526020909120600160029092020101546001600160a01b031692915050565b60006020828403121561040a578081fd5b5035919050565b60008060408385031215610423578081fd5b8235915060208301356001600160a01b0381168114610440578182fd5b809150509250929050565b602080825282518282018190526000919060409081850190868401855b82811015610496578151805185528601516001600160a01b0316868501529284019290850190600101610468565b509197965050505050505056fea264697066735822122009880b9abad1e76aceb782f94fa24fcbf59f0efd7e55abab1a794353baf5f32464736f6c63430008040033416464726573733a206c6f772d6c6576656c2064656c65676174652063616c6c206661696c6564a264697066735822122037329b31316f7cf7391891383fc6dddf61b4edcc772e6276fcac854d3b02abab64736f6c63430008040033",
  "linkReferences": {},
  "deployedLinkReferences": {}
}