{
  "_format": "hh-sol-artifact-1",
  "contractName": "Token",
  "sourceName": "contracts/Token.sol",
  "abi": [
    {
      "anonymous": false,
      "inputs": [
        {
          "indexed": false,
          "internalType": "address",
          "name": "previousAdmin",
          "type": "address"
        },
        {
          "indexed": false,
          "internalType": "address",
          "name": "newAdmin",
          "type": "address"
        }
      ],
      "name": "AdminChanged",
      "type": "event"
    },
    {
      "anonymous": false,
      "inputs": [
        {
          "indexed": true,
          "internalType": "address",
          "name": "owner",
          "type": "address"
        },
        {
          "indexed": true,
          "internalType": "address",
          "name": "spender",
          "type": "address"
        },
        {
          "indexed": false,
          "internalType": "uint256",
          "name": "value",
          "type": "uint256"
        }
      ],
      "name": "Approval",
      "type": "event"
    },
    {
      "anonymous": false,
      "inputs": [
        {
          "indexed": true,
          "internalType": "address",
          "name": "beacon",
          "type": "address"
        }
      ],
      "name": "BeaconUpgraded",
      "type": "event"
    },
    {
      "anonymous": false,
      "inputs": [
        {
          "indexed": true,
          "internalType": "address",
          "name": "previousOwner",
          "type": "address"
        },
        {
          "indexed": true,
          "internalType": "address",
          "name": "newOwner",
          "type": "address"
        }
      ],
      "name": "OwnershipTransferred",
      "type": "event"
    },
    {
      "anonymous": false,
      "inputs": [
        {
          "indexed": true,
          "internalType": "address",
          "name": "from",
          "type": "address"
        },
        {
          "indexed": true,
          "internalType": "address",
          "name": "to",
          "type": "address"
        },
        {
          "indexed": false,
          "internalType": "uint256",
          "name": "value",
          "type": "uint256"
        }
      ],
      "name": "Transfer",
      "type": "event"
    },
    {
      "anonymous": false,
      "inputs": [
        {
          "indexed": true,
          "internalType": "address",
          "name": "implementation",
          "type": "address"
        }
      ],
      "name": "Upgraded",
      "type": "event"
    },
    {
      "inputs": [
        {
          "internalType": "address",
          "name": "owner",
          "type": "address"
        },
        {
          "internalType": "address",
          "name": "spender",
          "type": "address"
        }
      ],
      "name": "allowance",
      "outputs": [
        {
          "internalType": "uint256",
          "name": "",
          "type": "uint256"
        }
      ],
      "stateMutability": "view",
      "type": "function"
    },
    {
      "inputs": [
        {
          "internalType": "address",
          "name": "spender",
          "type": "address"
        },
        {
          "internalType": "uint256",
          "name": "amount",
          "type": "uint256"
        }
      ],
      "name": "approve",
      "outputs": [
        {
          "internalType": "bool",
          "name": "",
          "type": "bool"
        }
      ],
      "stateMutability": "nonpayable",
      "type": "function"
    },
    {
      "inputs": [
        {
          "internalType": "address",
          "name": "account",
          "type": "address"
        }
      ],
      "name": "balanceOf",
      "outputs": [
        {
          "internalType": "uint256",
          "name": "",
          "type": "uint256"
        }
      ],
      "stateMutability": "view",
      "type": "function"
    },
    {
      "inputs": [],
      "name": "decimals",
      "outputs": [
        {
          "internalType": "uint8",
          "name": "",
          "type": "uint8"
        }
      ],
      "stateMutability": "view",
      "type": "function"
    },
    {
      "inputs": [
        {
          "internalType": "address",
          "name": "spender",
          "type": "address"
        },
        {
          "internalType": "uint256",
          "name": "subtractedValue",
          "type": "uint256"
        }
      ],
      "name": "decreaseAllowance",
      "outputs": [
        {
          "internalType": "bool",
          "name": "",
          "type": "bool"
        }
      ],
      "stateMutability": "nonpayable",
      "type": "function"
    },
    {
      "inputs": [
        {
          "internalType": "address",
          "name": "spender",
          "type": "address"
        },
        {
          "internalType": "uint256",
          "name": "addedValue",
          "type": "uint256"
        }
      ],
      "name": "increaseAllowance",
      "outputs": [
        {
          "internalType": "bool",
          "name": "",
          "type": "bool"
        }
      ],
      "stateMutability": "nonpayable",
      "type": "function"
    },
    {
      "inputs": [
        {
          "internalType": "string",
          "name": "_name",
          "type": "string"
        },
        {
          "internalType": "string",
          "name": "_ticker",
          "type": "string"
        },
        {
          "internalType": "uint256",
          "name": "_amount",
          "type": "uint256"
        },
        {
          "internalType": "address",
          "name": "_to",
          "type": "address"
        }
      ],
      "name": "initialize",
      "outputs": [],
      "stateMutability": "nonpayable",
      "type": "function"
    },
    {
      "inputs": [
        {
          "internalType": "address",
          "name": "_to",
          "type": "address"
        },
        {
          "internalType": "uint256",
          "name": "_amount",
          "type": "uint256"
        }
      ],
      "name": "mint",
      "outputs": [],
      "stateMutability": "nonpayable",
      "type": "function"
    },
    {
      "inputs": [],
      "name": "name",
      "outputs": [
        {
          "internalType": "string",
          "name": "",
          "type": "string"
        }
      ],
      "stateMutability": "view",
      "type": "function"
    },
    {
      "inputs": [],
      "name": "owner",
      "outputs": [
        {
          "internalType": "address",
          "name": "",
          "type": "address"
        }
      ],
      "stateMutability": "view",
      "type": "function"
    },
    {
      "inputs": [],
      "name": "renounceOwnership",
      "outputs": [],
      "stateMutability": "nonpayable",
      "type": "function"
    },
    {
      "inputs": [],
      "name": "symbol",
      "outputs": [
        {
          "internalType": "string",
          "name": "",
          "type": "string"
        }
      ],
      "stateMutability": "view",
      "type": "function"
    },
    {
      "inputs": [],
      "name": "totalSupply",
      "outputs": [
        {
          "internalType": "uint256",
          "name": "",
          "type": "uint256"
        }
      ],
      "stateMutability": "view",
      "type": "function"
    },
    {
      "inputs": [
        {
          "internalType": "address",
          "name": "recipient",
          "type": "address"
        },
        {
          "internalType": "uint256",
          "name": "amount",
          "type": "uint256"
        }
      ],
      "name": "transfer",
      "outputs": [
        {
          "internalType": "bool",
          "name": "",
          "type": "bool"
        }
      ],
      "stateMutability": "nonpayable",
      "type": "function"
    },
    {
      "inputs": [
        {
          "internalType": "address",
          "name": "sender",
          "type": "address"
        },
        {
          "internalType": "address",
          "name": "recipient",
          "type": "address"
        },
        {
          "internalType": "uint256",
          "name": "amount",
          "type": "uint256"
        }
      ],
      "name": "transferFrom",
      "outputs": [
        {
          "internalType": "bool",
          "name": "",
          "type": "bool"
        }
      ],
      "stateMutability": "nonpayable",
      "type": "function"
    },
    {
      "inputs": [
        {
          "internalType": "address",
          "name": "newOwner",
          "type": "address"
        }
      ],
      "name": "transferOwnership",
      "outputs": [],
      "stateMutability": "nonpayable",
      "type": "function"
    },
    {
      "inputs": [
        {
          "internalType": "address",
          "name": "newImplementation",
          "type": "address"
        }
      ],
      "name": "upgradeTo",
      "outputs": [],
      "stateMutability": "nonpayable",
      "type": "function"
    },
    {
      "inputs": [
        {
          "internalType": "address",
          "name": "newImplementation",
          "type": "address"
        },
        {
          "internalType": "bytes",
          "name": "data",
          "type": "bytes"
        }
      ],
      "name": "upgradeToAndCall",
      "outputs": [],
      "stateMutability": "payable",
      "type": "function"
    }
  ],
  "bytecode": "0x60a06040523060601b60805234801561001757600080fd5b5060805160601c61183061004b600039600081816104b6015281816104f6015281816105f8015261063801526118306000f3fe6080604052600436106100d95760003560e01c806306fdde03146100de578063095ea7b31461010957806318160ddd1461013957806323b872dd14610158578063313ce567146101785780633659cfe61461019457806339509351146101b657806340c10f19146101d65780634f1ef286146101f657806370a0823114610209578063715018a61461023f5780638da5cb5b1461025457806395d89b4114610276578063a457c2d71461028b578063a9059cbb146102ab578063bd3a13f6146102cb578063dd62ed3e146102eb578063f2fde38b14610331575b600080fd5b3480156100ea57600080fd5b506100f3610351565b6040516101009190611494565b60405180910390f35b34801561011557600080fd5b506101296101243660046113c1565b6103e3565b6040519015158152602001610100565b34801561014557600080fd5b506035545b604051908152602001610100565b34801561016457600080fd5b50610129610173366004611328565b6103fa565b34801561018457600080fd5b5060405160128152602001610100565b3480156101a057600080fd5b506101b46101af3660046112dc565b6104ab565b005b3480156101c257600080fd5b506101296101d13660046113c1565b610574565b3480156101e257600080fd5b506101b46101f13660046113c1565b6105b0565b6101b4610204366004611363565b6105ed565b34801561021557600080fd5b5061014a6102243660046112dc565b6001600160a01b031660009081526033602052604090205490565b34801561024b57600080fd5b506101b46106a3565b34801561026057600080fd5b506102696106de565b6040516101009190611480565b34801561028257600080fd5b506100f36106ed565b34801561029757600080fd5b506101296102a63660046113c1565b6106fc565b3480156102b757600080fd5b506101296102c63660046113c1565b610795565b3480156102d757600080fd5b506101b46102e63660046113ea565b6107a2565b3480156102f757600080fd5b5061014a6103063660046112f6565b6001600160a01b03918216600090815260346020908152604080832093909416825291909152205490565b34801561033d57600080fd5b506101b461034c3660046112dc565b610890565b6060603680546103609061170c565b80601f016020809104026020016040519081016040528092919081815260200182805461038c9061170c565b80156103d95780601f106103ae576101008083540402835291602001916103d9565b820191906000526020600020905b8154815290600101906020018083116103bc57829003601f168201915b5050505050905090565b60006103f033848461092d565b5060015b92915050565b6000610407848484610a51565b6001600160a01b0384166000908152603460209081526040808320338452909152902054828110156104915760405162461bcd60e51b815260206004820152602860248201527f45524332303a207472616e7366657220616d6f756e74206578636565647320616044820152676c6c6f77616e636560c01b60648201526084015b60405180910390fd5b61049e853385840361092d565b60019150505b9392505050565b306001600160a01b037f00000000000000000000000000000000000000000000000000000000000000001614156104f45760405162461bcd60e51b8152600401610488906114c7565b7f00000000000000000000000000000000000000000000000000000000000000006001600160a01b0316610526610c0f565b6001600160a01b03161461054c5760405162461bcd60e51b815260040161048890611501565b61055581610c2b565b6040805160008082526020820190925261057191839190610c5a565b50565b3360008181526034602090815260408083206001600160a01b038716845290915281205490916103f09185906105ab9086906115bb565b61092d565b336105b96106de565b6001600160a01b0316146105df5760405162461bcd60e51b81526004016104889061153b565b6105e98282610d9a565b5050565b306001600160a01b037f00000000000000000000000000000000000000000000000000000000000000001614156106365760405162461bcd60e51b8152600401610488906114c7565b7f00000000000000000000000000000000000000000000000000000000000000006001600160a01b0316610668610c0f565b6001600160a01b03161461068e5760405162461bcd60e51b815260040161048890611501565b61069782610c2b565b6105e982826001610c5a565b336106ac6106de565b6001600160a01b0316146106d25760405162461bcd60e51b81526004016104889061153b565b6106dc6000610e67565b565b6065546001600160a01b031690565b6060603780546103609061170c565b3360009081526034602090815260408083206001600160a01b03861684529091528120548281101561077e5760405162461bcd60e51b815260206004820152602560248201527f45524332303a2064656372656173656420616c6c6f77616e63652062656c6f77604482015264207a65726f60d81b6064820152608401610488565b61078b338585840361092d565b5060019392505050565b60006103f0338484610a51565b600054610100900460ff166107bd5760005460ff16156107c1565b303b155b6108245760405162461bcd60e51b815260206004820152602e60248201527f496e697469616c697a61626c653a20636f6e747261637420697320616c72656160448201526d191e481a5b9a5d1a585b1a5e995960921b6064820152608401610488565b600054610100900460ff16158015610846576000805461ffff19166101011790555b6108508585610eb9565b610858610ef2565b610877826108686012600a611616565b61087290866116c1565b610d9a565b8015610889576000805461ff00191690555b5050505050565b336108996106de565b6001600160a01b0316146108bf5760405162461bcd60e51b81526004016104889061153b565b6001600160a01b0381166109245760405162461bcd60e51b815260206004820152602660248201527f4f776e61626c653a206e6577206f776e657220697320746865207a65726f206160448201526564647265737360d01b6064820152608401610488565b61057181610e67565b6001600160a01b03831661098f5760405162461bcd60e51b8152602060048201526024808201527f45524332303a20617070726f76652066726f6d20746865207a65726f206164646044820152637265737360e01b6064820152608401610488565b6001600160a01b0382166109f05760405162461bcd60e51b815260206004820152602260248201527f45524332303a20617070726f766520746f20746865207a65726f206164647265604482015261737360f01b6064820152608401610488565b6001600160a01b0383811660008181526034602090815260408083209487168084529482529182902085905590518481527f8c5be1e5ebec7d5bd14f71427d1e84f3dd0314c0f7b2291e5b200ac8c7c3b925910160405180910390a3505050565b6001600160a01b038316610ab55760405162461bcd60e51b815260206004820152602560248201527f45524332303a207472616e736665722066726f6d20746865207a65726f206164604482015264647265737360d81b6064820152608401610488565b6001600160a01b038216610b175760405162461bcd60e51b815260206004820152602360248201527f45524332303a207472616e7366657220746f20746865207a65726f206164647260448201526265737360e81b6064820152608401610488565b6001600160a01b03831660009081526033602052604090205481811015610b8f5760405162461bcd60e51b815260206004820152602660248201527f45524332303a207472616e7366657220616d6f756e7420657863656564732062604482015265616c616e636560d01b6064820152608401610488565b6001600160a01b03808516600090815260336020526040808220858503905591851681529081208054849290610bc69084906115bb565b92505081905550826001600160a01b0316846001600160a01b03166000805160206117db83398151915284604051610c0091815260200190565b60405180910390a35b50505050565b600080516020611794833981519152546001600160a01b031690565b33610c346106de565b6001600160a01b0316146105715760405162461bcd60e51b81526004016104889061153b565b6000610c64610c0f565b9050610c6f84610f27565b600083511180610c7c5750815b15610c8d57610c8b8484610fba565b505b7f4910fdfa16fed3260ed0e7147f7cc6da11a60208b5b9406d12a635614ffd9143805460ff1661088957805460ff19166001178155604051610d08908690610cd9908590602401611480565b60408051601f198184030181529190526020810180516001600160e01b0316631b2ce7f360e11b179052610fba565b50805460ff19168155610d19610c0f565b6001600160a01b0316826001600160a01b031614610d915760405162461bcd60e51b815260206004820152602f60248201527f45524331393637557067726164653a207570677261646520627265616b73206660448201526e75727468657220757067726164657360881b6064820152608401610488565b610889856110a5565b6001600160a01b038216610df05760405162461bcd60e51b815260206004820152601f60248201527f45524332303a206d696e7420746f20746865207a65726f2061646472657373006044820152606401610488565b8060356000828254610e0291906115bb565b90915550506001600160a01b03821660009081526033602052604081208054839290610e2f9084906115bb565b90915550506040518181526001600160a01b038316906000906000805160206117db8339815191529060200160405180910390a35050565b606580546001600160a01b038381166001600160a01b0319831681179093556040519116919082907f8be0079c531659141344cd1fd0a4f28419497f9722a3daafe3b4186f6b6457e090600090a35050565b600054610100900460ff16610ee05760405162461bcd60e51b815260040161048890611570565b610ee86110e5565b6105e9828261110c565b600054610100900460ff16610f195760405162461bcd60e51b815260040161048890611570565b6106dc33610e67565b505050565b803b610f8b5760405162461bcd60e51b815260206004820152602d60248201527f455243313936373a206e657720696d706c656d656e746174696f6e206973206e60448201526c1bdd08184818dbdb9d1c9858dd609a1b6064820152608401610488565b60008051602061179483398151915280546001600160a01b0319166001600160a01b0392909216919091179055565b6060823b6110195760405162461bcd60e51b815260206004820152602660248201527f416464726573733a2064656c65676174652063616c6c20746f206e6f6e2d636f6044820152651b9d1c9858dd60d21b6064820152608401610488565b600080846001600160a01b0316846040516110349190611464565b600060405180830381855af49150503d806000811461106f576040519150601f19603f3d011682016040523d82523d6000602084013e611074565b606091505b509150915061109c82826040518060600160405280602781526020016117b46027913961115a565b95945050505050565b6110ae81610f27565b6040516001600160a01b038216907fbc7cd75a20ee27fd9adebab32041f755214dbc6bffa90cc0225b39da2e5c2d3b90600090a250565b600054610100900460ff166106dc5760405162461bcd60e51b815260040161048890611570565b600054610100900460ff166111335760405162461bcd60e51b815260040161048890611570565b8151611146906036906020850190611193565b508051610f22906037906020840190611193565b606083156111695750816104a4565b8251156111795782518084602001fd5b8160405162461bcd60e51b81526004016104889190611494565b82805461119f9061170c565b90600052602060002090601f0160209004810192826111c15760008555611207565b82601f106111da57805160ff1916838001178555611207565b82800160010185558215611207579182015b828111156112075782518255916020019190600101906111ec565b50611213929150611217565b5090565b5b808211156112135760008155600101611218565b60006001600160401b03808411156112465761124661175d565b604051601f8501601f19908116603f0116810190828211818310171561126e5761126e61175d565b8160405280935085815286868601111561128757600080fd5b858560208301376000602087830101525050509392505050565b80356001600160a01b03811681146112b857600080fd5b919050565b600082601f8301126112cd578081fd5b6104a48383356020850161122c565b6000602082840312156112ed578081fd5b6104a4826112a1565b60008060408385031215611308578081fd5b611311836112a1565b915061131f602084016112a1565b90509250929050565b60008060006060848603121561133c578081fd5b611345846112a1565b9250611353602085016112a1565b9150604084013590509250925092565b60008060408385031215611375578182fd5b61137e836112a1565b915060208301356001600160401b03811115611398578182fd5b8301601f810185136113a8578182fd5b6113b78582356020840161122c565b9150509250929050565b600080604083850312156113d3578182fd5b6113dc836112a1565b946020939093013593505050565b600080600080608085870312156113ff578081fd5b84356001600160401b0380821115611415578283fd5b611421888389016112bd565b95506020870135915080821115611436578283fd5b50611443878288016112bd565b93505060408501359150611459606086016112a1565b905092959194509250565b600082516114768184602087016116e0565b9190910192915050565b6001600160a01b0391909116815260200190565b60208152600082518060208401526114b38160408501602087016116e0565b601f01601f19169190910160400192915050565b6020808252602c9082015260008051602061177483398151915260408201526b19195b1959d85d1958d85b1b60a21b606082015260800190565b6020808252602c9082015260008051602061177483398151915260408201526b6163746976652070726f787960a01b606082015260800190565b6020808252818101527f4f776e61626c653a2063616c6c6572206973206e6f7420746865206f776e6572604082015260600190565b6020808252602b908201527f496e697469616c697a61626c653a20636f6e7472616374206973206e6f74206960408201526a6e697469616c697a696e6760a81b606082015260800190565b600082198211156115ce576115ce611747565b500190565b600181815b8085111561160e5781600019048211156115f4576115f4611747565b8085161561160157918102915b93841c93908002906115d8565b509250929050565b60006104a460ff84168360008261162f575060016103f4565b8161163c575060006103f4565b8160018114611652576002811461165c57611678565b60019150506103f4565b60ff84111561166d5761166d611747565b50506001821b6103f4565b5060208310610133831016604e8410600b841016171561169b575081810a6103f4565b6116a583836115d3565b80600019048211156116b9576116b9611747565b029392505050565b60008160001904831182151516156116db576116db611747565b500290565b60005b838110156116fb5781810151838201526020016116e3565b83811115610c095750506000910152565b600181811c9082168061172057607f821691505b6020821081141561174157634e487b7160e01b600052602260045260246000fd5b50919050565b634e487b7160e01b600052601160045260246000fd5b634e487b7160e01b600052604160045260246000fdfe46756e6374696f6e206d7573742062652063616c6c6564207468726f75676820360894a13ba1a3210667c828492db98dca3e2076cc3735a920a3ca505d382bbc416464726573733a206c6f772d6c6576656c2064656c65676174652063616c6c206661696c6564ddf252ad1be2c89b69c2b068fc378daa952ba7f163c4a11628f55a4df523b3efa26469706673582212209d3e65192d3a8eade3a6dd6334d7eecef47278fe75c710d96188b87f292180dd64736f6c63430008040033",
  "linkReferences": {},
  "deployedLinkReferences": {}
}