{
  "_format": "hh-sol-artifact-1",
  "contractName": "VaultProxy",
  "sourceName": "contracts/VaultProxy.sol",
  "abi": [
    {
      "inputs": [
        {
          "internalType": "address payable",
          "name": "multisig_",
          "type": "address"
        },
        {
          "internalType": "address payable",
          "name": "operator_",
          "type": "address"
        }
      ],
      "stateMutability": "nonpayable",
      "type": "constructor"
    },
    {
      "anonymous": false,
      "inputs": [
        {
          "indexed": false,
          "internalType": "uint256",
          "name": "fundraising",
          "type": "uint256"
        },
        {
          "indexed": false,
          "internalType": "uint256",
          "name": "amount",
          "type": "uint256"
        },
        {
          "indexed": false,
          "internalType": "address",
          "name": "from",
          "type": "address"
        }
      ],
      "name": "Deposit",
      "type": "event"
    },
    {
      "inputs": [
        {
          "internalType": "uint256",
          "name": "fundraising_id_",
          "type": "uint256"
        }
      ],
      "name": "deposit",
      "outputs": [],
      "stateMutability": "payable",
      "type": "function"
    },
    {
      "inputs": [],
      "name": "multisig",
      "outputs": [
        {
          "internalType": "address payable",
          "name": "",
          "type": "address"
        }
      ],
      "stateMutability": "view",
      "type": "function"
    },
    {
      "inputs": [],
      "name": "operator",
      "outputs": [
        {
          "internalType": "address payable",
          "name": "",
          "type": "address"
        }
      ],
      "stateMutability": "view",
      "type": "function"
    },
    {
      "inputs": [
        {
          "internalType": "address payable",
          "name": "multisig_",
          "type": "address"
        }
      ],
      "name": "set_multisig",
      "outputs": [],
      "stateMutability": "nonpayable",
      "type": "function"
    },
    {
      "inputs": [
        {
          "internalType": "address payable",
          "name": "operator_",
          "type": "address"
        }
      ],
      "name": "set_operator",
      "outputs": [],
      "stateMutability": "nonpayable",
      "type": "function"
    }
  ],
  "bytecode": "0x608060405234801561001057600080fd5b5060405161064d38038061064d833981810160405281019061003291906100cf565b81600160006101000a81548173ffffffffffffffffffffffffffffffffffffffff021916908373ffffffffffffffffffffffffffffffffffffffff160217905550806000806101000a81548173ffffffffffffffffffffffffffffffffffffffff021916908373ffffffffffffffffffffffffffffffffffffffff1602179055505050610154565b6000815190506100c98161013d565b92915050565b600080604083850312156100e257600080fd5b60006100f0858286016100ba565b9250506020610101858286016100ba565b9150509250929050565b60006101168261011d565b9050919050565b600073ffffffffffffffffffffffffffffffffffffffff82169050919050565b6101468161010b565b811461015157600080fd5b50565b6104ea806101636000396000f3fe60806040526004361061004a5760003560e01c806330c7be721461004f5780634783c35b14610078578063570ca735146100a3578063b6b55f25146100ce578063e8c5d0a3146100ea575b600080fd5b34801561005b57600080fd5b5061007660048036038101906100719190610367565b610113565b005b34801561008457600080fd5b5061008d6101b0565b60405161009a91906103e6565b60405180910390f35b3480156100af57600080fd5b506100b86101d6565b6040516100c591906103e6565b60405180910390f35b6100e860048036038101906100e39190610390565b6101fa565b005b3480156100f657600080fd5b50610111600480360381019061010c9190610367565b61029f565b005b600160009054906101000a900473ffffffffffffffffffffffffffffffffffffffff1673ffffffffffffffffffffffffffffffffffffffff163373ffffffffffffffffffffffffffffffffffffffff161461016d57600080fd5b806000806101000a81548173ffffffffffffffffffffffffffffffffffffffff021916908373ffffffffffffffffffffffffffffffffffffffff16021790555050565b600160009054906101000a900473ffffffffffffffffffffffffffffffffffffffff1681565b60008054906101000a900473ffffffffffffffffffffffffffffffffffffffff1681565b60008054906101000a900473ffffffffffffffffffffffffffffffffffffffff1673ffffffffffffffffffffffffffffffffffffffff166108fc349081150290604051600060405180830381858888f19350505050158015610260573d6000803e3d6000fd5b507fd68606c673aecac7ce24ec44fd7d77b401356dfd76fe9b36cb58e579c4220aed81343260405161029493929190610401565b60405180910390a150565b600160009054906101000a900473ffffffffffffffffffffffffffffffffffffffff1673ffffffffffffffffffffffffffffffffffffffff163373ffffffffffffffffffffffffffffffffffffffff16146102f957600080fd5b80600160006101000a81548173ffffffffffffffffffffffffffffffffffffffff021916908373ffffffffffffffffffffffffffffffffffffffff16021790555050565b60008135905061034c81610486565b92915050565b6000813590506103618161049d565b92915050565b60006020828403121561037957600080fd5b60006103878482850161033d565b91505092915050565b6000602082840312156103a257600080fd5b60006103b084828501610352565b91505092915050565b6103c28161044a565b82525050565b6103d181610438565b82525050565b6103e08161047c565b82525050565b60006020820190506103fb60008301846103b9565b92915050565b600060608201905061041660008301866103d7565b61042360208301856103d7565b61043060408301846103c8565b949350505050565b60006104438261045c565b9050919050565b60006104558261045c565b9050919050565b600073ffffffffffffffffffffffffffffffffffffffff82169050919050565b6000819050919050565b61048f8161044a565b811461049a57600080fd5b50565b6104a68161047c565b81146104b157600080fd5b5056fea2646970667358221220b8e19eba133651a3e105ffb52a6d6182441932a158851abc07a01c7a6ba9e6ad64736f6c63430008040033",
  "linkReferences": {},
  "deployedLinkReferences": {}
}