{
  "_format": "hh-sol-artifact-1",
  "contractName": "Vault",
  "sourceName": "contracts/Vault.sol",
  "abi": [
    {
      "anonymous": false,
      "inputs": [
        {
          "indexed": false,
          "internalType": "address",
          "name": "previousAdmin",
          "type": "address"
        },
        {
          "indexed": false,
          "internalType": "address",
          "name": "newAdmin",
          "type": "address"
        }
      ],
      "name": "AdminChanged",
      "type": "event"
    },
    {
      "anonymous": false,
      "inputs": [
        {
          "indexed": true,
          "internalType": "address",
          "name": "beacon",
          "type": "address"
        }
      ],
      "name": "BeaconUpgraded",
      "type": "event"
    },
    {
      "anonymous": false,
      "inputs": [
        {
          "indexed": false,
          "internalType": "address",
          "name": "vaultAddr",
          "type": "address"
        },
        {
          "indexed": false,
          "internalType": "address",
          "name": "sender",
          "type": "address"
        },
        {
          "indexed": false,
          "internalType": "uint256",
          "name": "deposit",
          "type": "uint256"
        }
      ],
      "name": "NewDeposit",
      "type": "event"
    },
    {
      "anonymous": false,
      "inputs": [
        {
          "indexed": true,
          "internalType": "address",
          "name": "previousOwner",
          "type": "address"
        },
        {
          "indexed": true,
          "internalType": "address",
          "name": "newOwner",
          "type": "address"
        }
      ],
      "name": "OwnershipTransferred",
      "type": "event"
    },
    {
      "anonymous": false,
      "inputs": [
        {
          "indexed": true,
          "internalType": "address",
          "name": "vaultAddr",
          "type": "address"
        },
        {
          "indexed": true,
          "internalType": "address",
          "name": "oracleAddr",
          "type": "address"
        },
        {
          "indexed": false,
          "internalType": "uint256",
          "name": "amount",
          "type": "uint256"
        }
      ],
      "name": "TransferToOracle",
      "type": "event"
    },
    {
      "anonymous": false,
      "inputs": [
        {
          "indexed": true,
          "internalType": "address",
          "name": "implementation",
          "type": "address"
        }
      ],
      "name": "Upgraded",
      "type": "event"
    },
    {
      "inputs": [
        {
          "internalType": "address",
          "name": "_assetAddress",
          "type": "address"
        }
      ],
      "name": "addErc20Asset",
      "outputs": [],
      "stateMutability": "nonpayable",
      "type": "function"
    },
    {
      "inputs": [
        {
          "internalType": "uint256",
          "name": "_amount",
          "type": "uint256"
        },
        {
          "internalType": "address",
          "name": "_user",
          "type": "address"
        }
      ],
      "name": "autoStake",
      "outputs": [],
      "stateMutability": "nonpayable",
      "type": "function"
    },
    {
      "inputs": [
        {
          "internalType": "uint256",
          "name": "_amount",
          "type": "uint256"
        },
        {
          "internalType": "address",
          "name": "_user",
          "type": "address"
        }
      ],
      "name": "claimTokens",
      "outputs": [],
      "stateMutability": "nonpayable",
      "type": "function"
    },
    {
      "inputs": [],
      "name": "distributeTokens",
      "outputs": [],
      "stateMutability": "nonpayable",
      "type": "function"
    },
    {
      "inputs": [],
      "name": "getBalance",
      "outputs": [
        {
          "internalType": "uint256",
          "name": "",
          "type": "uint256"
        }
      ],
      "stateMutability": "view",
      "type": "function"
    },
    {
      "inputs": [],
      "name": "getErc20Assets",
      "outputs": [
        {
          "internalType": "address[]",
          "name": "",
          "type": "address[]"
        }
      ],
      "stateMutability": "view",
      "type": "function"
    },
    {
      "inputs": [],
      "name": "getErc721Address",
      "outputs": [
        {
          "internalType": "address",
          "name": "",
          "type": "address"
        }
      ],
      "stateMutability": "view",
      "type": "function"
    },
    {
      "inputs": [],
      "name": "getErc721Price",
      "outputs": [
        {
          "internalType": "uint256",
          "name": "",
          "type": "uint256"
        }
      ],
      "stateMutability": "view",
      "type": "function"
    },
    {
      "inputs": [
        {
          "internalType": "address",
          "name": "_user",
          "type": "address"
        }
      ],
      "name": "getStake",
      "outputs": [
        {
          "internalType": "uint256",
          "name": "",
          "type": "uint256"
        }
      ],
      "stateMutability": "view",
      "type": "function"
    },
    {
      "inputs": [],
      "name": "getTokenAddress",
      "outputs": [
        {
          "internalType": "address",
          "name": "",
          "type": "address"
        }
      ],
      "stateMutability": "view",
      "type": "function"
    },
    {
      "inputs": [],
      "name": "getTokenName",
      "outputs": [
        {
          "internalType": "string",
          "name": "",
          "type": "string"
        }
      ],
      "stateMutability": "view",
      "type": "function"
    },
    {
      "inputs": [],
      "name": "getTokenTicker",
      "outputs": [
        {
          "internalType": "string",
          "name": "",
          "type": "string"
        }
      ],
      "stateMutability": "view",
      "type": "function"
    },
    {
      "inputs": [
        {
          "internalType": "address",
          "name": "_user",
          "type": "address"
        }
      ],
      "name": "getUserDeposit",
      "outputs": [
        {
          "internalType": "uint256",
          "name": "",
          "type": "uint256"
        }
      ],
      "stateMutability": "view",
      "type": "function"
    },
    {
      "inputs": [
        {
          "internalType": "string",
          "name": "_name",
          "type": "string"
        },
        {
          "internalType": "string",
          "name": "_ticker",
          "type": "string"
        },
        {
          "internalType": "uint256",
          "name": "_shares_amount",
          "type": "uint256"
        }
      ],
      "name": "initialize",
      "outputs": [],
      "stateMutability": "nonpayable",
      "type": "function"
    },
    {
      "inputs": [],
      "name": "initiator",
      "outputs": [
        {
          "internalType": "address",
          "name": "",
          "type": "address"
        }
      ],
      "stateMutability": "view",
      "type": "function"
    },
    {
      "inputs": [],
      "name": "nextStage",
      "outputs": [],
      "stateMutability": "nonpayable",
      "type": "function"
    },
    {
      "inputs": [
        {
          "internalType": "address",
          "name": "operator",
          "type": "address"
        },
        {
          "internalType": "address",
          "name": "from",
          "type": "address"
        },
        {
          "internalType": "uint256",
          "name": "tokenId",
          "type": "uint256"
        },
        {
          "internalType": "bytes",
          "name": "data",
          "type": "bytes"
        }
      ],
      "name": "onERC721Received",
      "outputs": [
        {
          "internalType": "bytes4",
          "name": "",
          "type": "bytes4"
        }
      ],
      "stateMutability": "nonpayable",
      "type": "function"
    },
    {
      "inputs": [],
      "name": "owner",
      "outputs": [
        {
          "internalType": "address",
          "name": "",
          "type": "address"
        }
      ],
      "stateMutability": "view",
      "type": "function"
    },
    {
      "inputs": [
        {
          "internalType": "address",
          "name": "_user",
          "type": "address"
        }
      ],
      "name": "recieveDeposit",
      "outputs": [],
      "stateMutability": "payable",
      "type": "function"
    },
    {
      "inputs": [],
      "name": "recieveTokenPayment",
      "outputs": [],
      "stateMutability": "payable",
      "type": "function"
    },
    {
      "inputs": [],
      "name": "renounceOwnership",
      "outputs": [],
      "stateMutability": "nonpayable",
      "type": "function"
    },
    {
      "inputs": [
        {
          "internalType": "address",
          "name": "_to",
          "type": "address"
        }
      ],
      "name": "sellERC721",
      "outputs": [],
      "stateMutability": "payable",
      "type": "function"
    },
    {
      "inputs": [
        {
          "internalType": "address",
          "name": "_new_initiator",
          "type": "address"
        }
      ],
      "name": "setInitiator",
      "outputs": [],
      "stateMutability": "nonpayable",
      "type": "function"
    },
    {
      "inputs": [
        {
          "internalType": "uint256",
          "name": "_price",
          "type": "uint256"
        }
      ],
      "name": "setTokenPrice",
      "outputs": [],
      "stateMutability": "nonpayable",
      "type": "function"
    },
    {
      "inputs": [],
      "name": "stage",
      "outputs": [
        {
          "internalType": "enum Vault.Stages",
          "name": "",
          "type": "uint8"
        }
      ],
      "stateMutability": "view",
      "type": "function"
    },
    {
      "inputs": [
        {
          "internalType": "uint256",
          "name": "_amount",
          "type": "uint256"
        }
      ],
      "name": "stake",
      "outputs": [],
      "stateMutability": "nonpayable",
      "type": "function"
    },
    {
      "inputs": [],
      "name": "tokenToInitiator",
      "outputs": [],
      "stateMutability": "nonpayable",
      "type": "function"
    },
    {
      "inputs": [
        {
          "internalType": "address",
          "name": "newOwner",
          "type": "address"
        }
      ],
      "name": "transferOwnership",
      "outputs": [],
      "stateMutability": "nonpayable",
      "type": "function"
    },
    {
      "inputs": [
        {
          "internalType": "uint256",
          "name": "_amount",
          "type": "uint256"
        }
      ],
      "name": "transferToOracle",
      "outputs": [],
      "stateMutability": "nonpayable",
      "type": "function"
    },
    {
      "inputs": [
        {
          "internalType": "address",
          "name": "newImplementation",
          "type": "address"
        }
      ],
      "name": "upgradeTo",
      "outputs": [],
      "stateMutability": "nonpayable",
      "type": "function"
    },
    {
      "inputs": [
        {
          "internalType": "address",
          "name": "newImplementation",
          "type": "address"
        },
        {
          "internalType": "bytes",
          "name": "data",
          "type": "bytes"
        }
      ],
      "name": "upgradeToAndCall",
      "outputs": [],
      "stateMutability": "payable",
      "type": "function"
    },
    {
      "inputs": [
        {
          "internalType": "uint256",
          "name": "_amount",
          "type": "uint256"
        }
      ],
      "name": "withdrawDeposit",
      "outputs": [],
      "stateMutability": "nonpayable",
      "type": "function"
    },
    {
      "inputs": [],
      "name": "withdrawFinal",
      "outputs": [],
      "stateMutability": "nonpayable",
      "type": "function"
    }
  ],
  "bytecode": "0x60a06040523060601b60805260d8805461ff001916905534801561002257600080fd5b5060805160601c6141756100566000396000818161090b0152818161094b01528181610aa50152610ae501526141756000f3fe6080604052600436106101ee5760003560e01c806385a383d01161010d578063b61b2c43116100a0578063d59dfd611161006f578063d59dfd6114610550578063dd701b3a14610570578063ee3743ab14610585578063f2fde38b1461059a578063fe54d403146105ba57600080fd5b8063b61b2c43146104d1578063c040e6b8146104d9578063c084b10b14610505578063cc37cc091461053b57600080fd5b80639ebb1250116100dc5780639ebb125014610469578063a67e45251461047e578063a694fc3a14610491578063b119490e146104b157600080fd5b806385a383d0146103f4578063862b092b146104145780638da5cb5b146104365780639ab1b4841461045457600080fd5b80634f1ef286116101855780636a61e5fc116101545780636a61e5fc1461037f5780636e164e231461039f578063715018a6146103bf5780637a766460146103d457600080fd5b80634f1ef28614610319578063521ad8291461032c5780635aac895b1461034c5780635c39fcc11461035f57600080fd5b80631d9a4bf2116101c15780631d9a4bf2146102a257806333289a46146102c45780633659cfe6146102e457806346eba9b31461030457600080fd5b80630bcf70d9146101f357806310fe9ae81461021557806312065fe01461024c578063150b7a0214610269575b600080fd5b3480156101ff57600080fd5b5061021361020e366004612348565b6105cf565b005b34801561022157600080fd5b5060d6546001600160a01b03165b6040516001600160a01b0390911681526020015b60405180910390f35b34801561025857600080fd5b50475b604051908152602001610243565b34801561027557600080fd5b5061028961028436600461215f565b610684565b6040516001600160e01b03199091168152602001610243565b3480156102ae57600080fd5b506102b7610714565b604051610243919061240f565b3480156102d057600080fd5b506102136102df366004612348565b6107ac565b3480156102f057600080fd5b506102136102ff366004612145565b610900565b34801561031057600080fd5b506102136109c9565b6102136103273660046121f5565b610a9a565b34801561033857600080fd5b50610213610347366004612378565b610b54565b61021361035a366004612145565b610bbd565b34801561036b57600080fd5b5060c95461022f906001600160a01b031681565b34801561038b57600080fd5b5061021361039a366004612348565b610ce1565b3480156103ab57600080fd5b506102136103ba366004612378565b610d55565b3480156103cb57600080fd5b50610213610edc565b3480156103e057600080fd5b5061025b6103ef366004612145565b610f12565b34801561040057600080fd5b5061021361040f366004612145565b610f6d565b34801561042057600080fd5b50610429611067565b6040516102439190612484565b34801561044257600080fd5b506033546001600160a01b031661022f565b34801561046057600080fd5b506102136110ed565b34801561047557600080fd5b50610213611361565b61021361048c366004612145565b611456565b34801561049d57600080fd5b506102136104ac366004612348565b6115d8565b3480156104bd57600080fd5b506102136104cc3660046122de565b6117cb565b6102136118fa565b3480156104e557600080fd5b5060d8546104f890610100900460ff1681565b604051610243919061245c565b34801561051157600080fd5b5061025b610520366004612145565b6001600160a01b0316600090815260cb602052604090205490565b34801561054757600080fd5b5061025b611946565b34801561055c57600080fd5b5061021361056b366004612145565b611987565b34801561057c57600080fd5b506104296119e0565b34801561059157600080fd5b50610213611a25565b3480156105a657600080fd5b506102136105b5366004612145565b611ad6565b3480156105c657600080fd5b5061022f611b6e565b60c9546001600160a01b031633146106025760405162461bcd60e51b81526004016105f99061252a565b60405180910390fd5b60c9546040516001600160a01b039091169082156108fc029083906000818181858888f1935050505015801561063c573d6000803e3d6000fd5b5060c9546040518281526001600160a01b039091169030907fec81baf44a01b9ebf929a2549dea1929ade755e2c39675465b7b7af5681adaa99060200160405180910390a350565b600060018060d854610100900460ff1660048111156106b357634e487b7160e01b600052602160045260246000fd5b146106bd57600080fd5b60cf8054336001600160a01b03199182161790915560d080549091166001600160a01b03881617905560d18590556106f760d2858561202a565b50630a85bd0160e11b915061070a611a25565b5095945050505050565b606060018060d854610100900460ff16600481111561074357634e487b7160e01b600052602160045260246000fd5b1461074d57600080fd5b60ce8054604080516020808402820181019092528281529291908301828280156107a057602002820191906000526020600020905b81546001600160a01b03168152600190910190602001808311610782575b505050505091505b5090565b60008060d854610100900460ff1660048111156107d957634e487b7160e01b600052602160045260246000fd5b146107e357600080fd5b33600090815260cb602052604090205461083f5760405162461bcd60e51b815260206004820152601760248201527f546865207573657220686173206e6f206465706f73697400000000000000000060448201526064016105f9565b33600090815260cb60205260409020548211156108aa5760405162461bcd60e51b8152602060048201526024808201527f4e6f7420656e6f756768206465706f736974206f6e207573657227732062616c604482015263616e636560e01b60648201526084016105f9565b33600090815260cb6020526040812080548492906108c9908490612706565b9091555050604051339083156108fc029084906000818181858888f193505050501580156108fb573d6000803e3d6000fd5b505050565b306001600160a01b037f00000000000000000000000000000000000000000000000000000000000000001614156109495760405162461bcd60e51b81526004016105f9906124de565b7f00000000000000000000000000000000000000000000000000000000000000006001600160a01b031661097b611bb8565b6001600160a01b0316146109a15760405162461bcd60e51b81526004016105f990612587565b6109aa81611be6565b604080516000808252602082019092526109c691839190611c10565b50565b60038060d854610100900460ff1660048111156109f657634e487b7160e01b600052602160045260246000fd5b14610a0057600080fd5b60c9546001600160a01b03163314610a2a5760405162461bcd60e51b81526004016105f99061252a565b60cf5460c954604051632142170760e11b81526001600160a01b039283169283926342842e0e92610a6492309216906001906004016123eb565b600060405180830381600087803b158015610a7e57600080fd5b505af1158015610a92573d6000803e3d6000fd5b505050505050565b306001600160a01b037f0000000000000000000000000000000000000000000000000000000000000000161415610ae35760405162461bcd60e51b81526004016105f9906124de565b7f00000000000000000000000000000000000000000000000000000000000000006001600160a01b0316610b15611bb8565b6001600160a01b031614610b3b5760405162461bcd60e51b81526004016105f990612587565b610b4482611be6565b610b5082826001611c10565b5050565b60018060d854610100900460ff166004811115610b8157634e487b7160e01b600052602160045260246000fd5b14610b8b57600080fd5b6001600160a01b038216600090815260cc602052604081208054859290610bb39084906126af565b9091555050505050565b60008060d854610100900460ff166004811115610bea57634e487b7160e01b600052602160045260246000fd5b14610bf457600080fd5b6001600160a01b038216600090815260cb6020526040902054610c5d5760ca80546001810182556000919091527f42d72674974f694b5f5159593243114d38a5c39c89d6b62fee061ff523240ee10180546001600160a01b0319166001600160a01b0384161790555b3460d76000828254610c6f91906126af565b90915550506001600160a01b038216600090815260cb602052604081208054349290610c9c9084906126af565b90915550506040517f83df459d706116d1b3f1c7b7f77cfea4c635275f5d1e1a53827f536ef48db77d90610cd5903090859034906123eb565b60405180910390a15050565b60c9546001600160a01b03163314610d0b5760405162461bcd60e51b81526004016105f99061252a565b60038060d854610100900460ff166004811115610d3857634e487b7160e01b600052602160045260246000fd5b14610d4257600080fd5b5060d35560d8805460ff19166001179055565b60018060d854610100900460ff166004811115610d8257634e487b7160e01b600052602160045260246000fd5b14610d8c57600080fd5b336001600160a01b03831614610da157600080fd5b6001600160a01b038216600090815260cc602052604090205483811015610e4e5760d65460405163a9059cbb60e01b81526001600160a01b038581166004830152602482018490529091169063a9059cbb90604401602060405180830381600087803b158015610e1057600080fd5b505af1158015610e24573d6000803e3d6000fd5b505050506040513d601f19601f82011682018060405250810190610e489190612254565b50610ed6565b60d65460405163a9059cbb60e01b81526001600160a01b038581166004830152602482018790529091169063a9059cbb90604401602060405180830381600087803b158015610e9c57600080fd5b505af1158015610eb0573d6000803e3d6000fd5b505050506040513d601f19601f82011682018060405250810190610ed49190612254565b505b50505050565b6033546001600160a01b03163314610f065760405162461bcd60e51b81526004016105f990612621565b610f106000611d54565b565b600060018060d854610100900460ff166004811115610f4157634e487b7160e01b600052602160045260246000fd5b14610f4b57600080fd5b6001600160a01b038316600090815260cc602052604090205491505b50919050565b6033546001600160a01b03163314610f975760405162461bcd60e51b81526004016105f990612621565b6001600160a01b038116600090815260cd602052604090205460ff16156110005760405162461bcd60e51b815260206004820152601c60248201527f5468697320617373657420697320616c7265616479206c6f636b65640000000060448201526064016105f9565b60ce805460018181019092557fd36cd1c74ef8d7326d8021b776c18fb5a5724b7f7bc93c2f42e43e10ef27d12a0180546001600160a01b039093166001600160a01b031990931683179055600091825260cd6020526040909120805460ff19169091179055565b60d654604080516306fdde0360e01b815290516060926001600160a01b0316916306fdde03916004808301926000929190829003018186803b1580156110ac57600080fd5b505afa1580156110c0573d6000803e3d6000fd5b505050506040513d6000823e601f3d908101601f191682016040526110e89190810190612274565b905090565b60018060d854610100900460ff16600481111561111a57634e487b7160e01b600052602160045260246000fd5b1461112457600080fd5b6033546001600160a01b0316331461114e5760405162461bcd60e51b81526004016105f990612621565b60d75460d654604080516318160ddd60e01b81529051600093926001600160a01b0316916318160ddd916004808301926020929190829003018186803b15801561119757600080fd5b505afa1580156111ab573d6000803e3d6000fd5b505050506040513d601f19601f820116820180604052508101906111cf9190612360565b6111d991906126c7565b60d654604080516318160ddd60e01b815290519293506001600160a01b039091169163095ea7b391309184916318160ddd916004808301926020929190829003018186803b15801561122a57600080fd5b505afa15801561123e573d6000803e3d6000fd5b505050506040513d601f19601f820116820180604052508101906112629190612360565b6040516001600160e01b031960e085901b1681526001600160a01b0390921660048301526024820152604401602060405180830381600087803b1580156112a857600080fd5b505af11580156112bc573d6000803e3d6000fd5b505050506040513d601f19601f820116820180604052508101906112e09190612254565b5060005b60ca548110156108fb57600060ca828154811061131157634e487b7160e01b600052603260045260246000fd5b60009182526020808320909101546001600160a01b031680835260cb90915260409091205490915061134e906113489085906126e7565b82610b54565b50806113598161277e565b9150506112e4565b60048060d854610100900460ff16600481111561138e57634e487b7160e01b600052602160045260246000fd5b1461139857600080fd5b33600090815260cb60205260409020546113f45760405162461bcd60e51b815260206004820152601f60248201527f546869732075736572206973206e6f742061207061727469636970616e742e0060448201526064016105f9565b33600090815260cb602052604081205460d75461141191906126c7565b905060008160cf6006015461142691906126c7565b604051909150339082156108fc029083906000818181858888f19350505050158015610ed6573d6000803e3d6000fd5b60038060d854610100900460ff16600481111561148357634e487b7160e01b600052602160045260246000fd5b1461148d57600080fd5b60d35434146114ec5760405162461bcd60e51b815260206004820152602560248201527f53656e6420746865206163637572617465207072696365206f66207468652061604482015264737365742160d81b60648201526084016105f9565b60d85460ff16151560011461153b5760405162461bcd60e51b8152602060048201526015602482015274546865207072696365206973206e6f74207365742160581b60448201526064016105f9565b60cf54604051632142170760e11b81526001600160a01b039091169081906342842e0e9061157290309087906001906004016123eb565b600060405180830381600087803b15801561158c57600080fd5b505af11580156115a0573d6000803e3d6000fd5b505060d480546001600160a01b0319166001600160a01b03871617905550349050476115cc91906126af565b60d55550610b50611a25565b60018060d854610100900460ff16600481111561160557634e487b7160e01b600052602160045260246000fd5b1461160f57600080fd5b60d654604051636eb1769f60e11b815233600482015230602482015283916001600160a01b03169063dd62ed3e9060440160206040518083038186803b15801561165857600080fd5b505afa15801561166c573d6000803e3d6000fd5b505050506040513d601f19601f820116820180604052508101906116909190612360565b101561171c5760d65460405163095ea7b360e01b8152306004820152602481018490526001600160a01b039091169063095ea7b390604401602060405180830381600087803b1580156116e257600080fd5b505af11580156116f6573d6000803e3d6000fd5b505050506040513d601f19601f8201168201806040525081019061171a9190612254565b505b60d6546040516323b872dd60e01b81526001600160a01b03909116906323b872dd90611750903390309087906004016123eb565b602060405180830381600087803b15801561176a57600080fd5b505af115801561177e573d6000803e3d6000fd5b505050506040513d601f19601f820116820180604052508101906117a29190612254565b5033600090815260cc6020526040812080548492906117c29084906126af565b90915550505050565b600054610100900460ff16806117e4575060005460ff16155b6118005760405162461bcd60e51b81526004016105f9906125d3565b600054610100900460ff16158015611822576000805461ffff19166101011790555b61182a611da6565b604051611836906120aa565b604051809103906000f080158015611852573d6000803e3d6000fd5b5060d680546001600160a01b0319166001600160a01b03929092169182179055604051635e9d09fb60e11b815263bd3a13f690611899908790879087903090600401612497565b600060405180830381600087803b1580156118b357600080fd5b505af11580156118c7573d6000803e3d6000fd5b505060d6546001600160a01b031691506118e2905081610f6d565b508015610ed6576000805461ff001916905550505050565b60038060d854610100900460ff16600481111561192757634e487b7160e01b600052602160045260246000fd5b1461193157600080fd5b61193b34476126af565b60d5556109c6611a25565b600060038060d854610100900460ff16600481111561197557634e487b7160e01b600052602160045260246000fd5b1461197f57600080fd5b505060d35490565b6033546001600160a01b031633146119b15760405162461bcd60e51b81526004016105f990612621565b6001600160a01b038116156109c65760c980546001600160a01b0383166001600160a01b031990911617905550565b60d654604080516395d89b4160e01b815290516060926001600160a01b0316916395d89b41916004808301926000929190829003018186803b1580156110ac57600080fd5b60c9546001600160a01b03163314611a4f5760405162461bcd60e51b81526004016105f99061252a565b60d854610100900460ff166004811115611a7957634e487b7160e01b600052602160045260246000fd5b611a849060016126af565b6004811115611aa357634e487b7160e01b600052602160045260246000fd5b60d8805461ff001916610100836004811115611acf57634e487b7160e01b600052602160045260246000fd5b0217905550565b6033546001600160a01b03163314611b005760405162461bcd60e51b81526004016105f990612621565b6001600160a01b038116611b655760405162461bcd60e51b815260206004820152602660248201527f4f776e61626c653a206e6577206f776e657220697320746865207a65726f206160448201526564647265737360d01b60648201526084016105f9565b6109c681611d54565b600060038060d854610100900460ff166004811115611b9d57634e487b7160e01b600052602160045260246000fd5b14611ba757600080fd5b505060cf546001600160a01b031690565b7f360894a13ba1a3210667c828492db98dca3e2076cc3735a920a3ca505d382bbc546001600160a01b031690565b6033546001600160a01b031633146109c65760405162461bcd60e51b81526004016105f990612621565b6000611c1a611bb8565b9050611c2584611e1a565b600083511180611c325750815b15611c4357611c418484611ebf565b505b7f4910fdfa16fed3260ed0e7147f7cc6da11a60208b5b9406d12a635614ffd9143805460ff16610ed457805460ff191660011781556040516001600160a01b0383166024820152611cc290869060440160408051601f198184030181529190526020810180516001600160e01b0316631b2ce7f360e11b179052611ebf565b50805460ff19168155611cd3611bb8565b6001600160a01b0316826001600160a01b031614611d4b5760405162461bcd60e51b815260206004820152602f60248201527f45524331393637557067726164653a207570677261646520627265616b73206660448201526e75727468657220757067726164657360881b60648201526084016105f9565b610ed485611faa565b603380546001600160a01b038381166001600160a01b0319831681179093556040519116919082907f8be0079c531659141344cd1fd0a4f28419497f9722a3daafe3b4186f6b6457e090600090a35050565b600054610100900460ff1680611dbf575060005460ff16155b611ddb5760405162461bcd60e51b81526004016105f9906125d3565b600054610100900460ff16158015611dfd576000805461ffff19166101011790555b611e0633611d54565b80156109c6576000805461ff001916905550565b803b611e7e5760405162461bcd60e51b815260206004820152602d60248201527f455243313936373a206e657720696d706c656d656e746174696f6e206973206e60448201526c1bdd08184818dbdb9d1c9858dd609a1b60648201526084016105f9565b7f360894a13ba1a3210667c828492db98dca3e2076cc3735a920a3ca505d382bbc80546001600160a01b0319166001600160a01b0392909216919091179055565b6060823b611f1e5760405162461bcd60e51b815260206004820152602660248201527f416464726573733a2064656c65676174652063616c6c20746f206e6f6e2d636f6044820152651b9d1c9858dd60d21b60648201526084016105f9565b600080846001600160a01b031684604051611f3991906123cf565b600060405180830381855af49150503d8060008114611f74576040519150601f19603f3d011682016040523d82523d6000602084013e611f79565b606091505b5091509150611fa1828260405180606001604052806027815260200161411960279139611fea565b95945050505050565b611fb381611e1a565b6040516001600160a01b038216907fbc7cd75a20ee27fd9adebab32041f755214dbc6bffa90cc0225b39da2e5c2d3b90600090a250565b60608315611ff9575081612023565b8251156120095782518084602001fd5b8160405162461bcd60e51b81526004016105f99190612484565b9392505050565b82805461203690612749565b90600052602060002090601f016020900481019282612058576000855561209e565b82601f106120715782800160ff1982351617855561209e565b8280016001018555821561209e579182015b8281111561209e578235825591602001919060010190612083565b506107a89291506120b7565b611953806127c683390190565b5b808211156107a857600081556001016120b8565b60006120df6120da84612687565b612656565b90508281528383830111156120f357600080fd5b828260208301376000602084830101529392505050565b80356001600160a01b038116811461212157600080fd5b919050565b600082601f830112612136578081fd5b612023838335602085016120cc565b600060208284031215612156578081fd5b6120238261210a565b600080600080600060808688031215612176578081fd5b61217f8661210a565b945061218d6020870161210a565b935060408601359250606086013567ffffffffffffffff808211156121b0578283fd5b818801915088601f8301126121c3578283fd5b8135818111156121d1578384fd5b8960208285010111156121e2578384fd5b9699959850939650602001949392505050565b60008060408385031215612207578182fd5b6122108361210a565b9150602083013567ffffffffffffffff81111561222b578182fd5b8301601f8101851361223b578182fd5b61224a858235602084016120cc565b9150509250929050565b600060208284031215612265578081fd5b81518015158114612023578182fd5b600060208284031215612285578081fd5b815167ffffffffffffffff81111561229b578182fd5b8201601f810184136122ab578182fd5b80516122b96120da82612687565b8181528560208385010111156122cd578384fd5b611fa182602083016020860161271d565b6000806000606084860312156122f2578283fd5b833567ffffffffffffffff80821115612309578485fd5b61231587838801612126565b9450602086013591508082111561232a578384fd5b5061233786828701612126565b925050604084013590509250925092565b600060208284031215612359578081fd5b5035919050565b600060208284031215612371578081fd5b5051919050565b6000806040838503121561238a578182fd5b8235915061239a6020840161210a565b90509250929050565b600081518084526123bb81602086016020860161271d565b601f01601f19169290920160200192915050565b600082516123e181846020870161271d565b9190910192915050565b6001600160a01b039384168152919092166020820152604081019190915260600190565b6020808252825182820181905260009190848201906040850190845b818110156124505783516001600160a01b03168352928401929184019160010161242b565b50909695505050505050565b602081016005831061247e57634e487b7160e01b600052602160045260246000fd5b91905290565b60208152600061202360208301846123a3565b6080815260006124aa60808301876123a3565b82810360208401526124bc81876123a3565b604084019590955250506001600160a01b039190911660609091015292915050565b6020808252602c908201527f46756e6374696f6e206d7573742062652063616c6c6564207468726f7567682060408201526b19195b1959d85d1958d85b1b60a21b606082015260800190565b6020808252603f908201527f546f2072756e2074686973206d6574686f6420796f75206e65656420746f206260408201527f6520616e20696e69746961746f72206f662074686520636f6e74726163742e00606082015260800190565b6020808252602c908201527f46756e6374696f6e206d7573742062652063616c6c6564207468726f7567682060408201526b6163746976652070726f787960a01b606082015260800190565b6020808252602e908201527f496e697469616c697a61626c653a20636f6e747261637420697320616c72656160408201526d191e481a5b9a5d1a585b1a5e995960921b606082015260800190565b6020808252818101527f4f776e61626c653a2063616c6c6572206973206e6f7420746865206f776e6572604082015260600190565b604051601f8201601f1916810167ffffffffffffffff8111828210171561267f5761267f6127af565b604052919050565b600067ffffffffffffffff8211156126a1576126a16127af565b50601f01601f191660200190565b600082198211156126c2576126c2612799565b500190565b6000826126e257634e487b7160e01b81526012600452602481fd5b500490565b600081600019048311821515161561270157612701612799565b500290565b60008282101561271857612718612799565b500390565b60005b83811015612738578181015183820152602001612720565b83811115610ed65750506000910152565b600181811c9082168061275d57607f821691505b60208210811415610f6757634e487b7160e01b600052602260045260246000fd5b600060001982141561279257612792612799565b5060010190565b634e487b7160e01b600052601160045260246000fd5b634e487b7160e01b600052604160045260246000fdfe60a06040523060601b60805234801561001757600080fd5b5060805160601c61190861004b600039600081816104ec0152818161052c01528181610629015261066901526119086000f3fe6080604052600436106101095760003560e01c806370a0823111610095578063a457c2d711610064578063a457c2d7146102c1578063a9059cbb146102e1578063bd3a13f614610301578063dd62ed3e14610321578063f2fde38b1461036757600080fd5b806370a0823114610239578063715018a61461026f5780638da5cb5b1461028457806395d89b41146102ac57600080fd5b8063313ce567116100dc578063313ce567146101a85780633659cfe6146101c457806339509351146101e657806340c10f19146102065780634f1ef2861461022657600080fd5b806306fdde031461010e578063095ea7b31461013957806318160ddd1461016957806323b872dd14610188575b600080fd5b34801561011a57600080fd5b50610123610387565b60405161013091906115a5565b60405180910390f35b34801561014557600080fd5b506101596101543660046114e5565b610419565b6040519015158152602001610130565b34801561017557600080fd5b506035545b604051908152602001610130565b34801561019457600080fd5b506101596101a336600461144b565b610430565b3480156101b457600080fd5b5060405160128152602001610130565b3480156101d057600080fd5b506101e46101df3660046113ff565b6104e1565b005b3480156101f257600080fd5b506101596102013660046114e5565b6105aa565b34801561021257600080fd5b506101e46102213660046114e5565b6105e6565b6101e4610234366004611486565b61061e565b34801561024557600080fd5b5061017a6102543660046113ff565b6001600160a01b031660009081526033602052604090205490565b34801561027b57600080fd5b506101e46106d4565b34801561029057600080fd5b506065546040516001600160a01b039091168152602001610130565b3480156102b857600080fd5b5061012361070a565b3480156102cd57600080fd5b506101596102dc3660046114e5565b610719565b3480156102ed57600080fd5b506101596102fc3660046114e5565b6107b2565b34801561030d57600080fd5b506101e461031c36600461150e565b6107bf565b34801561032d57600080fd5b5061017a61033c366004611419565b6001600160a01b03918216600090815260346020908152604080832093909416825291909152205490565b34801561037357600080fd5b506101e46103823660046113ff565b610860565b60606036805461039690611844565b80601f01602080910402602001604051908101604052809291908181526020018280546103c290611844565b801561040f5780601f106103e45761010080835404028352916020019161040f565b820191906000526020600020905b8154815290600101906020018083116103f257829003601f168201915b5050505050905090565b60006104263384846108f8565b5060015b92915050565b600061043d848484610a1c565b6001600160a01b0384166000908152603460209081526040808320338452909152902054828110156104c75760405162461bcd60e51b815260206004820152602860248201527f45524332303a207472616e7366657220616d6f756e74206578636565647320616044820152676c6c6f77616e636560c01b60648201526084015b60405180910390fd5b6104d485338584036108f8565b60019150505b9392505050565b306001600160a01b037f000000000000000000000000000000000000000000000000000000000000000016141561052a5760405162461bcd60e51b81526004016104be906115d8565b7f00000000000000000000000000000000000000000000000000000000000000006001600160a01b031661055c610bec565b6001600160a01b0316146105825760405162461bcd60e51b81526004016104be90611624565b61058b81610c1a565b604080516000808252602082019092526105a791839190610c44565b50565b3360008181526034602090815260408083206001600160a01b038716845290915281205490916104269185906105e19086906116f3565b6108f8565b6065546001600160a01b031633146106105760405162461bcd60e51b81526004016104be906116be565b61061a8282610d88565b5050565b306001600160a01b037f00000000000000000000000000000000000000000000000000000000000000001614156106675760405162461bcd60e51b81526004016104be906115d8565b7f00000000000000000000000000000000000000000000000000000000000000006001600160a01b0316610699610bec565b6001600160a01b0316146106bf5760405162461bcd60e51b81526004016104be90611624565b6106c882610c1a565b61061a82826001610c44565b6065546001600160a01b031633146106fe5760405162461bcd60e51b81526004016104be906116be565b6107086000610e67565b565b60606037805461039690611844565b3360009081526034602090815260408083206001600160a01b03861684529091528120548281101561079b5760405162461bcd60e51b815260206004820152602560248201527f45524332303a2064656372656173656420616c6c6f77616e63652062656c6f77604482015264207a65726f60d81b60648201526084016104be565b6107a833858584036108f8565b5060019392505050565b6000610426338484610a1c565b600054610100900460ff16806107d8575060005460ff16155b6107f45760405162461bcd60e51b81526004016104be90611670565b600054610100900460ff16158015610816576000805461ffff19166101011790555b6108208585610eb9565b610828610f39565b610847826108386012600a61174e565b61084290866117f9565b610d88565b8015610859576000805461ff00191690555b5050505050565b6065546001600160a01b0316331461088a5760405162461bcd60e51b81526004016104be906116be565b6001600160a01b0381166108ef5760405162461bcd60e51b815260206004820152602660248201527f4f776e61626c653a206e6577206f776e657220697320746865207a65726f206160448201526564647265737360d01b60648201526084016104be565b6105a781610e67565b6001600160a01b03831661095a5760405162461bcd60e51b8152602060048201526024808201527f45524332303a20617070726f76652066726f6d20746865207a65726f206164646044820152637265737360e01b60648201526084016104be565b6001600160a01b0382166109bb5760405162461bcd60e51b815260206004820152602260248201527f45524332303a20617070726f766520746f20746865207a65726f206164647265604482015261737360f01b60648201526084016104be565b6001600160a01b0383811660008181526034602090815260408083209487168084529482529182902085905590518481527f8c5be1e5ebec7d5bd14f71427d1e84f3dd0314c0f7b2291e5b200ac8c7c3b925910160405180910390a3505050565b6001600160a01b038316610a805760405162461bcd60e51b815260206004820152602560248201527f45524332303a207472616e736665722066726f6d20746865207a65726f206164604482015264647265737360d81b60648201526084016104be565b6001600160a01b038216610ae25760405162461bcd60e51b815260206004820152602360248201527f45524332303a207472616e7366657220746f20746865207a65726f206164647260448201526265737360e81b60648201526084016104be565b6001600160a01b03831660009081526033602052604090205481811015610b5a5760405162461bcd60e51b815260206004820152602660248201527f45524332303a207472616e7366657220616d6f756e7420657863656564732062604482015265616c616e636560d01b60648201526084016104be565b6001600160a01b03808516600090815260336020526040808220858503905591851681529081208054849290610b919084906116f3565b92505081905550826001600160a01b0316846001600160a01b03167fddf252ad1be2c89b69c2b068fc378daa952ba7f163c4a11628f55a4df523b3ef84604051610bdd91815260200190565b60405180910390a35b50505050565b7f360894a13ba1a3210667c828492db98dca3e2076cc3735a920a3ca505d382bbc546001600160a01b031690565b6065546001600160a01b031633146105a75760405162461bcd60e51b81526004016104be906116be565b6000610c4e610bec565b9050610c5984610fad565b600083511180610c665750815b15610c7757610c758484611052565b505b7f4910fdfa16fed3260ed0e7147f7cc6da11a60208b5b9406d12a635614ffd9143805460ff1661085957805460ff191660011781556040516001600160a01b0383166024820152610cf690869060440160408051601f198184030181529190526020810180516001600160e01b0316631b2ce7f360e11b179052611052565b50805460ff19168155610d07610bec565b6001600160a01b0316826001600160a01b031614610d7f5760405162461bcd60e51b815260206004820152602f60248201527f45524331393637557067726164653a207570677261646520627265616b73206660448201526e75727468657220757067726164657360881b60648201526084016104be565b6108598561113d565b6001600160a01b038216610dde5760405162461bcd60e51b815260206004820152601f60248201527f45524332303a206d696e7420746f20746865207a65726f20616464726573730060448201526064016104be565b8060356000828254610df091906116f3565b90915550506001600160a01b03821660009081526033602052604081208054839290610e1d9084906116f3565b90915550506040518181526001600160a01b038316906000907fddf252ad1be2c89b69c2b068fc378daa952ba7f163c4a11628f55a4df523b3ef9060200160405180910390a35050565b606580546001600160a01b038381166001600160a01b0319831681179093556040519116919082907f8be0079c531659141344cd1fd0a4f28419497f9722a3daafe3b4186f6b6457e090600090a35050565b600054610100900460ff1680610ed2575060005460ff16155b610eee5760405162461bcd60e51b81526004016104be90611670565b600054610100900460ff16158015610f10576000805461ffff19166101011790555b610f1861117d565b610f2283836111e7565b8015610f34576000805461ff00191690555b505050565b600054610100900460ff1680610f52575060005460ff16155b610f6e5760405162461bcd60e51b81526004016104be90611670565b600054610100900460ff16158015610f90576000805461ffff19166101011790555b610f9933610e67565b80156105a7576000805461ff001916905550565b803b6110115760405162461bcd60e51b815260206004820152602d60248201527f455243313936373a206e657720696d706c656d656e746174696f6e206973206e60448201526c1bdd08184818dbdb9d1c9858dd609a1b60648201526084016104be565b7f360894a13ba1a3210667c828492db98dca3e2076cc3735a920a3ca505d382bbc80546001600160a01b0319166001600160a01b0392909216919091179055565b6060823b6110b15760405162461bcd60e51b815260206004820152602660248201527f416464726573733a2064656c65676174652063616c6c20746f206e6f6e2d636f6044820152651b9d1c9858dd60d21b60648201526084016104be565b600080846001600160a01b0316846040516110cc9190611589565b600060405180830381855af49150503d8060008114611107576040519150601f19603f3d011682016040523d82523d6000602084013e61110c565b606091505b509150915061113482826040518060600160405280602781526020016118ac6027913961127c565b95945050505050565b61114681610fad565b6040516001600160a01b038216907fbc7cd75a20ee27fd9adebab32041f755214dbc6bffa90cc0225b39da2e5c2d3b90600090a250565b600054610100900460ff1680611196575060005460ff16155b6111b25760405162461bcd60e51b81526004016104be90611670565b600054610100900460ff16158015610f99576000805461ffff191661010117905580156105a7576000805461ff001916905550565b600054610100900460ff1680611200575060005460ff16155b61121c5760405162461bcd60e51b81526004016104be90611670565b600054610100900460ff1615801561123e576000805461ffff19166101011790555b82516112519060369060208601906112b5565b5081516112659060379060208501906112b5565b508015610f34576000805461ff0019169055505050565b6060831561128b5750816104da565b82511561129b5782518084602001fd5b8160405162461bcd60e51b81526004016104be91906115a5565b8280546112c190611844565b90600052602060002090601f0160209004810192826112e35760008555611329565b82601f106112fc57805160ff1916838001178555611329565b82800160010185558215611329579182015b8281111561132957825182559160200191906001019061130e565b50611335929150611339565b5090565b5b80821115611335576000815560010161133a565b600067ffffffffffffffff8084111561136957611369611895565b604051601f8501601f19908116603f0116810190828211818310171561139157611391611895565b816040528093508581528686860111156113aa57600080fd5b858560208301376000602087830101525050509392505050565b80356001600160a01b03811681146113db57600080fd5b919050565b600082601f8301126113f0578081fd5b6104da8383356020850161134e565b600060208284031215611410578081fd5b6104da826113c4565b6000806040838503121561142b578081fd5b611434836113c4565b9150611442602084016113c4565b90509250929050565b60008060006060848603121561145f578081fd5b611468846113c4565b9250611476602085016113c4565b9150604084013590509250925092565b60008060408385031215611498578182fd5b6114a1836113c4565b9150602083013567ffffffffffffffff8111156114bc578182fd5b8301601f810185136114cc578182fd5b6114db8582356020840161134e565b9150509250929050565b600080604083850312156114f7578182fd5b611500836113c4565b946020939093013593505050565b60008060008060808587031215611523578081fd5b843567ffffffffffffffff8082111561153a578283fd5b611546888389016113e0565b9550602087013591508082111561155b578283fd5b50611568878288016113e0565b9350506040850135915061157e606086016113c4565b905092959194509250565b6000825161159b818460208701611818565b9190910192915050565b60208152600082518060208401526115c4816040850160208701611818565b601f01601f19169190910160400192915050565b6020808252602c908201527f46756e6374696f6e206d7573742062652063616c6c6564207468726f7567682060408201526b19195b1959d85d1958d85b1b60a21b606082015260800190565b6020808252602c908201527f46756e6374696f6e206d7573742062652063616c6c6564207468726f7567682060408201526b6163746976652070726f787960a01b606082015260800190565b6020808252602e908201527f496e697469616c697a61626c653a20636f6e747261637420697320616c72656160408201526d191e481a5b9a5d1a585b1a5e995960921b606082015260800190565b6020808252818101527f4f776e61626c653a2063616c6c6572206973206e6f7420746865206f776e6572604082015260600190565b600082198211156117065761170661187f565b500190565b600181815b8085111561174657816000190482111561172c5761172c61187f565b8085161561173957918102915b93841c9390800290611710565b509250929050565b60006104da60ff8416836000826117675750600161042a565b816117745750600061042a565b816001811461178a5760028114611794576117b0565b600191505061042a565b60ff8411156117a5576117a561187f565b50506001821b61042a565b5060208310610133831016604e8410600b84101617156117d3575081810a61042a565b6117dd838361170b565b80600019048211156117f1576117f161187f565b029392505050565b60008160001904831182151516156118135761181361187f565b500290565b60005b8381101561183357818101518382015260200161181b565b83811115610be65750506000910152565b600181811c9082168061185857607f821691505b6020821081141561187957634e487b7160e01b600052602260045260246000fd5b50919050565b634e487b7160e01b600052601160045260246000fd5b634e487b7160e01b600052604160045260246000fdfe416464726573733a206c6f772d6c6576656c2064656c65676174652063616c6c206661696c6564a2646970667358221220a4d4c08a632906d4cae7629edaa73d8c30e3cc8576c3e0f57d8e2405d2e18edf64736f6c63430008040033416464726573733a206c6f772d6c6576656c2064656c65676174652063616c6c206661696c6564a26469706673582212202f8959ab4575393baa74bd7407fa950b6a453e08b7bc5fb2e7338a9e14aab82864736f6c63430008040033",
  "linkReferences": {},
  "deployedLinkReferences": {}
}