{
  "_format": "hh-sol-artifact-1",
  "contractName": "Vault",
  "sourceName": "contracts/Vault.sol",
  "abi": [
    {
      "inputs": [
        {
          "internalType": "address payable",
          "name": "executor_",
          "type": "address"
        },
        {
          "internalType": "address payable",
          "name": "multisig_",
          "type": "address"
        }
      ],
      "stateMutability": "nonpayable",
      "type": "constructor"
    },
    {
      "anonymous": false,
      "inputs": [
        {
          "indexed": false,
          "internalType": "bool",
          "name": "deposit",
          "type": "bool"
        },
        {
          "indexed": false,
          "internalType": "uint256",
          "name": "fundraising",
          "type": "uint256"
        },
        {
          "indexed": false,
          "internalType": "address",
          "name": "addr",
          "type": "address"
        },
        {
          "indexed": false,
          "internalType": "uint256",
          "name": "amount",
          "type": "uint256"
        }
      ],
      "name": "Transaction",
      "type": "event"
    },
    {
      "stateMutability": "nonpayable",
      "type": "fallback"
    },
    {
      "inputs": [
        {
          "internalType": "uint256",
          "name": "fundraising_id_",
          "type": "uint256"
        }
      ],
      "name": "deposit",
      "outputs": [],
      "stateMutability": "payable",
      "type": "function"
    },
    {
      "inputs": [],
      "name": "executor",
      "outputs": [
        {
          "internalType": "address payable",
          "name": "",
          "type": "address"
        }
      ],
      "stateMutability": "view",
      "type": "function"
    },
    {
      "inputs": [
        {
          "internalType": "uint256",
          "name": "fundraising_id_",
          "type": "uint256"
        },
        {
          "internalType": "address",
          "name": "depositor_",
          "type": "address"
        }
      ],
      "name": "fundraising",
      "outputs": [
        {
          "components": [
            {
              "internalType": "uint256",
              "name": "id",
              "type": "uint256"
            },
            {
              "internalType": "bool",
              "name": "locked",
              "type": "bool"
            },
            {
              "internalType": "uint256",
              "name": "total",
              "type": "uint256"
            },
            {
              "internalType": "uint256",
              "name": "deposit",
              "type": "uint256"
            }
          ],
          "internalType": "struct Vault.Fundraising",
          "name": "",
          "type": "tuple"
        }
      ],
      "stateMutability": "view",
      "type": "function"
    },
    {
      "inputs": [],
      "name": "gas_delta",
      "outputs": [
        {
          "internalType": "uint256",
          "name": "",
          "type": "uint256"
        }
      ],
      "stateMutability": "view",
      "type": "function"
    },
    {
      "inputs": [],
      "name": "gas_tank",
      "outputs": [
        {
          "internalType": "uint256",
          "name": "",
          "type": "uint256"
        }
      ],
      "stateMutability": "view",
      "type": "function"
    },
    {
      "inputs": [],
      "name": "initial_gas_tank",
      "outputs": [
        {
          "internalType": "uint256",
          "name": "",
          "type": "uint256"
        }
      ],
      "stateMutability": "view",
      "type": "function"
    },
    {
      "inputs": [],
      "name": "multisig",
      "outputs": [
        {
          "internalType": "address payable",
          "name": "",
          "type": "address"
        }
      ],
      "stateMutability": "view",
      "type": "function"
    },
    {
      "inputs": [
        {
          "internalType": "uint256",
          "name": "amount_",
          "type": "uint256"
        }
      ],
      "name": "request_fees_payback",
      "outputs": [],
      "stateMutability": "nonpayable",
      "type": "function"
    },
    {
      "inputs": [
        {
          "internalType": "address payable",
          "name": "executor_",
          "type": "address"
        }
      ],
      "name": "set_executor",
      "outputs": [],
      "stateMutability": "nonpayable",
      "type": "function"
    },
    {
      "inputs": [
        {
          "internalType": "address payable",
          "name": "multisig_",
          "type": "address"
        }
      ],
      "name": "set_multisig",
      "outputs": [],
      "stateMutability": "nonpayable",
      "type": "function"
    },
    {
      "inputs": [],
      "name": "top_up_tank",
      "outputs": [],
      "stateMutability": "payable",
      "type": "function"
    },
    {
      "inputs": [
        {
          "internalType": "uint256",
          "name": "fundraising_id_",
          "type": "uint256"
        },
        {
          "internalType": "uint256",
          "name": "amount_",
          "type": "uint256"
        }
      ],
      "name": "withdraw",
      "outputs": [],
      "stateMutability": "nonpayable",
      "type": "function"
    },
    {
      "inputs": [
        {
          "internalType": "uint256",
          "name": "fundraising_id_",
          "type": "uint256"
        }
      ],
      "name": "withdraw_commission",
      "outputs": [],
      "stateMutability": "nonpayable",
      "type": "function"
    }
  ],
  "bytecode": "0x60806040523480156200001157600080fd5b5060405162001439380380620014398339818101604052810190620000379190620000e6565b816000806101000a81548173ffffffffffffffffffffffffffffffffffffffff021916908373ffffffffffffffffffffffffffffffffffffffff16021790555080600160006101000a81548173ffffffffffffffffffffffffffffffffffffffff021916908373ffffffffffffffffffffffffffffffffffffffff160217905550670de0b6b3a7640000600281905550505062000175565b600081519050620000e0816200015b565b92915050565b60008060408385031215620000fa57600080fd5b60006200010a85828601620000cf565b92505060206200011d85828601620000cf565b9150509250929050565b600062000134826200013b565b9050919050565b600073ffffffffffffffffffffffffffffffffffffffff82169050919050565b620001668162000127565b81146200017257600080fd5b50565b6112b480620001856000396000f3fe6080604052600436106100c65760003560e01c806363e6f0801161007f578063b6b55f2511610059578063b6b55f2514610242578063bfac43301461025e578063c34c08e514610289578063e8c5d0a3146102b4576100c7565b806363e6f080146101b15780637fab0537146101dc57806381dddf0414610219576100c7565b80630ea12824146100d6578063117fc55f146100e05780633ee1639614610109578063441a3e70146101325780634783c35b1461015b5780635c8a256014610186576100c7565b5b3480156100d357600080fd5b50005b6100de6102dd565b005b3480156100ec57600080fd5b5061010760048036038101906101029190610c35565b6102f8565b005b34801561011557600080fd5b50610130600480360381019061012b9190610c0c565b6103ff565b005b34801561013e57600080fd5b5061015960048036038101906101549190610c9a565b61049c565b005b34801561016757600080fd5b50610170610710565b60405161017d9190610e6c565b60405180910390f35b34801561019257600080fd5b5061019b610736565b6040516101a89190610f87565b60405180910390f35b3480156101bd57600080fd5b506101c661074d565b6040516101d39190610f87565b60405180910390f35b3480156101e857600080fd5b5061020360048036038101906101fe9190610c5e565b610753565b6040516102109190610f6c565b60405180910390f35b34801561022557600080fd5b50610240600480360381019061023b9190610c35565b610809565b005b61025c60048036038101906102579190610c35565b6109a8565b005b34801561026a57600080fd5b50610273610adb565b6040516102809190610f87565b60405180910390f35b34801561029557600080fd5b5061029e610ae1565b6040516102ab9190610e6c565b60405180910390f35b3480156102c057600080fd5b506102db60048036038101906102d69190610c0c565b610b05565b005b34600360008282546102ef9190610fbe565b92505081905550565b60008054906101000a900473ffffffffffffffffffffffffffffffffffffffff1673ffffffffffffffffffffffffffffffffffffffff163373ffffffffffffffffffffffffffffffffffffffff161461035057600080fd5b600354811115610395576040517f08c379a000000000000000000000000000000000000000000000000000000000815260040161038c90610eec565b60405180910390fd5b60008054906101000a900473ffffffffffffffffffffffffffffffffffffffff1673ffffffffffffffffffffffffffffffffffffffff166108fc829081150290604051600060405180830381858888f193505050501580156103fb573d6000803e3d6000fd5b5050565b600160009054906101000a900473ffffffffffffffffffffffffffffffffffffffff1673ffffffffffffffffffffffffffffffffffffffff163373ffffffffffffffffffffffffffffffffffffffff161461045957600080fd5b806000806101000a81548173ffffffffffffffffffffffffffffffffffffffff021916908373ffffffffffffffffffffffffffffffffffffffff16021790555050565b6006600083815260200190815260200160002060009054906101000a900460ff16156104fd576040517f08c379a00000000000000000000000000000000000000000000000000000000081526004016104f490610f0c565b60405180910390fd5b806004600084815260200190815260200160002060003373ffffffffffffffffffffffffffffffffffffffff1673ffffffffffffffffffffffffffffffffffffffff168152602001908152602001600020541015610590576040517f08c379a000000000000000000000000000000000000000000000000000000000815260040161058790610ecc565b60405180910390fd5b806004600084815260200190815260200160002060003373ffffffffffffffffffffffffffffffffffffffff1673ffffffffffffffffffffffffffffffffffffffff16815260200190815260200160002060008282546105f09190611014565b925050819055508060056000848152602001908152602001600020600082825461061a9190611014565b9250508190555060003373ffffffffffffffffffffffffffffffffffffffff168260405161064790610e57565b60006040518083038185875af1925050503d8060008114610684576040519150601f19603f3d011682016040523d82523d6000602084013e610689565b606091505b50509050806106cd576040517f08c379a00000000000000000000000000000000000000000000000000000000081526004016106c490610f2c565b60405180910390fd5b7f493902cc71cdb9f23fb20e1f7ed6c617f5627d43b1aa503cf3e287e444aafe9960008433856040516107039493929190610e87565b60405180910390a1505050565b600160009054906101000a900473ffffffffffffffffffffffffffffffffffffffff1681565b60006003546002546107489190611014565b905090565b60035481565b61075b610ba3565b60405180608001604052808481526020016006600086815260200190815260200160002060009054906101000a900460ff1615158152602001600560008681526020019081526020016000205481526020016004600086815260200190815260200160002060008573ffffffffffffffffffffffffffffffffffffffff1673ffffffffffffffffffffffffffffffffffffffff16815260200190815260200160002054815250905092915050565b600160009054906101000a900473ffffffffffffffffffffffffffffffffffffffff1673ffffffffffffffffffffffffffffffffffffffff163373ffffffffffffffffffffffffffffffffffffffff161461086357600080fd5b6007600082815260200190815260200160002060009054906101000a900460ff166108c3576040517f08c379a00000000000000000000000000000000000000000000000000000000081526004016108ba90610f4c565b60405180910390fd5b6000600160009054906101000a900473ffffffffffffffffffffffffffffffffffffffff1673ffffffffffffffffffffffffffffffffffffffff16600560008481526020019081526020016000205460405161091e90610e57565b60006040518083038185875af1925050503d806000811461095b576040519150601f19603f3d011682016040523d82523d6000602084013e610960565b606091505b50509050806109a4576040517f08c379a000000000000000000000000000000000000000000000000000000000815260040161099b90610f2c565b60405180910390fd5b5050565b6006600082815260200190815260200160002060009054906101000a900460ff1615610a09576040517f08c379a0000000000000000000000000000000000000000000000000000000008152600401610a0090610f0c565b60405180910390fd5b346004600083815260200190815260200160002060003373ffffffffffffffffffffffffffffffffffffffff1673ffffffffffffffffffffffffffffffffffffffff1681526020019081526020016000206000828254610a699190610fbe565b9250508190555034600560008381526020019081526020016000206000828254610a939190610fbe565b925050819055507f493902cc71cdb9f23fb20e1f7ed6c617f5627d43b1aa503cf3e287e444aafe996001823334604051610ad09493929190610e87565b60405180910390a150565b60025481565b60008054906101000a900473ffffffffffffffffffffffffffffffffffffffff1681565b600160009054906101000a900473ffffffffffffffffffffffffffffffffffffffff1673ffffffffffffffffffffffffffffffffffffffff163373ffffffffffffffffffffffffffffffffffffffff1614610b5f57600080fd5b80600160006101000a81548173ffffffffffffffffffffffffffffffffffffffff021916908373ffffffffffffffffffffffffffffffffffffffff16021790555050565b60405180608001604052806000815260200160001515815260200160008152602001600081525090565b600081359050610bdc81611239565b92915050565b600081359050610bf181611250565b92915050565b600081359050610c0681611267565b92915050565b600060208284031215610c1e57600080fd5b6000610c2c84828501610be2565b91505092915050565b600060208284031215610c4757600080fd5b6000610c5584828501610bf7565b91505092915050565b60008060408385031215610c7157600080fd5b6000610c7f85828601610bf7565b9250506020610c9085828601610bcd565b9150509250929050565b60008060408385031215610cad57600080fd5b6000610cbb85828601610bf7565b9250506020610ccc85828601610bf7565b9150509250929050565b610cdf8161105a565b82525050565b610cee81611048565b82525050565b610cfd8161106c565b82525050565b610d0c8161106c565b82525050565b6000610d1f602b83610fad565b9150610d2a826110d1565b604082019050919050565b6000610d42603c83610fad565b9150610d4d82611120565b604082019050919050565b6000610d65603c83610fad565b9150610d708261116f565b604082019050919050565b6000610d88601183610fad565b9150610d93826111be565b602082019050919050565b6000610dab602783610fad565b9150610db6826111e7565b604082019050919050565b6000610dce600083610fa2565b9150610dd982611236565b600082019050919050565b608082016000820151610dfa6000850182610e39565b506020820151610e0d6020850182610cf4565b506040820151610e206040850182610e39565b506060820151610e336060850182610e39565b50505050565b610e4281611098565b82525050565b610e5181611098565b82525050565b6000610e6282610dc1565b9150819050919050565b6000602082019050610e816000830184610cd6565b92915050565b6000608082019050610e9c6000830187610d03565b610ea96020830186610e48565b610eb66040830185610ce5565b610ec36060830184610e48565b95945050505050565b60006020820190508181036000830152610ee581610d12565b9050919050565b60006020820190508181036000830152610f0581610d35565b9050919050565b60006020820190508181036000830152610f2581610d58565b9050919050565b60006020820190508181036000830152610f4581610d7b565b9050919050565b60006020820190508181036000830152610f6581610d9e565b9050919050565b6000608082019050610f816000830184610de4565b92915050565b6000602082019050610f9c6000830184610e48565b92915050565b600081905092915050565b600082825260208201905092915050565b6000610fc982611098565b9150610fd483611098565b9250827fffffffffffffffffffffffffffffffffffffffffffffffffffffffffffffffff03821115611009576110086110a2565b5b828201905092915050565b600061101f82611098565b915061102a83611098565b92508282101561103d5761103c6110a2565b5b828203905092915050565b600061105382611078565b9050919050565b600061106582611078565b9050919050565b60008115159050919050565b600073ffffffffffffffffffffffffffffffffffffffff82169050919050565b6000819050919050565b7f4e487b7100000000000000000000000000000000000000000000000000000000600052601160045260246000fd5b7f436f756c646e2774207769746864726177206d6f7265207468616e207573657260008201527f20706f6f6c207368617265000000000000000000000000000000000000000000602082015250565b7f576520646f6e277420616c6c6f77206578656375746f7220746f20726563656960008201527f7665206d6f72652c207468616e206761735f74616e6b2076616c756500000000602082015250565b7f46756e6472616973696e672069732066696e69736865642c206e6f206465706f60008201527f736974732f7769746864726177616c732061726520616c6c6f77656400000000602082015250565b7f5769746864726177616c204661696c6564000000000000000000000000000000600082015250565b7f46756e6472616973696e6720657865637574696f6e206469646e27742066696e60008201527f6973682079657400000000000000000000000000000000000000000000000000602082015250565b50565b61124281611048565b811461124d57600080fd5b50565b6112598161105a565b811461126457600080fd5b50565b61127081611098565b811461127b57600080fd5b5056fea26469706673582212204c90b13454735204d4405ad614dd1a584546b26a59ac854d3fbb2a5696da1f6164736f6c63430008040033",
  "linkReferences": {},
  "deployedLinkReferences": {}
}