{
  "_format": "hh-sol-artifact-1",
  "contractName": "Vault",
  "sourceName": "contracts/Vault.sol",
  "abi": [
    {
      "anonymous": false,
      "inputs": [
        {
          "indexed": false,
          "internalType": "address",
          "name": "previousAdmin",
          "type": "address"
        },
        {
          "indexed": false,
          "internalType": "address",
          "name": "newAdmin",
          "type": "address"
        }
      ],
      "name": "AdminChanged",
      "type": "event"
    },
    {
      "anonymous": false,
      "inputs": [
        {
          "indexed": true,
          "internalType": "address",
          "name": "beacon",
          "type": "address"
        }
      ],
      "name": "BeaconUpgraded",
      "type": "event"
    },
    {
      "anonymous": false,
      "inputs": [
        {
          "indexed": false,
          "internalType": "address",
          "name": "vaultAddr",
          "type": "address"
        },
        {
          "indexed": false,
          "internalType": "address",
          "name": "sender",
          "type": "address"
        },
        {
          "indexed": false,
          "internalType": "uint256",
          "name": "deposit",
          "type": "uint256"
        }
      ],
      "name": "NewDeposit",
      "type": "event"
    },
    {
      "anonymous": false,
      "inputs": [
        {
          "indexed": true,
          "internalType": "address",
          "name": "previousOwner",
          "type": "address"
        },
        {
          "indexed": true,
          "internalType": "address",
          "name": "newOwner",
          "type": "address"
        }
      ],
      "name": "OwnershipTransferred",
      "type": "event"
    },
    {
      "anonymous": false,
      "inputs": [
        {
          "indexed": true,
          "internalType": "address",
          "name": "implementation",
          "type": "address"
        }
      ],
      "name": "Upgraded",
      "type": "event"
    },
    {
      "inputs": [
        {
          "internalType": "address",
          "name": "_assetAddress",
          "type": "address"
        }
      ],
      "name": "addErc20Asset",
      "outputs": [],
      "stateMutability": "nonpayable",
      "type": "function"
    },
    {
      "inputs": [
        {
          "internalType": "uint256",
          "name": "_amount",
          "type": "uint256"
        },
        {
          "internalType": "address",
          "name": "_user",
          "type": "address"
        }
      ],
      "name": "autoStake",
      "outputs": [],
      "stateMutability": "nonpayable",
      "type": "function"
    },
    {
      "inputs": [
        {
          "internalType": "uint256",
          "name": "_amount",
          "type": "uint256"
        },
        {
          "internalType": "address",
          "name": "_user",
          "type": "address"
        }
      ],
      "name": "claim",
      "outputs": [],
      "stateMutability": "nonpayable",
      "type": "function"
    },
    {
      "inputs": [],
      "name": "distributeTokens",
      "outputs": [],
      "stateMutability": "nonpayable",
      "type": "function"
    },
    {
      "inputs": [],
      "name": "getBalance",
      "outputs": [
        {
          "internalType": "uint256",
          "name": "",
          "type": "uint256"
        }
      ],
      "stateMutability": "view",
      "type": "function"
    },
    {
      "inputs": [],
      "name": "getErc20Assets",
      "outputs": [
        {
          "internalType": "address[]",
          "name": "",
          "type": "address[]"
        }
      ],
      "stateMutability": "view",
      "type": "function"
    },
    {
      "inputs": [
        {
          "internalType": "address",
          "name": "_user",
          "type": "address"
        }
      ],
      "name": "getStake",
      "outputs": [
        {
          "internalType": "uint256",
          "name": "",
          "type": "uint256"
        }
      ],
      "stateMutability": "view",
      "type": "function"
    },
    {
      "inputs": [],
      "name": "getTokenAddress",
      "outputs": [
        {
          "internalType": "address",
          "name": "",
          "type": "address"
        }
      ],
      "stateMutability": "view",
      "type": "function"
    },
    {
      "inputs": [],
      "name": "getTokenName",
      "outputs": [
        {
          "internalType": "string",
          "name": "",
          "type": "string"
        }
      ],
      "stateMutability": "view",
      "type": "function"
    },
    {
      "inputs": [],
      "name": "getTokenTicker",
      "outputs": [
        {
          "internalType": "string",
          "name": "",
          "type": "string"
        }
      ],
      "stateMutability": "view",
      "type": "function"
    },
    {
      "inputs": [
        {
          "internalType": "address",
          "name": "_user",
          "type": "address"
        }
      ],
      "name": "getUserDeposit",
      "outputs": [
        {
          "internalType": "uint256",
          "name": "",
          "type": "uint256"
        }
      ],
      "stateMutability": "view",
      "type": "function"
    },
    {
      "inputs": [],
      "name": "goFullStage",
      "outputs": [],
      "stateMutability": "nonpayable",
      "type": "function"
    },
    {
      "inputs": [
        {
          "internalType": "string",
          "name": "_name",
          "type": "string"
        },
        {
          "internalType": "string",
          "name": "_ticker",
          "type": "string"
        },
        {
          "internalType": "uint256",
          "name": "_shares_amount",
          "type": "uint256"
        }
      ],
      "name": "initialize",
      "outputs": [],
      "stateMutability": "nonpayable",
      "type": "function"
    },
    {
      "inputs": [],
      "name": "initiator",
      "outputs": [
        {
          "internalType": "address",
          "name": "",
          "type": "address"
        }
      ],
      "stateMutability": "view",
      "type": "function"
    },
    {
      "inputs": [],
      "name": "owner",
      "outputs": [
        {
          "internalType": "address",
          "name": "",
          "type": "address"
        }
      ],
      "stateMutability": "view",
      "type": "function"
    },
    {
      "inputs": [
        {
          "internalType": "address",
          "name": "_user",
          "type": "address"
        }
      ],
      "name": "recieveDeposit",
      "outputs": [],
      "stateMutability": "payable",
      "type": "function"
    },
    {
      "inputs": [],
      "name": "renounceOwnership",
      "outputs": [],
      "stateMutability": "nonpayable",
      "type": "function"
    },
    {
      "inputs": [
        {
          "internalType": "address",
          "name": "_new_initiator",
          "type": "address"
        }
      ],
      "name": "setInitiator",
      "outputs": [],
      "stateMutability": "nonpayable",
      "type": "function"
    },
    {
      "inputs": [],
      "name": "stage",
      "outputs": [
        {
          "internalType": "enum Vault.Stages",
          "name": "",
          "type": "uint8"
        }
      ],
      "stateMutability": "view",
      "type": "function"
    },
    {
      "inputs": [
        {
          "internalType": "uint256",
          "name": "_amount",
          "type": "uint256"
        },
        {
          "internalType": "address",
          "name": "stake_for",
          "type": "address"
        },
        {
          "internalType": "address",
          "name": "_user",
          "type": "address"
        }
      ],
      "name": "stake",
      "outputs": [],
      "stateMutability": "nonpayable",
      "type": "function"
    },
    {
      "inputs": [
        {
          "internalType": "address",
          "name": "newOwner",
          "type": "address"
        }
      ],
      "name": "transferOwnership",
      "outputs": [],
      "stateMutability": "nonpayable",
      "type": "function"
    },
    {
      "inputs": [
        {
          "internalType": "uint256",
          "name": "_amount",
          "type": "uint256"
        }
      ],
      "name": "transferToOracle",
      "outputs": [],
      "stateMutability": "payable",
      "type": "function"
    },
    {
      "inputs": [
        {
          "internalType": "address",
          "name": "newImplementation",
          "type": "address"
        }
      ],
      "name": "upgradeTo",
      "outputs": [],
      "stateMutability": "nonpayable",
      "type": "function"
    },
    {
      "inputs": [
        {
          "internalType": "address",
          "name": "newImplementation",
          "type": "address"
        },
        {
          "internalType": "bytes",
          "name": "data",
          "type": "bytes"
        }
      ],
      "name": "upgradeToAndCall",
      "outputs": [],
      "stateMutability": "payable",
      "type": "function"
    }
  ],
  "bytecode": "0x60a06040523060601b60805260cf805460ff1916905534801561002157600080fd5b5060805160601c6137916100556000396000818161058f015281816105cf01528181610658015261069801526137916000f3fe60806040526004361061014b5760003560e01c806385a383d0116100b6578063c040e6b81161006f578063c040e6b814610365578063c084b10b1461038c578063d59dfd61146103c2578063dd701b3a146103e2578063ddd5e1b2146103f7578063f2fde38b1461041757600080fd5b806385a383d0146102b0578063862b092b146102d05780638da5cb5b146102f25780639ab1b48414610310578063a7d545db14610325578063b119490e1461034557600080fd5b80634f1ef286116101085780634f1ef28614610215578063521ad829146102285780635aac895b146102485780635c39fcc11461025b578063715018a61461027b5780637a7664601461029057600080fd5b80630508c8cb146101505780630bcf70d91461016757806310fe9ae81461017a57806312065fe0146101b65780631d9a4bf2146101d35780633659cfe6146101f5575b600080fd5b34801561015c57600080fd5b50610165610437565b005b610165610175366004611962565b610479565b34801561018657600080fd5b5060cf5461010090046001600160a01b03165b6040516001600160a01b0390911681526020015b60405180910390f35b3480156101c257600080fd5b50475b6040519081526020016101ad565b3480156101df57600080fd5b506101e86104e1565b6040516101ad9190611a40565b34801561020157600080fd5b506101656102103660046117f5565b610584565b61016561022336600461180f565b61064d565b34801561023457600080fd5b50610165610243366004611992565b610703565b6101656102563660046117f5565b610778565b34801561026757600080fd5b5060c954610199906001600160a01b031681565b34801561028757600080fd5b5061016561086f565b34801561029c57600080fd5b506101c56102ab3660046117f5565b6108a5565b3480156102bc57600080fd5b506101656102cb3660046117f5565b61090b565b3480156102dc57600080fd5b506102e5610a05565b6040516101ad9190611ab5565b3480156102fe57600080fd5b506033546001600160a01b0316610199565b34801561031c57600080fd5b50610165610a96565b34801561033157600080fd5b506101656103403660046119bd565b610d25565b34801561035157600080fd5b506101656103603660046118f8565b610f46565b34801561037157600080fd5b5060cf5461037f9060ff1681565b6040516101ad9190611a8d565b34801561039857600080fd5b506101c56103a73660046117f5565b6001600160a01b0316600090815260cb602052604090205490565b3480156103ce57600080fd5b506101656103dd3660046117f5565b611089565b3480156103ee57600080fd5b506102e56110e2565b34801561040357600080fd5b50610165610412366004611992565b611132565b34801561042357600080fd5b506101656104323660046117f5565b611263565b60c9546001600160a01b0316331461046a5760405162461bcd60e51b815260040161046190611b5b565b60405180910390fd5b60cf805460ff19166001179055565b60c9546001600160a01b031633146104a35760405162461bcd60e51b815260040161046190611b5b565b60c9546040516001600160a01b039091169082156108fc029083906000818181858888f193505050501580156104dd573d6000803e3d6000fd5b5050565b6060600160cf5460ff16600181111561050a57634e487b7160e01b600052602160045260246000fd5b146105275760405162461bcd60e51b815260040161046190611c87565b60ce80546040805160208084028201810190925282815292919083018282801561057a57602002820191906000526020600020905b81546001600160a01b0316815260019091019060200180831161055c575b5050505050905090565b306001600160a01b037f00000000000000000000000000000000000000000000000000000000000000001614156105cd5760405162461bcd60e51b815260040161046190611b0f565b7f00000000000000000000000000000000000000000000000000000000000000006001600160a01b03166105ff6112fb565b6001600160a01b0316146106255760405162461bcd60e51b815260040161046190611bb8565b61062e81611329565b6040805160008082526020820190925261064a91839190611353565b50565b306001600160a01b037f00000000000000000000000000000000000000000000000000000000000000001614156106965760405162461bcd60e51b815260040161046190611b0f565b7f00000000000000000000000000000000000000000000000000000000000000006001600160a01b03166106c86112fb565b6001600160a01b0316146106ee5760405162461bcd60e51b815260040161046190611bb8565b6106f782611329565b6104dd82826001611353565b600160cf5460ff16600181111561072a57634e487b7160e01b600052602160045260246000fd5b146107475760405162461bcd60e51b815260040161046190611c87565b6001600160a01b038116600090815260cc60205260408120805484929061076f908490611d17565b90915550505050565b6001600160a01b038116600090815260cb60205260409020546107e15760ca80546001810182556000919091527f42d72674974f694b5f5159593243114d38a5c39c89d6b62fee061ff523240ee10180546001600160a01b0319166001600160a01b0383161790555b3460d060008282546107f39190611d17565b90915550506001600160a01b038116600090815260cb602052604081208054349290610820908490611d17565b9091555050604080513081526001600160a01b0383166020820152348183015290517f83df459d706116d1b3f1c7b7f77cfea4c635275f5d1e1a53827f536ef48db77d9181900360600190a150565b6033546001600160a01b031633146108995760405162461bcd60e51b815260040161046190611c52565b6108a3600061149e565b565b6000600160cf5460ff1660018111156108ce57634e487b7160e01b600052602160045260246000fd5b146108eb5760405162461bcd60e51b815260040161046190611c87565b506001600160a01b038116600090815260cc60205260409020545b919050565b6033546001600160a01b031633146109355760405162461bcd60e51b815260040161046190611c52565b6001600160a01b038116600090815260cd602052604090205460ff161561099e5760405162461bcd60e51b815260206004820152601c60248201527f5468697320617373657420697320616c7265616479206c6f636b6564000000006044820152606401610461565b60ce805460018181019092557fd36cd1c74ef8d7326d8021b776c18fb5a5724b7f7bc93c2f42e43e10ef27d12a0180546001600160a01b039093166001600160a01b031990931683179055600091825260cd6020526040909120805460ff19169091179055565b606060cf60019054906101000a90046001600160a01b03166001600160a01b03166306fdde036040518163ffffffff1660e01b815260040160006040518083038186803b158015610a5557600080fd5b505afa158015610a69573d6000803e3d6000fd5b505050506040513d6000823e601f3d908101601f19168201604052610a91919081019061188e565b905090565b600160cf5460ff166001811115610abd57634e487b7160e01b600052602160045260246000fd5b14610ada5760405162461bcd60e51b815260040161046190611c87565b6033546001600160a01b03163314610b045760405162461bcd60e51b815260040161046190611c52565b600060d05460cf60019054906101000a90046001600160a01b03166001600160a01b03166318160ddd6040518163ffffffff1660e01b815260040160206040518083038186803b158015610b5757600080fd5b505afa158015610b6b573d6000803e3d6000fd5b505050506040513d601f19601f82011682018060405250810190610b8f919061197a565b610b999190611d2f565b60cf54604080516318160ddd60e01b815290519293506101009091046001600160a01b03169163095ea7b391309184916318160ddd916004808301926020929190829003018186803b158015610bee57600080fd5b505afa158015610c02573d6000803e3d6000fd5b505050506040513d601f19601f82011682018060405250810190610c26919061197a565b6040516001600160e01b031960e085901b1681526001600160a01b0390921660048301526024820152604401602060405180830381600087803b158015610c6c57600080fd5b505af1158015610c80573d6000803e3d6000fd5b505050506040513d601f19601f82011682018060405250810190610ca4919061186e565b5060005b60ca548110156104dd57600060ca8281548110610cd557634e487b7160e01b600052603260045260246000fd5b60009182526020808320909101546001600160a01b031680835260cb909152604090912054909150610d1290610d0c908590611d4f565b82610703565b5080610d1d81611d9a565b915050610ca8565b600160cf5460ff166001811115610d4c57634e487b7160e01b600052602160045260246000fd5b14610d695760405162461bcd60e51b815260040161046190611c87565b60cf54604051636eb1769f60e11b81526001600160a01b03838116600483015230602483015285926101009004169063dd62ed3e9060440160206040518083038186803b158015610db957600080fd5b505afa158015610dcd573d6000803e3d6000fd5b505050506040513d601f19601f82011682018060405250810190610df1919061197a565b1015610e815760cf5460405163095ea7b360e01b8152306004820152602481018590526101009091046001600160a01b03169063095ea7b390604401602060405180830381600087803b158015610e4757600080fd5b505af1158015610e5b573d6000803e3d6000fd5b505050506040513d601f19601f82011682018060405250810190610e7f919061186e565b505b60cf546040516323b872dd60e01b81526001600160a01b03838116600483015230602483015260448201869052610100909204909116906323b872dd90606401602060405180830381600087803b158015610edb57600080fd5b505af1158015610eef573d6000803e3d6000fd5b505050506040513d601f19601f82011682018060405250810190610f13919061186e565b506001600160a01b038216600090815260cc602052604081208054859290610f3c908490611d17565b9091555050505050565b600054610100900460ff1680610f5f575060005460ff16155b610f7b5760405162461bcd60e51b815260040161046190611c04565b600054610100900460ff16158015610f9d576000805461ffff19166101011790555b610fa56114f0565b604051610fb190611774565b604051809103906000f080158015610fcd573d6000803e3d6000fd5b5060cf8054610100600160a81b0319166101006001600160a01b0393841681029190911791829055604051635e9d09fb60e11b815291049091169063bd3a13f690611022908790879087903090600401611ac8565b600060405180830381600087803b15801561103c57600080fd5b505af1158015611050573d6000803e3d6000fd5b505060cf5461010090046001600160a01b0316915061107090508161090b565b508015611083576000805461ff00191690555b50505050565b6033546001600160a01b031633146110b35760405162461bcd60e51b815260040161046190611c52565b6001600160a01b0381161561064a5760c980546001600160a01b0383166001600160a01b031990911617905550565b606060cf60019054906101000a90046001600160a01b03166001600160a01b03166395d89b416040518163ffffffff1660e01b815260040160006040518083038186803b158015610a5557600080fd5b600160cf5460ff16600181111561115957634e487b7160e01b600052602160045260246000fd5b146111765760405162461bcd60e51b815260040161046190611c87565b6001600160a01b038116600090815260cc6020526040902054828110156112245760cf5460405163a9059cbb60e01b81526001600160a01b038481166004830152602482018490526101009092049091169063a9059cbb906044015b602060405180830381600087803b1580156111ec57600080fd5b505af1158015611200573d6000803e3d6000fd5b505050506040513d601f19601f82011682018060405250810190611083919061186e565b60cf5460405163a9059cbb60e01b81526001600160a01b038481166004830152602482018690526101009092049091169063a9059cbb906044016111d2565b6033546001600160a01b0316331461128d5760405162461bcd60e51b815260040161046190611c52565b6001600160a01b0381166112f25760405162461bcd60e51b815260206004820152602660248201527f4f776e61626c653a206e6577206f776e657220697320746865207a65726f206160448201526564647265737360d01b6064820152608401610461565b61064a8161149e565b7f360894a13ba1a3210667c828492db98dca3e2076cc3735a920a3ca505d382bbc546001600160a01b031690565b6033546001600160a01b0316331461064a5760405162461bcd60e51b815260040161046190611c52565b600061135d6112fb565b905061136884611564565b6000835111806113755750815b15611386576113848484611609565b505b7f4910fdfa16fed3260ed0e7147f7cc6da11a60208b5b9406d12a635614ffd9143805460ff1661149757805460ff191660011781556040516001600160a01b038316602482015261140590869060440160408051601f198184030181529190526020810180516001600160e01b0316631b2ce7f360e11b179052611609565b50805460ff191681556114166112fb565b6001600160a01b0316826001600160a01b03161461148e5760405162461bcd60e51b815260206004820152602f60248201527f45524331393637557067726164653a207570677261646520627265616b73206660448201526e75727468657220757067726164657360881b6064820152608401610461565b611497856116f4565b5050505050565b603380546001600160a01b038381166001600160a01b0319831681179093556040519116919082907f8be0079c531659141344cd1fd0a4f28419497f9722a3daafe3b4186f6b6457e090600090a35050565b600054610100900460ff1680611509575060005460ff16155b6115255760405162461bcd60e51b815260040161046190611c04565b600054610100900460ff16158015611547576000805461ffff19166101011790555b6115503361149e565b801561064a576000805461ff001916905550565b803b6115c85760405162461bcd60e51b815260206004820152602d60248201527f455243313936373a206e657720696d706c656d656e746174696f6e206973206e60448201526c1bdd08184818dbdb9d1c9858dd609a1b6064820152608401610461565b7f360894a13ba1a3210667c828492db98dca3e2076cc3735a920a3ca505d382bbc80546001600160a01b0319166001600160a01b0392909216919091179055565b6060823b6116685760405162461bcd60e51b815260206004820152602660248201527f416464726573733a2064656c65676174652063616c6c20746f206e6f6e2d636f6044820152651b9d1c9858dd60d21b6064820152608401610461565b600080846001600160a01b0316846040516116839190611a24565b600060405180830381855af49150503d80600081146116be576040519150601f19603f3d011682016040523d82523d6000602084013e6116c3565b606091505b50915091506116eb828260405180606001604052806027815260200161373560279139611734565b95945050505050565b6116fd81611564565b6040516001600160a01b038216907fbc7cd75a20ee27fd9adebab32041f755214dbc6bffa90cc0225b39da2e5c2d3b90600090a250565b6060831561174357508161176d565b8251156117535782518084602001fd5b8160405162461bcd60e51b81526004016104619190611ab5565b9392505050565b61195380611de283390190565b600061179461178f84611cef565b611cbe565b90508281528383830111156117a857600080fd5b828260208301376000602084830101529392505050565b80356001600160a01b038116811461090657600080fd5b600082601f8301126117e6578081fd5b61176d83833560208501611781565b600060208284031215611806578081fd5b61176d826117bf565b60008060408385031215611821578081fd5b61182a836117bf565b9150602083013567ffffffffffffffff811115611845578182fd5b8301601f81018513611855578182fd5b61186485823560208401611781565b9150509250929050565b60006020828403121561187f578081fd5b8151801515811461176d578182fd5b60006020828403121561189f578081fd5b815167ffffffffffffffff8111156118b5578182fd5b8201601f810184136118c5578182fd5b80516118d361178f82611cef565b8181528560208385010111156118e7578384fd5b6116eb826020830160208601611d6e565b60008060006060848603121561190c578081fd5b833567ffffffffffffffff80821115611923578283fd5b61192f878388016117d6565b94506020860135915080821115611944578283fd5b50611951868287016117d6565b925050604084013590509250925092565b600060208284031215611973578081fd5b5035919050565b60006020828403121561198b578081fd5b5051919050565b600080604083850312156119a4578182fd5b823591506119b4602084016117bf565b90509250929050565b6000806000606084860312156119d1578283fd5b833592506119e1602085016117bf565b91506119ef604085016117bf565b90509250925092565b60008151808452611a10816020860160208601611d6e565b601f01601f19169290920160200192915050565b60008251611a36818460208701611d6e565b9190910192915050565b6020808252825182820181905260009190848201906040850190845b81811015611a815783516001600160a01b031683529284019291840191600101611a5c565b50909695505050505050565b6020810160028310611aaf57634e487b7160e01b600052602160045260246000fd5b91905290565b60208152600061176d60208301846119f8565b608081526000611adb60808301876119f8565b8281036020840152611aed81876119f8565b604084019590955250506001600160a01b039190911660609091015292915050565b6020808252602c908201527f46756e6374696f6e206d7573742062652063616c6c6564207468726f7567682060408201526b19195b1959d85d1958d85b1b60a21b606082015260800190565b6020808252603e908201527f546f2072756e2074686973206d6574686f6420796f75206e65656420746f206260408201527f6520616e20696e69746961746f72206f662074686520636f6e74726163740000606082015260800190565b6020808252602c908201527f46756e6374696f6e206d7573742062652063616c6c6564207468726f7567682060408201526b6163746976652070726f787960a01b606082015260800190565b6020808252602e908201527f496e697469616c697a61626c653a20636f6e747261637420697320616c72656160408201526d191e481a5b9a5d1a585b1a5e995960921b606082015260800190565b6020808252818101527f4f776e61626c653a2063616c6c6572206973206e6f7420746865206f776e6572604082015260600190565b60208082526019908201527f54686520706f6f6c206973206e6f742066756c6c207965742100000000000000604082015260600190565b604051601f8201601f1916810167ffffffffffffffff81118282101715611ce757611ce7611dcb565b604052919050565b600067ffffffffffffffff821115611d0957611d09611dcb565b50601f01601f191660200190565b60008219821115611d2a57611d2a611db5565b500190565b600082611d4a57634e487b7160e01b81526012600452602481fd5b500490565b6000816000190483118215151615611d6957611d69611db5565b500290565b60005b83811015611d89578181015183820152602001611d71565b838111156110835750506000910152565b6000600019821415611dae57611dae611db5565b5060010190565b634e487b7160e01b600052601160045260246000fd5b634e487b7160e01b600052604160045260246000fdfe60a06040523060601b60805234801561001757600080fd5b5060805160601c61190861004b600039600081816104ec0152818161052c01528181610629015261066901526119086000f3fe6080604052600436106101095760003560e01c806370a0823111610095578063a457c2d711610064578063a457c2d7146102c1578063a9059cbb146102e1578063bd3a13f614610301578063dd62ed3e14610321578063f2fde38b1461036757600080fd5b806370a0823114610239578063715018a61461026f5780638da5cb5b1461028457806395d89b41146102ac57600080fd5b8063313ce567116100dc578063313ce567146101a85780633659cfe6146101c457806339509351146101e657806340c10f19146102065780634f1ef2861461022657600080fd5b806306fdde031461010e578063095ea7b31461013957806318160ddd1461016957806323b872dd14610188575b600080fd5b34801561011a57600080fd5b50610123610387565b60405161013091906115a5565b60405180910390f35b34801561014557600080fd5b506101596101543660046114e5565b610419565b6040519015158152602001610130565b34801561017557600080fd5b506035545b604051908152602001610130565b34801561019457600080fd5b506101596101a336600461144b565b610430565b3480156101b457600080fd5b5060405160128152602001610130565b3480156101d057600080fd5b506101e46101df3660046113ff565b6104e1565b005b3480156101f257600080fd5b506101596102013660046114e5565b6105aa565b34801561021257600080fd5b506101e46102213660046114e5565b6105e6565b6101e4610234366004611486565b61061e565b34801561024557600080fd5b5061017a6102543660046113ff565b6001600160a01b031660009081526033602052604090205490565b34801561027b57600080fd5b506101e46106d4565b34801561029057600080fd5b506065546040516001600160a01b039091168152602001610130565b3480156102b857600080fd5b5061012361070a565b3480156102cd57600080fd5b506101596102dc3660046114e5565b610719565b3480156102ed57600080fd5b506101596102fc3660046114e5565b6107b2565b34801561030d57600080fd5b506101e461031c36600461150e565b6107bf565b34801561032d57600080fd5b5061017a61033c366004611419565b6001600160a01b03918216600090815260346020908152604080832093909416825291909152205490565b34801561037357600080fd5b506101e46103823660046113ff565b610860565b60606036805461039690611844565b80601f01602080910402602001604051908101604052809291908181526020018280546103c290611844565b801561040f5780601f106103e45761010080835404028352916020019161040f565b820191906000526020600020905b8154815290600101906020018083116103f257829003601f168201915b5050505050905090565b60006104263384846108f8565b5060015b92915050565b600061043d848484610a1c565b6001600160a01b0384166000908152603460209081526040808320338452909152902054828110156104c75760405162461bcd60e51b815260206004820152602860248201527f45524332303a207472616e7366657220616d6f756e74206578636565647320616044820152676c6c6f77616e636560c01b60648201526084015b60405180910390fd5b6104d485338584036108f8565b60019150505b9392505050565b306001600160a01b037f000000000000000000000000000000000000000000000000000000000000000016141561052a5760405162461bcd60e51b81526004016104be906115d8565b7f00000000000000000000000000000000000000000000000000000000000000006001600160a01b031661055c610bec565b6001600160a01b0316146105825760405162461bcd60e51b81526004016104be90611624565b61058b81610c1a565b604080516000808252602082019092526105a791839190610c44565b50565b3360008181526034602090815260408083206001600160a01b038716845290915281205490916104269185906105e19086906116f3565b6108f8565b6065546001600160a01b031633146106105760405162461bcd60e51b81526004016104be906116be565b61061a8282610d88565b5050565b306001600160a01b037f00000000000000000000000000000000000000000000000000000000000000001614156106675760405162461bcd60e51b81526004016104be906115d8565b7f00000000000000000000000000000000000000000000000000000000000000006001600160a01b0316610699610bec565b6001600160a01b0316146106bf5760405162461bcd60e51b81526004016104be90611624565b6106c882610c1a565b61061a82826001610c44565b6065546001600160a01b031633146106fe5760405162461bcd60e51b81526004016104be906116be565b6107086000610e67565b565b60606037805461039690611844565b3360009081526034602090815260408083206001600160a01b03861684529091528120548281101561079b5760405162461bcd60e51b815260206004820152602560248201527f45524332303a2064656372656173656420616c6c6f77616e63652062656c6f77604482015264207a65726f60d81b60648201526084016104be565b6107a833858584036108f8565b5060019392505050565b6000610426338484610a1c565b600054610100900460ff16806107d8575060005460ff16155b6107f45760405162461bcd60e51b81526004016104be90611670565b600054610100900460ff16158015610816576000805461ffff19166101011790555b6108208585610eb9565b610828610f39565b610847826108386012600a61174e565b61084290866117f9565b610d88565b8015610859576000805461ff00191690555b5050505050565b6065546001600160a01b0316331461088a5760405162461bcd60e51b81526004016104be906116be565b6001600160a01b0381166108ef5760405162461bcd60e51b815260206004820152602660248201527f4f776e61626c653a206e6577206f776e657220697320746865207a65726f206160448201526564647265737360d01b60648201526084016104be565b6105a781610e67565b6001600160a01b03831661095a5760405162461bcd60e51b8152602060048201526024808201527f45524332303a20617070726f76652066726f6d20746865207a65726f206164646044820152637265737360e01b60648201526084016104be565b6001600160a01b0382166109bb5760405162461bcd60e51b815260206004820152602260248201527f45524332303a20617070726f766520746f20746865207a65726f206164647265604482015261737360f01b60648201526084016104be565b6001600160a01b0383811660008181526034602090815260408083209487168084529482529182902085905590518481527f8c5be1e5ebec7d5bd14f71427d1e84f3dd0314c0f7b2291e5b200ac8c7c3b925910160405180910390a3505050565b6001600160a01b038316610a805760405162461bcd60e51b815260206004820152602560248201527f45524332303a207472616e736665722066726f6d20746865207a65726f206164604482015264647265737360d81b60648201526084016104be565b6001600160a01b038216610ae25760405162461bcd60e51b815260206004820152602360248201527f45524332303a207472616e7366657220746f20746865207a65726f206164647260448201526265737360e81b60648201526084016104be565b6001600160a01b03831660009081526033602052604090205481811015610b5a5760405162461bcd60e51b815260206004820152602660248201527f45524332303a207472616e7366657220616d6f756e7420657863656564732062604482015265616c616e636560d01b60648201526084016104be565b6001600160a01b03808516600090815260336020526040808220858503905591851681529081208054849290610b919084906116f3565b92505081905550826001600160a01b0316846001600160a01b03167fddf252ad1be2c89b69c2b068fc378daa952ba7f163c4a11628f55a4df523b3ef84604051610bdd91815260200190565b60405180910390a35b50505050565b7f360894a13ba1a3210667c828492db98dca3e2076cc3735a920a3ca505d382bbc546001600160a01b031690565b6065546001600160a01b031633146105a75760405162461bcd60e51b81526004016104be906116be565b6000610c4e610bec565b9050610c5984610fad565b600083511180610c665750815b15610c7757610c758484611052565b505b7f4910fdfa16fed3260ed0e7147f7cc6da11a60208b5b9406d12a635614ffd9143805460ff1661085957805460ff191660011781556040516001600160a01b0383166024820152610cf690869060440160408051601f198184030181529190526020810180516001600160e01b0316631b2ce7f360e11b179052611052565b50805460ff19168155610d07610bec565b6001600160a01b0316826001600160a01b031614610d7f5760405162461bcd60e51b815260206004820152602f60248201527f45524331393637557067726164653a207570677261646520627265616b73206660448201526e75727468657220757067726164657360881b60648201526084016104be565b6108598561113d565b6001600160a01b038216610dde5760405162461bcd60e51b815260206004820152601f60248201527f45524332303a206d696e7420746f20746865207a65726f20616464726573730060448201526064016104be565b8060356000828254610df091906116f3565b90915550506001600160a01b03821660009081526033602052604081208054839290610e1d9084906116f3565b90915550506040518181526001600160a01b038316906000907fddf252ad1be2c89b69c2b068fc378daa952ba7f163c4a11628f55a4df523b3ef9060200160405180910390a35050565b606580546001600160a01b038381166001600160a01b0319831681179093556040519116919082907f8be0079c531659141344cd1fd0a4f28419497f9722a3daafe3b4186f6b6457e090600090a35050565b600054610100900460ff1680610ed2575060005460ff16155b610eee5760405162461bcd60e51b81526004016104be90611670565b600054610100900460ff16158015610f10576000805461ffff19166101011790555b610f1861117d565b610f2283836111e7565b8015610f34576000805461ff00191690555b505050565b600054610100900460ff1680610f52575060005460ff16155b610f6e5760405162461bcd60e51b81526004016104be90611670565b600054610100900460ff16158015610f90576000805461ffff19166101011790555b610f9933610e67565b80156105a7576000805461ff001916905550565b803b6110115760405162461bcd60e51b815260206004820152602d60248201527f455243313936373a206e657720696d706c656d656e746174696f6e206973206e60448201526c1bdd08184818dbdb9d1c9858dd609a1b60648201526084016104be565b7f360894a13ba1a3210667c828492db98dca3e2076cc3735a920a3ca505d382bbc80546001600160a01b0319166001600160a01b0392909216919091179055565b6060823b6110b15760405162461bcd60e51b815260206004820152602660248201527f416464726573733a2064656c65676174652063616c6c20746f206e6f6e2d636f6044820152651b9d1c9858dd60d21b60648201526084016104be565b600080846001600160a01b0316846040516110cc9190611589565b600060405180830381855af49150503d8060008114611107576040519150601f19603f3d011682016040523d82523d6000602084013e61110c565b606091505b509150915061113482826040518060600160405280602781526020016118ac6027913961127c565b95945050505050565b61114681610fad565b6040516001600160a01b038216907fbc7cd75a20ee27fd9adebab32041f755214dbc6bffa90cc0225b39da2e5c2d3b90600090a250565b600054610100900460ff1680611196575060005460ff16155b6111b25760405162461bcd60e51b81526004016104be90611670565b600054610100900460ff16158015610f99576000805461ffff191661010117905580156105a7576000805461ff001916905550565b600054610100900460ff1680611200575060005460ff16155b61121c5760405162461bcd60e51b81526004016104be90611670565b600054610100900460ff1615801561123e576000805461ffff19166101011790555b82516112519060369060208601906112b5565b5081516112659060379060208501906112b5565b508015610f34576000805461ff0019169055505050565b6060831561128b5750816104da565b82511561129b5782518084602001fd5b8160405162461bcd60e51b81526004016104be91906115a5565b8280546112c190611844565b90600052602060002090601f0160209004810192826112e35760008555611329565b82601f106112fc57805160ff1916838001178555611329565b82800160010185558215611329579182015b8281111561132957825182559160200191906001019061130e565b50611335929150611339565b5090565b5b80821115611335576000815560010161133a565b600067ffffffffffffffff8084111561136957611369611895565b604051601f8501601f19908116603f0116810190828211818310171561139157611391611895565b816040528093508581528686860111156113aa57600080fd5b858560208301376000602087830101525050509392505050565b80356001600160a01b03811681146113db57600080fd5b919050565b600082601f8301126113f0578081fd5b6104da8383356020850161134e565b600060208284031215611410578081fd5b6104da826113c4565b6000806040838503121561142b578081fd5b611434836113c4565b9150611442602084016113c4565b90509250929050565b60008060006060848603121561145f578081fd5b611468846113c4565b9250611476602085016113c4565b9150604084013590509250925092565b60008060408385031215611498578182fd5b6114a1836113c4565b9150602083013567ffffffffffffffff8111156114bc578182fd5b8301601f810185136114cc578182fd5b6114db8582356020840161134e565b9150509250929050565b600080604083850312156114f7578182fd5b611500836113c4565b946020939093013593505050565b60008060008060808587031215611523578081fd5b843567ffffffffffffffff8082111561153a578283fd5b611546888389016113e0565b9550602087013591508082111561155b578283fd5b50611568878288016113e0565b9350506040850135915061157e606086016113c4565b905092959194509250565b6000825161159b818460208701611818565b9190910192915050565b60208152600082518060208401526115c4816040850160208701611818565b601f01601f19169190910160400192915050565b6020808252602c908201527f46756e6374696f6e206d7573742062652063616c6c6564207468726f7567682060408201526b19195b1959d85d1958d85b1b60a21b606082015260800190565b6020808252602c908201527f46756e6374696f6e206d7573742062652063616c6c6564207468726f7567682060408201526b6163746976652070726f787960a01b606082015260800190565b6020808252602e908201527f496e697469616c697a61626c653a20636f6e747261637420697320616c72656160408201526d191e481a5b9a5d1a585b1a5e995960921b606082015260800190565b6020808252818101527f4f776e61626c653a2063616c6c6572206973206e6f7420746865206f776e6572604082015260600190565b600082198211156117065761170661187f565b500190565b600181815b8085111561174657816000190482111561172c5761172c61187f565b8085161561173957918102915b93841c9390800290611710565b509250929050565b60006104da60ff8416836000826117675750600161042a565b816117745750600061042a565b816001811461178a5760028114611794576117b0565b600191505061042a565b60ff8411156117a5576117a561187f565b50506001821b61042a565b5060208310610133831016604e8410600b84101617156117d3575081810a61042a565b6117dd838361170b565b80600019048211156117f1576117f161187f565b029392505050565b60008160001904831182151516156118135761181361187f565b500290565b60005b8381101561183357818101518382015260200161181b565b83811115610be65750506000910152565b600181811c9082168061185857607f821691505b6020821081141561187957634e487b7160e01b600052602260045260246000fd5b50919050565b634e487b7160e01b600052601160045260246000fd5b634e487b7160e01b600052604160045260246000fdfe416464726573733a206c6f772d6c6576656c2064656c65676174652063616c6c206661696c6564a2646970667358221220a4d4c08a632906d4cae7629edaa73d8c30e3cc8576c3e0f57d8e2405d2e18edf64736f6c63430008040033416464726573733a206c6f772d6c6576656c2064656c65676174652063616c6c206661696c6564a26469706673582212203328b8a178ca6a1ce2dc849ad96ec428c233d1e6fa56673ccdb951c6faa1d63764736f6c63430008040033",
  "linkReferences": {},
  "deployedLinkReferences": {}
}