{
  "_format": "hh-sol-artifact-1",
  "contractName": "Vault",
  "sourceName": "contracts/Vault.sol",
  "abi": [
    {
      "anonymous": false,
      "inputs": [
        {
          "indexed": false,
          "internalType": "address",
          "name": "previousAdmin",
          "type": "address"
        },
        {
          "indexed": false,
          "internalType": "address",
          "name": "newAdmin",
          "type": "address"
        }
      ],
      "name": "AdminChanged",
      "type": "event"
    },
    {
      "anonymous": false,
      "inputs": [
        {
          "indexed": true,
          "internalType": "address",
          "name": "beacon",
          "type": "address"
        }
      ],
      "name": "BeaconUpgraded",
      "type": "event"
    },
    {
      "anonymous": false,
      "inputs": [
        {
          "indexed": true,
          "internalType": "address",
          "name": "previousOwner",
          "type": "address"
        },
        {
          "indexed": true,
          "internalType": "address",
          "name": "newOwner",
          "type": "address"
        }
      ],
      "name": "OwnershipTransferred",
      "type": "event"
    },
    {
      "anonymous": false,
      "inputs": [
        {
          "indexed": true,
          "internalType": "address",
          "name": "implementation",
          "type": "address"
        }
      ],
      "name": "Upgraded",
      "type": "event"
    },
    {
      "inputs": [
        {
          "internalType": "address",
          "name": "_assetAddress",
          "type": "address"
        }
      ],
      "name": "addErc20Asset",
      "outputs": [],
      "stateMutability": "nonpayable",
      "type": "function"
    },
    {
      "inputs": [
        {
          "internalType": "uint256",
          "name": "_amount",
          "type": "uint256"
        },
        {
          "internalType": "address",
          "name": "_user",
          "type": "address"
        }
      ],
      "name": "autoStake",
      "outputs": [],
      "stateMutability": "nonpayable",
      "type": "function"
    },
    {
      "inputs": [
        {
          "internalType": "uint256",
          "name": "_amount",
          "type": "uint256"
        },
        {
          "internalType": "address",
          "name": "_user",
          "type": "address"
        }
      ],
      "name": "claim",
      "outputs": [],
      "stateMutability": "nonpayable",
      "type": "function"
    },
    {
      "inputs": [],
      "name": "distributeTokens",
      "outputs": [],
      "stateMutability": "nonpayable",
      "type": "function"
    },
    {
      "inputs": [],
      "name": "getBalance",
      "outputs": [
        {
          "internalType": "uint256",
          "name": "",
          "type": "uint256"
        }
      ],
      "stateMutability": "view",
      "type": "function"
    },
    {
      "inputs": [],
      "name": "getErc20Assets",
      "outputs": [
        {
          "internalType": "address[]",
          "name": "",
          "type": "address[]"
        }
      ],
      "stateMutability": "view",
      "type": "function"
    },
    {
      "inputs": [
        {
          "internalType": "address",
          "name": "_user",
          "type": "address"
        }
      ],
      "name": "getStake",
      "outputs": [
        {
          "internalType": "uint256",
          "name": "",
          "type": "uint256"
        }
      ],
      "stateMutability": "view",
      "type": "function"
    },
    {
      "inputs": [],
      "name": "getTokenAddress",
      "outputs": [
        {
          "internalType": "address",
          "name": "",
          "type": "address"
        }
      ],
      "stateMutability": "view",
      "type": "function"
    },
    {
      "inputs": [],
      "name": "getTokenName",
      "outputs": [
        {
          "internalType": "string",
          "name": "",
          "type": "string"
        }
      ],
      "stateMutability": "view",
      "type": "function"
    },
    {
      "inputs": [],
      "name": "getTokenTicker",
      "outputs": [
        {
          "internalType": "string",
          "name": "",
          "type": "string"
        }
      ],
      "stateMutability": "view",
      "type": "function"
    },
    {
      "inputs": [
        {
          "internalType": "address",
          "name": "_user",
          "type": "address"
        }
      ],
      "name": "getUserDeposit",
      "outputs": [
        {
          "internalType": "uint256",
          "name": "",
          "type": "uint256"
        }
      ],
      "stateMutability": "view",
      "type": "function"
    },
    {
      "inputs": [],
      "name": "goFullStage",
      "outputs": [],
      "stateMutability": "nonpayable",
      "type": "function"
    },
    {
      "inputs": [
        {
          "internalType": "string",
          "name": "_name",
          "type": "string"
        },
        {
          "internalType": "string",
          "name": "_ticker",
          "type": "string"
        },
        {
          "internalType": "uint256",
          "name": "_shares_amount",
          "type": "uint256"
        }
      ],
      "name": "initialize",
      "outputs": [],
      "stateMutability": "nonpayable",
      "type": "function"
    },
    {
      "inputs": [],
      "name": "initiator",
      "outputs": [
        {
          "internalType": "address",
          "name": "",
          "type": "address"
        }
      ],
      "stateMutability": "view",
      "type": "function"
    },
    {
      "inputs": [],
      "name": "owner",
      "outputs": [
        {
          "internalType": "address",
          "name": "",
          "type": "address"
        }
      ],
      "stateMutability": "view",
      "type": "function"
    },
    {
      "inputs": [
        {
          "internalType": "address",
          "name": "_user",
          "type": "address"
        }
      ],
      "name": "recieveDeposit",
      "outputs": [],
      "stateMutability": "payable",
      "type": "function"
    },
    {
      "inputs": [],
      "name": "renounceOwnership",
      "outputs": [],
      "stateMutability": "nonpayable",
      "type": "function"
    },
    {
      "inputs": [
        {
          "internalType": "address",
          "name": "_new_initiator",
          "type": "address"
        }
      ],
      "name": "setInitiator",
      "outputs": [],
      "stateMutability": "nonpayable",
      "type": "function"
    },
    {
      "inputs": [],
      "name": "stage",
      "outputs": [
        {
          "internalType": "enum Vault.Stages",
          "name": "",
          "type": "uint8"
        }
      ],
      "stateMutability": "view",
      "type": "function"
    },
    {
      "inputs": [
        {
          "internalType": "uint256",
          "name": "_amount",
          "type": "uint256"
        },
        {
          "internalType": "address",
          "name": "stake_for",
          "type": "address"
        },
        {
          "internalType": "address",
          "name": "_user",
          "type": "address"
        }
      ],
      "name": "stake",
      "outputs": [],
      "stateMutability": "nonpayable",
      "type": "function"
    },
    {
      "inputs": [
        {
          "internalType": "address",
          "name": "newOwner",
          "type": "address"
        }
      ],
      "name": "transferOwnership",
      "outputs": [],
      "stateMutability": "nonpayable",
      "type": "function"
    },
    {
      "inputs": [
        {
          "internalType": "address",
          "name": "newImplementation",
          "type": "address"
        }
      ],
      "name": "upgradeTo",
      "outputs": [],
      "stateMutability": "nonpayable",
      "type": "function"
    },
    {
      "inputs": [
        {
          "internalType": "address",
          "name": "newImplementation",
          "type": "address"
        },
        {
          "internalType": "bytes",
          "name": "data",
          "type": "bytes"
        }
      ],
      "name": "upgradeToAndCall",
      "outputs": [],
      "stateMutability": "payable",
      "type": "function"
    },
    {
      "inputs": [],
      "name": "vaultToken",
      "outputs": [
        {
          "internalType": "contract Token",
          "name": "",
          "type": "address"
        }
      ],
      "stateMutability": "view",
      "type": "function"
    }
  ],
  "bytecode": "0x60a06040523060601b60805260cf805460ff1916905534801561002157600080fd5b5060805160601c6136706100556000396000818161052601528181610566015281816105ef015261062f01526136706000f3fe60806040526004361061014b5760003560e01c806385a383d0116100b6578063c040e6b81161006f578063c040e6b814610377578063c084b10b1461039e578063d59dfd61146103d4578063dd701b3a146103f4578063ddd5e1b214610409578063f2fde38b1461042957600080fd5b806385a383d0146102c2578063862b092b146102e25780638da5cb5b146103045780639ab1b48414610322578063a7d545db14610337578063b119490e1461035757600080fd5b8063521ad82911610108578063521ad829146102155780635aac895b146102355780635c39fcc114610248578063703bafd514610268578063715018a61461028d5780637a766460146102a257600080fd5b80630508c8cb1461015057806310fe9ae81461016757806312065fe0146101a35780631d9a4bf2146101c05780633659cfe6146101e25780634f1ef28614610202575b600080fd5b34801561015c57600080fd5b50610165610449565b005b34801561017357600080fd5b5060cf5461010090046001600160a01b03165b6040516001600160a01b0390911681526020015b60405180910390f35b3480156101af57600080fd5b50475b60405190815260200161019a565b3480156101cc57600080fd5b506101d561046f565b60405161019a919061197c565b3480156101ee57600080fd5b506101656101fd366004611749565b61051b565b610165610210366004611763565b6105e4565b34801561022157600080fd5b506101656102303660046118ce565b61069e565b610165610243366004611749565b610713565b34801561025457600080fd5b5060c954610186906001600160a01b031681565b34801561027457600080fd5b5060cf546101869061010090046001600160a01b031681565b34801561029957600080fd5b506101656107c3565b3480156102ae57600080fd5b506101b26102bd366004611749565b6107f9565b3480156102ce57600080fd5b506101656102dd366004611749565b61085f565b3480156102ee57600080fd5b506102f7610959565b60405161019a91906119f1565b34801561031057600080fd5b506033546001600160a01b0316610186565b34801561032e57600080fd5b506101656109ea565b34801561034357600080fd5b506101656103523660046118f9565b610c79565b34801561036357600080fd5b5061016561037236600461184c565b610e9a565b34801561038357600080fd5b5060cf546103919060ff1681565b60405161019a91906119c9565b3480156103aa57600080fd5b506101b26103b9366004611749565b6001600160a01b0316600090815260cb602052604090205490565b3480156103e057600080fd5b506101656103ef366004611749565b610fdd565b34801561040057600080fd5b506102f7611036565b34801561041557600080fd5b506101656104243660046118ce565b611086565b34801561043557600080fd5b50610165610444366004611749565b6111b7565b60c9546001600160a01b0316331461046057600080fd5b60cf805460ff19166001179055565b6060600160cf5460ff16600181111561049857634e487b7160e01b600052602160045260246000fd5b146104be5760405162461bcd60e51b81526004016104b590611b66565b60405180910390fd5b60ce80546040805160208084028201810190925282815292919083018282801561051157602002820191906000526020600020905b81546001600160a01b031681526001909101906020018083116104f3575b5050505050905090565b306001600160a01b037f00000000000000000000000000000000000000000000000000000000000000001614156105645760405162461bcd60e51b81526004016104b590611a4b565b7f00000000000000000000000000000000000000000000000000000000000000006001600160a01b031661059661124f565b6001600160a01b0316146105bc5760405162461bcd60e51b81526004016104b590611a97565b6105c58161127d565b604080516000808252602082019092526105e1918391906112a7565b50565b306001600160a01b037f000000000000000000000000000000000000000000000000000000000000000016141561062d5760405162461bcd60e51b81526004016104b590611a4b565b7f00000000000000000000000000000000000000000000000000000000000000006001600160a01b031661065f61124f565b6001600160a01b0316146106855760405162461bcd60e51b81526004016104b590611a97565b61068e8261127d565b61069a828260016112a7565b5050565b600160cf5460ff1660018111156106c557634e487b7160e01b600052602160045260246000fd5b146106e25760405162461bcd60e51b81526004016104b590611b66565b6001600160a01b038116600090815260cc60205260408120805484929061070a908490611bf6565b90915550505050565b6001600160a01b038116600090815260cb602052604090205461077c5760ca80546001810182556000919091527f42d72674974f694b5f5159593243114d38a5c39c89d6b62fee061ff523240ee10180546001600160a01b0319166001600160a01b0383161790555b3460d0600082825461078e9190611bf6565b90915550506001600160a01b038116600090815260cb6020526040812080543492906107bb908490611bf6565b909155505050565b6033546001600160a01b031633146107ed5760405162461bcd60e51b81526004016104b590611b31565b6107f760006113f2565b565b6000600160cf5460ff16600181111561082257634e487b7160e01b600052602160045260246000fd5b1461083f5760405162461bcd60e51b81526004016104b590611b66565b506001600160a01b038116600090815260cc60205260409020545b919050565b6033546001600160a01b031633146108895760405162461bcd60e51b81526004016104b590611b31565b6001600160a01b038116600090815260cd602052604090205460ff16156108f25760405162461bcd60e51b815260206004820152601c60248201527f5468697320617373657420697320616c7265616479206c6f636b65640000000060448201526064016104b5565b60ce805460018181019092557fd36cd1c74ef8d7326d8021b776c18fb5a5724b7f7bc93c2f42e43e10ef27d12a0180546001600160a01b039093166001600160a01b031990931683179055600091825260cd6020526040909120805460ff19169091179055565b606060cf60019054906101000a90046001600160a01b03166001600160a01b03166306fdde036040518163ffffffff1660e01b815260040160006040518083038186803b1580156109a957600080fd5b505afa1580156109bd573d6000803e3d6000fd5b505050506040513d6000823e601f3d908101601f191682016040526109e591908101906117e2565b905090565b600160cf5460ff166001811115610a1157634e487b7160e01b600052602160045260246000fd5b14610a2e5760405162461bcd60e51b81526004016104b590611b66565b6033546001600160a01b03163314610a585760405162461bcd60e51b81526004016104b590611b31565b600060d05460cf60019054906101000a90046001600160a01b03166001600160a01b03166318160ddd6040518163ffffffff1660e01b815260040160206040518083038186803b158015610aab57600080fd5b505afa158015610abf573d6000803e3d6000fd5b505050506040513d601f19601f82011682018060405250810190610ae391906118b6565b610aed9190611c0e565b60cf54604080516318160ddd60e01b815290519293506101009091046001600160a01b03169163095ea7b391309184916318160ddd916004808301926020929190829003018186803b158015610b4257600080fd5b505afa158015610b56573d6000803e3d6000fd5b505050506040513d601f19601f82011682018060405250810190610b7a91906118b6565b6040516001600160e01b031960e085901b1681526001600160a01b0390921660048301526024820152604401602060405180830381600087803b158015610bc057600080fd5b505af1158015610bd4573d6000803e3d6000fd5b505050506040513d601f19601f82011682018060405250810190610bf891906117c2565b5060005b60ca5481101561069a57600060ca8281548110610c2957634e487b7160e01b600052603260045260246000fd5b60009182526020808320909101546001600160a01b031680835260cb909152604090912054909150610c6690610c60908590611c2e565b8261069e565b5080610c7181611c79565b915050610bfc565b600160cf5460ff166001811115610ca057634e487b7160e01b600052602160045260246000fd5b14610cbd5760405162461bcd60e51b81526004016104b590611b66565b60cf54604051636eb1769f60e11b81526001600160a01b03838116600483015230602483015285926101009004169063dd62ed3e9060440160206040518083038186803b158015610d0d57600080fd5b505afa158015610d21573d6000803e3d6000fd5b505050506040513d601f19601f82011682018060405250810190610d4591906118b6565b1015610dd55760cf5460405163095ea7b360e01b8152306004820152602481018590526101009091046001600160a01b03169063095ea7b390604401602060405180830381600087803b158015610d9b57600080fd5b505af1158015610daf573d6000803e3d6000fd5b505050506040513d601f19601f82011682018060405250810190610dd391906117c2565b505b60cf546040516323b872dd60e01b81526001600160a01b03838116600483015230602483015260448201869052610100909204909116906323b872dd90606401602060405180830381600087803b158015610e2f57600080fd5b505af1158015610e43573d6000803e3d6000fd5b505050506040513d601f19601f82011682018060405250810190610e6791906117c2565b506001600160a01b038216600090815260cc602052604081208054859290610e90908490611bf6565b9091555050505050565b600054610100900460ff1680610eb3575060005460ff16155b610ecf5760405162461bcd60e51b81526004016104b590611ae3565b600054610100900460ff16158015610ef1576000805461ffff19166101011790555b610ef9611444565b604051610f05906116c8565b604051809103906000f080158015610f21573d6000803e3d6000fd5b5060cf8054610100600160a81b0319166101006001600160a01b0393841681029190911791829055604051635e9d09fb60e11b815291049091169063bd3a13f690610f76908790879087903090600401611a04565b600060405180830381600087803b158015610f9057600080fd5b505af1158015610fa4573d6000803e3d6000fd5b505060cf5461010090046001600160a01b03169150610fc490508161085f565b508015610fd7576000805461ff00191690555b50505050565b6033546001600160a01b031633146110075760405162461bcd60e51b81526004016104b590611b31565b6001600160a01b038116156105e15760c980546001600160a01b0383166001600160a01b031990911617905550565b606060cf60019054906101000a90046001600160a01b03166001600160a01b03166395d89b416040518163ffffffff1660e01b815260040160006040518083038186803b1580156109a957600080fd5b600160cf5460ff1660018111156110ad57634e487b7160e01b600052602160045260246000fd5b146110ca5760405162461bcd60e51b81526004016104b590611b66565b6001600160a01b038116600090815260cc6020526040902054828110156111785760cf5460405163a9059cbb60e01b81526001600160a01b038481166004830152602482018490526101009092049091169063a9059cbb906044015b602060405180830381600087803b15801561114057600080fd5b505af1158015611154573d6000803e3d6000fd5b505050506040513d601f19601f82011682018060405250810190610fd791906117c2565b60cf5460405163a9059cbb60e01b81526001600160a01b038481166004830152602482018690526101009092049091169063a9059cbb90604401611126565b6033546001600160a01b031633146111e15760405162461bcd60e51b81526004016104b590611b31565b6001600160a01b0381166112465760405162461bcd60e51b815260206004820152602660248201527f4f776e61626c653a206e6577206f776e657220697320746865207a65726f206160448201526564647265737360d01b60648201526084016104b5565b6105e1816113f2565b7f360894a13ba1a3210667c828492db98dca3e2076cc3735a920a3ca505d382bbc546001600160a01b031690565b6033546001600160a01b031633146105e15760405162461bcd60e51b81526004016104b590611b31565b60006112b161124f565b90506112bc846114b8565b6000835111806112c95750815b156112da576112d8848461155d565b505b7f4910fdfa16fed3260ed0e7147f7cc6da11a60208b5b9406d12a635614ffd9143805460ff166113eb57805460ff191660011781556040516001600160a01b038316602482015261135990869060440160408051601f198184030181529190526020810180516001600160e01b0316631b2ce7f360e11b17905261155d565b50805460ff1916815561136a61124f565b6001600160a01b0316826001600160a01b0316146113e25760405162461bcd60e51b815260206004820152602f60248201527f45524331393637557067726164653a207570677261646520627265616b73206660448201526e75727468657220757067726164657360881b60648201526084016104b5565b6113eb85611648565b5050505050565b603380546001600160a01b038381166001600160a01b0319831681179093556040519116919082907f8be0079c531659141344cd1fd0a4f28419497f9722a3daafe3b4186f6b6457e090600090a35050565b600054610100900460ff168061145d575060005460ff16155b6114795760405162461bcd60e51b81526004016104b590611ae3565b600054610100900460ff1615801561149b576000805461ffff19166101011790555b6114a4336113f2565b80156105e1576000805461ff001916905550565b803b61151c5760405162461bcd60e51b815260206004820152602d60248201527f455243313936373a206e657720696d706c656d656e746174696f6e206973206e60448201526c1bdd08184818dbdb9d1c9858dd609a1b60648201526084016104b5565b7f360894a13ba1a3210667c828492db98dca3e2076cc3735a920a3ca505d382bbc80546001600160a01b0319166001600160a01b0392909216919091179055565b6060823b6115bc5760405162461bcd60e51b815260206004820152602660248201527f416464726573733a2064656c65676174652063616c6c20746f206e6f6e2d636f6044820152651b9d1c9858dd60d21b60648201526084016104b5565b600080846001600160a01b0316846040516115d79190611960565b600060405180830381855af49150503d8060008114611612576040519150601f19603f3d011682016040523d82523d6000602084013e611617565b606091505b509150915061163f828260405180606001604052806027815260200161361460279139611688565b95945050505050565b611651816114b8565b6040516001600160a01b038216907fbc7cd75a20ee27fd9adebab32041f755214dbc6bffa90cc0225b39da2e5c2d3b90600090a250565b606083156116975750816116c1565b8251156116a75782518084602001fd5b8160405162461bcd60e51b81526004016104b591906119f1565b9392505050565b61195380611cc183390190565b60006116e86116e384611bce565b611b9d565b90508281528383830111156116fc57600080fd5b828260208301376000602084830101529392505050565b80356001600160a01b038116811461085a57600080fd5b600082601f83011261173a578081fd5b6116c1838335602085016116d5565b60006020828403121561175a578081fd5b6116c182611713565b60008060408385031215611775578081fd5b61177e83611713565b9150602083013567ffffffffffffffff811115611799578182fd5b8301601f810185136117a9578182fd5b6117b8858235602084016116d5565b9150509250929050565b6000602082840312156117d3578081fd5b815180151581146116c1578182fd5b6000602082840312156117f3578081fd5b815167ffffffffffffffff811115611809578182fd5b8201601f81018413611819578182fd5b80516118276116e382611bce565b81815285602083850101111561183b578384fd5b61163f826020830160208601611c4d565b600080600060608486031215611860578081fd5b833567ffffffffffffffff80821115611877578283fd5b6118838783880161172a565b94506020860135915080821115611898578283fd5b506118a58682870161172a565b925050604084013590509250925092565b6000602082840312156118c7578081fd5b5051919050565b600080604083850312156118e0578182fd5b823591506118f060208401611713565b90509250929050565b60008060006060848603121561190d578283fd5b8335925061191d60208501611713565b915061192b60408501611713565b90509250925092565b6000815180845261194c816020860160208601611c4d565b601f01601f19169290920160200192915050565b60008251611972818460208701611c4d565b9190910192915050565b6020808252825182820181905260009190848201906040850190845b818110156119bd5783516001600160a01b031683529284019291840191600101611998565b50909695505050505050565b60208101600283106119eb57634e487b7160e01b600052602160045260246000fd5b91905290565b6020815260006116c16020830184611934565b608081526000611a176080830187611934565b8281036020840152611a298187611934565b604084019590955250506001600160a01b039190911660609091015292915050565b6020808252602c908201527f46756e6374696f6e206d7573742062652063616c6c6564207468726f7567682060408201526b19195b1959d85d1958d85b1b60a21b606082015260800190565b6020808252602c908201527f46756e6374696f6e206d7573742062652063616c6c6564207468726f7567682060408201526b6163746976652070726f787960a01b606082015260800190565b6020808252602e908201527f496e697469616c697a61626c653a20636f6e747261637420697320616c72656160408201526d191e481a5b9a5d1a585b1a5e995960921b606082015260800190565b6020808252818101527f4f776e61626c653a2063616c6c6572206973206e6f7420746865206f776e6572604082015260600190565b60208082526019908201527f54686520706f6f6c206973206e6f742066756c6c207965742100000000000000604082015260600190565b604051601f8201601f1916810167ffffffffffffffff81118282101715611bc657611bc6611caa565b604052919050565b600067ffffffffffffffff821115611be857611be8611caa565b50601f01601f191660200190565b60008219821115611c0957611c09611c94565b500190565b600082611c2957634e487b7160e01b81526012600452602481fd5b500490565b6000816000190483118215151615611c4857611c48611c94565b500290565b60005b83811015611c68578181015183820152602001611c50565b83811115610fd75750506000910152565b6000600019821415611c8d57611c8d611c94565b5060010190565b634e487b7160e01b600052601160045260246000fd5b634e487b7160e01b600052604160045260246000fdfe60a06040523060601b60805234801561001757600080fd5b5060805160601c61190861004b600039600081816104ec0152818161052c01528181610629015261066901526119086000f3fe6080604052600436106101095760003560e01c806370a0823111610095578063a457c2d711610064578063a457c2d7146102c1578063a9059cbb146102e1578063bd3a13f614610301578063dd62ed3e14610321578063f2fde38b1461036757600080fd5b806370a0823114610239578063715018a61461026f5780638da5cb5b1461028457806395d89b41146102ac57600080fd5b8063313ce567116100dc578063313ce567146101a85780633659cfe6146101c457806339509351146101e657806340c10f19146102065780634f1ef2861461022657600080fd5b806306fdde031461010e578063095ea7b31461013957806318160ddd1461016957806323b872dd14610188575b600080fd5b34801561011a57600080fd5b50610123610387565b60405161013091906115a5565b60405180910390f35b34801561014557600080fd5b506101596101543660046114e5565b610419565b6040519015158152602001610130565b34801561017557600080fd5b506035545b604051908152602001610130565b34801561019457600080fd5b506101596101a336600461144b565b610430565b3480156101b457600080fd5b5060405160128152602001610130565b3480156101d057600080fd5b506101e46101df3660046113ff565b6104e1565b005b3480156101f257600080fd5b506101596102013660046114e5565b6105aa565b34801561021257600080fd5b506101e46102213660046114e5565b6105e6565b6101e4610234366004611486565b61061e565b34801561024557600080fd5b5061017a6102543660046113ff565b6001600160a01b031660009081526033602052604090205490565b34801561027b57600080fd5b506101e46106d4565b34801561029057600080fd5b506065546040516001600160a01b039091168152602001610130565b3480156102b857600080fd5b5061012361070a565b3480156102cd57600080fd5b506101596102dc3660046114e5565b610719565b3480156102ed57600080fd5b506101596102fc3660046114e5565b6107b2565b34801561030d57600080fd5b506101e461031c36600461150e565b6107bf565b34801561032d57600080fd5b5061017a61033c366004611419565b6001600160a01b03918216600090815260346020908152604080832093909416825291909152205490565b34801561037357600080fd5b506101e46103823660046113ff565b610860565b60606036805461039690611844565b80601f01602080910402602001604051908101604052809291908181526020018280546103c290611844565b801561040f5780601f106103e45761010080835404028352916020019161040f565b820191906000526020600020905b8154815290600101906020018083116103f257829003601f168201915b5050505050905090565b60006104263384846108f8565b5060015b92915050565b600061043d848484610a1c565b6001600160a01b0384166000908152603460209081526040808320338452909152902054828110156104c75760405162461bcd60e51b815260206004820152602860248201527f45524332303a207472616e7366657220616d6f756e74206578636565647320616044820152676c6c6f77616e636560c01b60648201526084015b60405180910390fd5b6104d485338584036108f8565b60019150505b9392505050565b306001600160a01b037f000000000000000000000000000000000000000000000000000000000000000016141561052a5760405162461bcd60e51b81526004016104be906115d8565b7f00000000000000000000000000000000000000000000000000000000000000006001600160a01b031661055c610bec565b6001600160a01b0316146105825760405162461bcd60e51b81526004016104be90611624565b61058b81610c1a565b604080516000808252602082019092526105a791839190610c44565b50565b3360008181526034602090815260408083206001600160a01b038716845290915281205490916104269185906105e19086906116f3565b6108f8565b6065546001600160a01b031633146106105760405162461bcd60e51b81526004016104be906116be565b61061a8282610d88565b5050565b306001600160a01b037f00000000000000000000000000000000000000000000000000000000000000001614156106675760405162461bcd60e51b81526004016104be906115d8565b7f00000000000000000000000000000000000000000000000000000000000000006001600160a01b0316610699610bec565b6001600160a01b0316146106bf5760405162461bcd60e51b81526004016104be90611624565b6106c882610c1a565b61061a82826001610c44565b6065546001600160a01b031633146106fe5760405162461bcd60e51b81526004016104be906116be565b6107086000610e67565b565b60606037805461039690611844565b3360009081526034602090815260408083206001600160a01b03861684529091528120548281101561079b5760405162461bcd60e51b815260206004820152602560248201527f45524332303a2064656372656173656420616c6c6f77616e63652062656c6f77604482015264207a65726f60d81b60648201526084016104be565b6107a833858584036108f8565b5060019392505050565b6000610426338484610a1c565b600054610100900460ff16806107d8575060005460ff16155b6107f45760405162461bcd60e51b81526004016104be90611670565b600054610100900460ff16158015610816576000805461ffff19166101011790555b6108208585610eb9565b610828610f39565b610847826108386012600a61174e565b61084290866117f9565b610d88565b8015610859576000805461ff00191690555b5050505050565b6065546001600160a01b0316331461088a5760405162461bcd60e51b81526004016104be906116be565b6001600160a01b0381166108ef5760405162461bcd60e51b815260206004820152602660248201527f4f776e61626c653a206e6577206f776e657220697320746865207a65726f206160448201526564647265737360d01b60648201526084016104be565b6105a781610e67565b6001600160a01b03831661095a5760405162461bcd60e51b8152602060048201526024808201527f45524332303a20617070726f76652066726f6d20746865207a65726f206164646044820152637265737360e01b60648201526084016104be565b6001600160a01b0382166109bb5760405162461bcd60e51b815260206004820152602260248201527f45524332303a20617070726f766520746f20746865207a65726f206164647265604482015261737360f01b60648201526084016104be565b6001600160a01b0383811660008181526034602090815260408083209487168084529482529182902085905590518481527f8c5be1e5ebec7d5bd14f71427d1e84f3dd0314c0f7b2291e5b200ac8c7c3b925910160405180910390a3505050565b6001600160a01b038316610a805760405162461bcd60e51b815260206004820152602560248201527f45524332303a207472616e736665722066726f6d20746865207a65726f206164604482015264647265737360d81b60648201526084016104be565b6001600160a01b038216610ae25760405162461bcd60e51b815260206004820152602360248201527f45524332303a207472616e7366657220746f20746865207a65726f206164647260448201526265737360e81b60648201526084016104be565b6001600160a01b03831660009081526033602052604090205481811015610b5a5760405162461bcd60e51b815260206004820152602660248201527f45524332303a207472616e7366657220616d6f756e7420657863656564732062604482015265616c616e636560d01b60648201526084016104be565b6001600160a01b03808516600090815260336020526040808220858503905591851681529081208054849290610b919084906116f3565b92505081905550826001600160a01b0316846001600160a01b03167fddf252ad1be2c89b69c2b068fc378daa952ba7f163c4a11628f55a4df523b3ef84604051610bdd91815260200190565b60405180910390a35b50505050565b7f360894a13ba1a3210667c828492db98dca3e2076cc3735a920a3ca505d382bbc546001600160a01b031690565b6065546001600160a01b031633146105a75760405162461bcd60e51b81526004016104be906116be565b6000610c4e610bec565b9050610c5984610fad565b600083511180610c665750815b15610c7757610c758484611052565b505b7f4910fdfa16fed3260ed0e7147f7cc6da11a60208b5b9406d12a635614ffd9143805460ff1661085957805460ff191660011781556040516001600160a01b0383166024820152610cf690869060440160408051601f198184030181529190526020810180516001600160e01b0316631b2ce7f360e11b179052611052565b50805460ff19168155610d07610bec565b6001600160a01b0316826001600160a01b031614610d7f5760405162461bcd60e51b815260206004820152602f60248201527f45524331393637557067726164653a207570677261646520627265616b73206660448201526e75727468657220757067726164657360881b60648201526084016104be565b6108598561113d565b6001600160a01b038216610dde5760405162461bcd60e51b815260206004820152601f60248201527f45524332303a206d696e7420746f20746865207a65726f20616464726573730060448201526064016104be565b8060356000828254610df091906116f3565b90915550506001600160a01b03821660009081526033602052604081208054839290610e1d9084906116f3565b90915550506040518181526001600160a01b038316906000907fddf252ad1be2c89b69c2b068fc378daa952ba7f163c4a11628f55a4df523b3ef9060200160405180910390a35050565b606580546001600160a01b038381166001600160a01b0319831681179093556040519116919082907f8be0079c531659141344cd1fd0a4f28419497f9722a3daafe3b4186f6b6457e090600090a35050565b600054610100900460ff1680610ed2575060005460ff16155b610eee5760405162461bcd60e51b81526004016104be90611670565b600054610100900460ff16158015610f10576000805461ffff19166101011790555b610f1861117d565b610f2283836111e7565b8015610f34576000805461ff00191690555b505050565b600054610100900460ff1680610f52575060005460ff16155b610f6e5760405162461bcd60e51b81526004016104be90611670565b600054610100900460ff16158015610f90576000805461ffff19166101011790555b610f9933610e67565b80156105a7576000805461ff001916905550565b803b6110115760405162461bcd60e51b815260206004820152602d60248201527f455243313936373a206e657720696d706c656d656e746174696f6e206973206e60448201526c1bdd08184818dbdb9d1c9858dd609a1b60648201526084016104be565b7f360894a13ba1a3210667c828492db98dca3e2076cc3735a920a3ca505d382bbc80546001600160a01b0319166001600160a01b0392909216919091179055565b6060823b6110b15760405162461bcd60e51b815260206004820152602660248201527f416464726573733a2064656c65676174652063616c6c20746f206e6f6e2d636f6044820152651b9d1c9858dd60d21b60648201526084016104be565b600080846001600160a01b0316846040516110cc9190611589565b600060405180830381855af49150503d8060008114611107576040519150601f19603f3d011682016040523d82523d6000602084013e61110c565b606091505b509150915061113482826040518060600160405280602781526020016118ac6027913961127c565b95945050505050565b61114681610fad565b6040516001600160a01b038216907fbc7cd75a20ee27fd9adebab32041f755214dbc6bffa90cc0225b39da2e5c2d3b90600090a250565b600054610100900460ff1680611196575060005460ff16155b6111b25760405162461bcd60e51b81526004016104be90611670565b600054610100900460ff16158015610f99576000805461ffff191661010117905580156105a7576000805461ff001916905550565b600054610100900460ff1680611200575060005460ff16155b61121c5760405162461bcd60e51b81526004016104be90611670565b600054610100900460ff1615801561123e576000805461ffff19166101011790555b82516112519060369060208601906112b5565b5081516112659060379060208501906112b5565b508015610f34576000805461ff0019169055505050565b6060831561128b5750816104da565b82511561129b5782518084602001fd5b8160405162461bcd60e51b81526004016104be91906115a5565b8280546112c190611844565b90600052602060002090601f0160209004810192826112e35760008555611329565b82601f106112fc57805160ff1916838001178555611329565b82800160010185558215611329579182015b8281111561132957825182559160200191906001019061130e565b50611335929150611339565b5090565b5b80821115611335576000815560010161133a565b600067ffffffffffffffff8084111561136957611369611895565b604051601f8501601f19908116603f0116810190828211818310171561139157611391611895565b816040528093508581528686860111156113aa57600080fd5b858560208301376000602087830101525050509392505050565b80356001600160a01b03811681146113db57600080fd5b919050565b600082601f8301126113f0578081fd5b6104da8383356020850161134e565b600060208284031215611410578081fd5b6104da826113c4565b6000806040838503121561142b578081fd5b611434836113c4565b9150611442602084016113c4565b90509250929050565b60008060006060848603121561145f578081fd5b611468846113c4565b9250611476602085016113c4565b9150604084013590509250925092565b60008060408385031215611498578182fd5b6114a1836113c4565b9150602083013567ffffffffffffffff8111156114bc578182fd5b8301601f810185136114cc578182fd5b6114db8582356020840161134e565b9150509250929050565b600080604083850312156114f7578182fd5b611500836113c4565b946020939093013593505050565b60008060008060808587031215611523578081fd5b843567ffffffffffffffff8082111561153a578283fd5b611546888389016113e0565b9550602087013591508082111561155b578283fd5b50611568878288016113e0565b9350506040850135915061157e606086016113c4565b905092959194509250565b6000825161159b818460208701611818565b9190910192915050565b60208152600082518060208401526115c4816040850160208701611818565b601f01601f19169190910160400192915050565b6020808252602c908201527f46756e6374696f6e206d7573742062652063616c6c6564207468726f7567682060408201526b19195b1959d85d1958d85b1b60a21b606082015260800190565b6020808252602c908201527f46756e6374696f6e206d7573742062652063616c6c6564207468726f7567682060408201526b6163746976652070726f787960a01b606082015260800190565b6020808252602e908201527f496e697469616c697a61626c653a20636f6e747261637420697320616c72656160408201526d191e481a5b9a5d1a585b1a5e995960921b606082015260800190565b6020808252818101527f4f776e61626c653a2063616c6c6572206973206e6f7420746865206f776e6572604082015260600190565b600082198211156117065761170661187f565b500190565b600181815b8085111561174657816000190482111561172c5761172c61187f565b8085161561173957918102915b93841c9390800290611710565b509250929050565b60006104da60ff8416836000826117675750600161042a565b816117745750600061042a565b816001811461178a5760028114611794576117b0565b600191505061042a565b60ff8411156117a5576117a561187f565b50506001821b61042a565b5060208310610133831016604e8410600b84101617156117d3575081810a61042a565b6117dd838361170b565b80600019048211156117f1576117f161187f565b029392505050565b60008160001904831182151516156118135761181361187f565b500290565b60005b8381101561183357818101518382015260200161181b565b83811115610be65750506000910152565b600181811c9082168061185857607f821691505b6020821081141561187957634e487b7160e01b600052602260045260246000fd5b50919050565b634e487b7160e01b600052601160045260246000fd5b634e487b7160e01b600052604160045260246000fdfe416464726573733a206c6f772d6c6576656c2064656c65676174652063616c6c206661696c6564a2646970667358221220a4d4c08a632906d4cae7629edaa73d8c30e3cc8576c3e0f57d8e2405d2e18edf64736f6c63430008040033416464726573733a206c6f772d6c6576656c2064656c65676174652063616c6c206661696c6564a264697066735822122010e84ab20d236f63bd01b158a0e28ebe6e64405f8622f2acf13d5919e8e0373564736f6c63430008040033",
  "linkReferences": {},
  "deployedLinkReferences": {}
}