{
  "_format": "hh-sol-artifact-1",
  "contractName": "Vault",
  "sourceName": "contracts/Vault.sol",
  "abi": [
    {
      "anonymous": false,
      "inputs": [
        {
          "indexed": false,
          "internalType": "address",
          "name": "previousAdmin",
          "type": "address"
        },
        {
          "indexed": false,
          "internalType": "address",
          "name": "newAdmin",
          "type": "address"
        }
      ],
      "name": "AdminChanged",
      "type": "event"
    },
    {
      "anonymous": false,
      "inputs": [
        {
          "indexed": true,
          "internalType": "address",
          "name": "beacon",
          "type": "address"
        }
      ],
      "name": "BeaconUpgraded",
      "type": "event"
    },
    {
      "anonymous": false,
      "inputs": [
        {
          "indexed": false,
          "internalType": "address",
          "name": "vaultAddr",
          "type": "address"
        },
        {
          "indexed": false,
          "internalType": "address",
          "name": "sender",
          "type": "address"
        },
        {
          "indexed": false,
          "internalType": "uint256",
          "name": "deposit",
          "type": "uint256"
        }
      ],
      "name": "NewDeposit",
      "type": "event"
    },
    {
      "anonymous": false,
      "inputs": [
        {
          "indexed": true,
          "internalType": "address",
          "name": "previousOwner",
          "type": "address"
        },
        {
          "indexed": true,
          "internalType": "address",
          "name": "newOwner",
          "type": "address"
        }
      ],
      "name": "OwnershipTransferred",
      "type": "event"
    },
    {
      "anonymous": false,
      "inputs": [
        {
          "indexed": true,
          "internalType": "address",
          "name": "vaultAddr",
          "type": "address"
        },
        {
          "indexed": true,
          "internalType": "address",
          "name": "oracleAddr",
          "type": "address"
        },
        {
          "indexed": false,
          "internalType": "uint256",
          "name": "amount",
          "type": "uint256"
        }
      ],
      "name": "TransferToOracle",
      "type": "event"
    },
    {
      "anonymous": false,
      "inputs": [
        {
          "indexed": true,
          "internalType": "address",
          "name": "implementation",
          "type": "address"
        }
      ],
      "name": "Upgraded",
      "type": "event"
    },
    {
      "inputs": [
        {
          "internalType": "address",
          "name": "_assetAddress",
          "type": "address"
        }
      ],
      "name": "addErc20Asset",
      "outputs": [],
      "stateMutability": "nonpayable",
      "type": "function"
    },
    {
      "inputs": [
        {
          "internalType": "uint256",
          "name": "_amount",
          "type": "uint256"
        },
        {
          "internalType": "address",
          "name": "_user",
          "type": "address"
        }
      ],
      "name": "autoStake",
      "outputs": [],
      "stateMutability": "nonpayable",
      "type": "function"
    },
    {
      "inputs": [
        {
          "internalType": "uint256",
          "name": "_amount",
          "type": "uint256"
        },
        {
          "internalType": "address",
          "name": "_user",
          "type": "address"
        }
      ],
      "name": "claimTokens",
      "outputs": [],
      "stateMutability": "nonpayable",
      "type": "function"
    },
    {
      "inputs": [],
      "name": "distributeTokens",
      "outputs": [],
      "stateMutability": "nonpayable",
      "type": "function"
    },
    {
      "inputs": [],
      "name": "getBalance",
      "outputs": [
        {
          "internalType": "uint256",
          "name": "",
          "type": "uint256"
        }
      ],
      "stateMutability": "view",
      "type": "function"
    },
    {
      "inputs": [],
      "name": "getERC20TokenAddress",
      "outputs": [
        {
          "internalType": "address",
          "name": "",
          "type": "address"
        }
      ],
      "stateMutability": "view",
      "type": "function"
    },
    {
      "inputs": [],
      "name": "getERC20TokenName",
      "outputs": [
        {
          "internalType": "string",
          "name": "",
          "type": "string"
        }
      ],
      "stateMutability": "view",
      "type": "function"
    },
    {
      "inputs": [],
      "name": "getERC20TokenTicker",
      "outputs": [
        {
          "internalType": "string",
          "name": "",
          "type": "string"
        }
      ],
      "stateMutability": "view",
      "type": "function"
    },
    {
      "inputs": [],
      "name": "getErc20Assets",
      "outputs": [
        {
          "internalType": "address[]",
          "name": "",
          "type": "address[]"
        }
      ],
      "stateMutability": "view",
      "type": "function"
    },
    {
      "inputs": [
        {
          "internalType": "address",
          "name": "_user",
          "type": "address"
        }
      ],
      "name": "getStake",
      "outputs": [
        {
          "internalType": "uint256",
          "name": "",
          "type": "uint256"
        }
      ],
      "stateMutability": "view",
      "type": "function"
    },
    {
      "inputs": [],
      "name": "getTokenAddress",
      "outputs": [
        {
          "internalType": "address",
          "name": "",
          "type": "address"
        }
      ],
      "stateMutability": "view",
      "type": "function"
    },
    {
      "inputs": [],
      "name": "getTotal",
      "outputs": [
        {
          "internalType": "uint256",
          "name": "",
          "type": "uint256"
        }
      ],
      "stateMutability": "view",
      "type": "function"
    },
    {
      "inputs": [
        {
          "internalType": "address",
          "name": "_user",
          "type": "address"
        }
      ],
      "name": "getUserDeposit",
      "outputs": [
        {
          "internalType": "uint256",
          "name": "",
          "type": "uint256"
        }
      ],
      "stateMutability": "view",
      "type": "function"
    },
    {
      "inputs": [
        {
          "internalType": "string",
          "name": "_name",
          "type": "string"
        },
        {
          "internalType": "string",
          "name": "_ticker",
          "type": "string"
        },
        {
          "internalType": "uint256",
          "name": "_shares_amount",
          "type": "uint256"
        }
      ],
      "name": "initialize",
      "outputs": [],
      "stateMutability": "nonpayable",
      "type": "function"
    },
    {
      "inputs": [],
      "name": "initiator",
      "outputs": [
        {
          "internalType": "address",
          "name": "",
          "type": "address"
        }
      ],
      "stateMutability": "view",
      "type": "function"
    },
    {
      "inputs": [],
      "name": "nextStage",
      "outputs": [],
      "stateMutability": "nonpayable",
      "type": "function"
    },
    {
      "inputs": [
        {
          "internalType": "address",
          "name": "operator",
          "type": "address"
        },
        {
          "internalType": "address",
          "name": "from",
          "type": "address"
        },
        {
          "internalType": "uint256[]",
          "name": "ids",
          "type": "uint256[]"
        },
        {
          "internalType": "uint256[]",
          "name": "values",
          "type": "uint256[]"
        },
        {
          "internalType": "bytes",
          "name": "data",
          "type": "bytes"
        }
      ],
      "name": "onERC1155BatchReceived",
      "outputs": [
        {
          "internalType": "bytes4",
          "name": "",
          "type": "bytes4"
        }
      ],
      "stateMutability": "nonpayable",
      "type": "function"
    },
    {
      "inputs": [
        {
          "internalType": "address",
          "name": "operator",
          "type": "address"
        },
        {
          "internalType": "address",
          "name": "from",
          "type": "address"
        },
        {
          "internalType": "uint256",
          "name": "tokenId",
          "type": "uint256"
        },
        {
          "internalType": "uint256",
          "name": "value",
          "type": "uint256"
        },
        {
          "internalType": "bytes",
          "name": "data",
          "type": "bytes"
        }
      ],
      "name": "onERC1155Received",
      "outputs": [
        {
          "internalType": "bytes4",
          "name": "",
          "type": "bytes4"
        }
      ],
      "stateMutability": "nonpayable",
      "type": "function"
    },
    {
      "inputs": [
        {
          "internalType": "address",
          "name": "operator",
          "type": "address"
        },
        {
          "internalType": "address",
          "name": "from",
          "type": "address"
        },
        {
          "internalType": "uint256",
          "name": "tokenId",
          "type": "uint256"
        },
        {
          "internalType": "bytes",
          "name": "data",
          "type": "bytes"
        }
      ],
      "name": "onERC721Received",
      "outputs": [
        {
          "internalType": "bytes4",
          "name": "",
          "type": "bytes4"
        }
      ],
      "stateMutability": "nonpayable",
      "type": "function"
    },
    {
      "inputs": [],
      "name": "owner",
      "outputs": [
        {
          "internalType": "address",
          "name": "",
          "type": "address"
        }
      ],
      "stateMutability": "view",
      "type": "function"
    },
    {
      "inputs": [
        {
          "internalType": "address",
          "name": "_user",
          "type": "address"
        }
      ],
      "name": "recieveDeposit",
      "outputs": [],
      "stateMutability": "payable",
      "type": "function"
    },
    {
      "inputs": [],
      "name": "recieveTokenPayment",
      "outputs": [],
      "stateMutability": "payable",
      "type": "function"
    },
    {
      "inputs": [],
      "name": "renounceOwnership",
      "outputs": [],
      "stateMutability": "nonpayable",
      "type": "function"
    },
    {
      "inputs": [
        {
          "internalType": "address",
          "name": "_new_initiator",
          "type": "address"
        }
      ],
      "name": "setInitiator",
      "outputs": [],
      "stateMutability": "nonpayable",
      "type": "function"
    },
    {
      "inputs": [],
      "name": "stage",
      "outputs": [
        {
          "internalType": "enum Vault.Stages",
          "name": "",
          "type": "uint8"
        }
      ],
      "stateMutability": "view",
      "type": "function"
    },
    {
      "inputs": [
        {
          "internalType": "bytes4",
          "name": "interfaceId",
          "type": "bytes4"
        }
      ],
      "name": "supportsInterface",
      "outputs": [
        {
          "internalType": "bool",
          "name": "",
          "type": "bool"
        }
      ],
      "stateMutability": "view",
      "type": "function"
    },
    {
      "inputs": [],
      "name": "tokenToInitiator",
      "outputs": [],
      "stateMutability": "nonpayable",
      "type": "function"
    },
    {
      "inputs": [
        {
          "internalType": "address",
          "name": "newOwner",
          "type": "address"
        }
      ],
      "name": "transferOwnership",
      "outputs": [],
      "stateMutability": "nonpayable",
      "type": "function"
    },
    {
      "inputs": [
        {
          "internalType": "uint256",
          "name": "_amount",
          "type": "uint256"
        }
      ],
      "name": "transferToOracle",
      "outputs": [],
      "stateMutability": "nonpayable",
      "type": "function"
    },
    {
      "inputs": [
        {
          "internalType": "address",
          "name": "newImplementation",
          "type": "address"
        }
      ],
      "name": "upgradeTo",
      "outputs": [],
      "stateMutability": "nonpayable",
      "type": "function"
    },
    {
      "inputs": [
        {
          "internalType": "address",
          "name": "newImplementation",
          "type": "address"
        },
        {
          "internalType": "bytes",
          "name": "data",
          "type": "bytes"
        }
      ],
      "name": "upgradeToAndCall",
      "outputs": [],
      "stateMutability": "payable",
      "type": "function"
    },
    {
      "inputs": [
        {
          "internalType": "uint256",
          "name": "_amount",
          "type": "uint256"
        }
      ],
      "name": "withdrawDeposit",
      "outputs": [],
      "stateMutability": "nonpayable",
      "type": "function"
    },
    {
      "inputs": [],
      "name": "withdrawFinal",
      "outputs": [],
      "stateMutability": "nonpayable",
      "type": "function"
    }
  ],
  "bytecode": "0x60a06040523060601b60805260d6805460ff1916905534801561002157600080fd5b5060805160601c613ed8610055600039600081816108f20152818161093201528181610b970152610bd70152613ed86000f3fe60806040526004361061017e5760003560e01c806301ffc9a7146101835780630bcf70d9146101c957806310fe9ae8146101eb57806312065fe01461020d578063150b7a021461022a5780631d9a4bf21461026357806333289a46146102855780633659cfe6146102a557806346eba9b3146102c55780634c3c2372146102da5780634f1ef286146102fc578063521ad8291461030f5780635aac895b1461032f5780635c39fcc114610342578063624aa0fd146103625780636e164e2314610380578063715018a6146103a0578063775a25e3146103b55780637a766460146103ca57806385a383d0146103ea5780638da5cb5b1461040a5780639ab1b4841461041f5780639ebb125014610434578063b119490e14610449578063b322e9a914610469578063b61b2c431461047e578063bc197c8114610486578063c040e6b8146104b5578063c084b10b146104dc578063d59dfd6114610512578063ee3743ab14610532578063f23a6e6114610547578063f2fde38b14610567575b600080fd5b34801561018f57600080fd5b506101b461019e366004612080565b6001600160e01b0319166301ffc9a760e01b1490565b60405190151581526020015b60405180910390f35b3480156101d557600080fd5b506101e96101e436600461217a565b610587565b005b3480156101f757600080fd5b5061020061063c565b6040516101c0919061221d565b34801561021957600080fd5b50475b6040519081526020016101c0565b34801561023657600080fd5b5061024a610245366004611f21565b610681565b6040516001600160e01b031990911681526020016101c0565b34801561026f57600080fd5b5061027861070c565b6040516101c091906122b3565b34801561029157600080fd5b506101e96102a036600461217a565b61079e565b3480156102b157600080fd5b506101e96102c0366004611e51565b6108e7565b3480156102d157600080fd5b506101e96109b0565b3480156102e657600080fd5b506102ef610b06565b6040516101c09190612328565b6101e961030a366004612002565b610b8c565b34801561031b57600080fd5b506101e961032a3660046121aa565b610c46565b6101e961033d366004611e51565b610caa565b34801561034e57600080fd5b5060c954610200906001600160a01b031681565b34801561036e57600080fd5b5060d4546001600160a01b0316610200565b34801561038c57600080fd5b506101e961039b3660046121aa565b610dc9565b3480156103ac57600080fd5b506101e9610fa1565b3480156103c157600080fd5b5060d55461021c565b3480156103d657600080fd5b5061021c6103e5366004611e51565b610fdc565b3480156103f657600080fd5b506101e9610405366004611e51565b61102d565b34801561041657600080fd5b5061020061112b565b34801561042b57600080fd5b506101e961113a565b34801561044057600080fd5b506101e961139f565b34801561045557600080fd5b506101e9610464366004612111565b61148f565b34801561047557600080fd5b506102ef61160b565b6101e9611650565b34801561049257600080fd5b5061024a6104a1366004611e6b565b63bc197c8160e01b98975050505050505050565b3480156104c157600080fd5b5060d6546104cf9060ff1681565b6040516101c09190612300565b3480156104e857600080fd5b5061021c6104f7366004611e51565b6001600160a01b0316600090815260cb602052604090205490565b34801561051e57600080fd5b506101e961052d366004611e51565b6116c1565b34801561053e57600080fd5b506101e961171f565b34801561055357600080fd5b5061024a610562366004611f8d565b6117c9565b34801561057357600080fd5b506101e9610582366004611e51565b611857565b60c9546001600160a01b031633146105ba5760405162461bcd60e51b81526004016105b1906123bc565b60405180910390fd5b60c9546040516001600160a01b039091169082156108fc029083906000818181858888f193505050501580156105f4573d6000803e3d6000fd5b5060c9546040518281526001600160a01b039091169030907fec81baf44a01b9ebf929a2549dea1929ade755e2c39675465b7b7af5681adaa99060200160405180910390a350565b600060038060d65460ff16600481111561066657634e487b7160e01b600052602160045260246000fd5b1461067057600080fd5b505060cf546001600160a01b031690565b600060018060d65460ff1660048111156106ab57634e487b7160e01b600052602160045260246000fd5b146106b557600080fd5b60cf8054336001600160a01b03199182161790915560d080549091166001600160a01b03881617905560d185905560d2805460ff19166001179055630a85bd0160e11b9150610702611749565b5095945050505050565b606060018060d65460ff16600481111561073657634e487b7160e01b600052602160045260246000fd5b1461074057600080fd5b60ce80546040805160208084028201810190925282815292919083018282801561079357602002820191906000526020600020905b81546001600160a01b03168152600190910190602001808311610775575b505050505091505090565b60008060d65460ff1660048111156107c657634e487b7160e01b600052602160045260246000fd5b146107d057600080fd5b33600090815260cb60205260409020546108265760405162461bcd60e51b8152602060048201526017602482015276151a19481d5cd95c881a185cc81b9bc819195c1bdcda5d604a1b60448201526064016105b1565b33600090815260cb60205260409020548211156108915760405162461bcd60e51b8152602060048201526024808201527f4e6f7420656e6f756768206465706f736974206f6e207573657227732062616c604482015263616e636560e01b60648201526084016105b1565b33600090815260cb6020526040812080548492906108b0908490612536565b9091555050604051339083156108fc029084906000818181858888f193505050501580156108e2573d6000803e3d6000fd5b505050565b306001600160a01b037f00000000000000000000000000000000000000000000000000000000000000001614156109305760405162461bcd60e51b81526004016105b190612382565b7f00000000000000000000000000000000000000000000000000000000000000006001600160a01b03166109626118f4565b6001600160a01b0316146109885760405162461bcd60e51b81526004016105b190612419565b61099181611910565b604080516000808252602082019092526109ad9183919061193f565b50565b60038060d65460ff1660048111156109d857634e487b7160e01b600052602160045260246000fd5b146109e257600080fd5b60c9546001600160a01b03163314610a0c5760405162461bcd60e51b81526004016105b1906123bc565b60d25460ff1660011415610a8c5760cf5460c95460d154604051632142170760e11b81526001600160a01b039384169384936342842e0e93610a5693309390921691600401612231565b600060405180830381600087803b158015610a7057600080fd5b505af1158015610a84573d6000803e3d6000fd5b505050505050565b60cf5460c95460d154604051637921219560e11b81526001600160a01b0393841693606093859363f242432a93610acf9330931691906001908890600401612255565b600060405180830381600087803b158015610ae957600080fd5b505af1158015610afd573d6000803e3d6000fd5b50505050505050565b60d454604080516306fdde0360e01b815290516060926001600160a01b0316916306fdde03916004808301926000929190829003018186803b158015610b4b57600080fd5b505afa158015610b5f573d6000803e3d6000fd5b505050506040513d6000823e601f3d908101601f19168201604052610b8791908101906120a8565b905090565b306001600160a01b037f0000000000000000000000000000000000000000000000000000000000000000161415610bd55760405162461bcd60e51b81526004016105b190612382565b7f00000000000000000000000000000000000000000000000000000000000000006001600160a01b0316610c076118f4565b6001600160a01b031614610c2d5760405162461bcd60e51b81526004016105b190612419565b610c3682611910565b610c428282600161193f565b5050565b60018060d65460ff166004811115610c6e57634e487b7160e01b600052602160045260246000fd5b14610c7857600080fd5b6001600160a01b038216600090815260cc602052604081208054859290610ca09084906124df565b9091555050505050565b60008060d65460ff166004811115610cd257634e487b7160e01b600052602160045260246000fd5b14610cdc57600080fd5b6001600160a01b038216600090815260cb6020526040902054610d455760ca80546001810182556000919091527f42d72674974f694b5f5159593243114d38a5c39c89d6b62fee061ff523240ee10180546001600160a01b0319166001600160a01b0384161790555b3460d56000828254610d5791906124df565b90915550506001600160a01b038216600090815260cb602052604081208054349290610d849084906124df565b90915550506040517f83df459d706116d1b3f1c7b7f77cfea4c635275f5d1e1a53827f536ef48db77d90610dbd90309085903490612231565b60405180910390a15050565b60018060d65460ff166004811115610df157634e487b7160e01b600052602160045260246000fd5b14610dfb57600080fd5b336001600160a01b03831614610e1057600080fd5b6001600160a01b038216600090815260cc602052604090205483811015610ee8576001600160a01b038316600090815260cc602052604081208054839290610e59908490612536565b909155505060d45460405163a9059cbb60e01b81526001600160a01b039091169063a9059cbb90610e90908690859060040161229a565b602060405180830381600087803b158015610eaa57600080fd5b505af1158015610ebe573d6000803e3d6000fd5b505050506040513d601f19601f82011682018060405250810190610ee29190612060565b50610f9b565b6001600160a01b038316600090815260cc602052604081208054869290610f10908490612536565b909155505060d45460405163a9059cbb60e01b81526001600160a01b039091169063a9059cbb90610f47908690889060040161229a565b602060405180830381600087803b158015610f6157600080fd5b505af1158015610f75573d6000803e3d6000fd5b505050506040513d601f19601f82011682018060405250810190610f999190612060565b505b50505050565b33610faa61112b565b6001600160a01b031614610fd05760405162461bcd60e51b81526004016105b190612453565b610fda6000611a7f565b565b600060018060d65460ff16600481111561100657634e487b7160e01b600052602160045260246000fd5b1461101057600080fd5b50506001600160a01b0316600090815260cc602052604090205490565b3361103661112b565b6001600160a01b03161461105c5760405162461bcd60e51b81526004016105b190612453565b6001600160a01b038116600090815260cd602052604090205460ff16156110c45760405162461bcd60e51b815260206004820152601c60248201527b151a1a5cc8185cdcd95d081a5cc8185b1c9958591e481b1bd8dad95960221b60448201526064016105b1565b60ce805460018181019092557fd36cd1c74ef8d7326d8021b776c18fb5a5724b7f7bc93c2f42e43e10ef27d12a0180546001600160a01b039093166001600160a01b031990931683179055600091825260cd6020526040909120805460ff19169091179055565b6033546001600160a01b031690565b60018060d65460ff16600481111561116257634e487b7160e01b600052602160045260246000fd5b1461116c57600080fd5b3361117561112b565b6001600160a01b03161461119b5760405162461bcd60e51b81526004016105b190612453565b60d55460d454604080516318160ddd60e01b81529051600093926001600160a01b0316916318160ddd916004808301926020929190829003018186803b1580156111e457600080fd5b505afa1580156111f8573d6000803e3d6000fd5b505050506040513d601f19601f8201168201806040525081019061121c9190612192565b61122691906124f7565b60d454604080516318160ddd60e01b815290519293506001600160a01b039091169163095ea7b391309184916318160ddd916004808301926020929190829003018186803b15801561127757600080fd5b505afa15801561128b573d6000803e3d6000fd5b505050506040513d601f19601f820116820180604052508101906112af9190612192565b6040518363ffffffff1660e01b81526004016112cc92919061229a565b602060405180830381600087803b1580156112e657600080fd5b505af11580156112fa573d6000803e3d6000fd5b505050506040513d601f19601f8201168201806040525081019061131e9190612060565b5060005b60ca548110156108e257600060ca828154811061134f57634e487b7160e01b600052603260045260246000fd5b60009182526020808320909101546001600160a01b031680835260cb90915260409091205490915061138c90611386908590612517565b82610c46565b508061139781612579565b915050611322565b60048060d65460ff1660048111156113c757634e487b7160e01b600052602160045260246000fd5b146113d157600080fd5b33600090815260cb602052604090205461142d5760405162461bcd60e51b815260206004820152601f60248201527f546869732075736572206973206e6f742061207061727469636970616e742e0060448201526064016105b1565b33600090815260cb602052604081205460d55461144a91906124f7565b905060008160cf6004015461145f91906124f7565b604051909150339082156108fc029083906000818181858888f19350505050158015610f9b573d6000803e3d6000fd5b600054610100900460ff166114aa5760005460ff16156114ae565b303b155b6115115760405162461bcd60e51b815260206004820152602e60248201527f496e697469616c697a61626c653a20636f6e747261637420697320616c72656160448201526d191e481a5b9a5d1a585b1a5e995960921b60648201526084016105b1565b600054610100900460ff16158015611533576000805461ffff19166101011790555b61153b611ad1565b60405161154790611d43565b604051809103906000f080158015611563573d6000803e3d6000fd5b5060d480546001600160a01b0319166001600160a01b03929092169182179055604051635e9d09fb60e11b815263bd3a13f6906115aa90879087908790309060040161233b565b600060405180830381600087803b1580156115c457600080fd5b505af11580156115d8573d6000803e3d6000fd5b505060d4546001600160a01b031691506115f390508161102d565b508015610f9b576000805461ff001916905550505050565b60d454604080516395d89b4160e01b815290516060926001600160a01b0316916395d89b41916004808301926000929190829003018186803b158015610b4b57600080fd5b60038060d65460ff16600481111561167857634e487b7160e01b600052602160045260246000fd5b1461168257600080fd5b60c9546001600160a01b031633146116ac5760405162461bcd60e51b81526004016105b1906123bc565b6116b634476124df565b60d3556109ad611749565b336116ca61112b565b6001600160a01b0316146116f05760405162461bcd60e51b81526004016105b190612453565b6001600160a01b038116156109ad5760c980546001600160a01b0383166001600160a01b031990911617905550565b60c9546001600160a01b031633146117495760405162461bcd60e51b81526004016105b1906123bc565b60d65460ff16600481111561176e57634e487b7160e01b600052602160045260246000fd5b6117799060016124df565b600481111561179857634e487b7160e01b600052602160045260246000fd5b60d6805460ff191660018360048111156117c257634e487b7160e01b600052602160045260246000fd5b0217905550565b600060018060d65460ff1660048111156117f357634e487b7160e01b600052602160045260246000fd5b146117fd57600080fd5b60cf80546001600160a01b0319908116331790915560d080546001600160a01b038a16921691909117905560d186905560d2805460ff1916600217905563f23a6e6160e01b915061184c611749565b509695505050505050565b3361186061112b565b6001600160a01b0316146118865760405162461bcd60e51b81526004016105b190612453565b6001600160a01b0381166118eb5760405162461bcd60e51b815260206004820152602660248201527f4f776e61626c653a206e6577206f776e657220697320746865207a65726f206160448201526564647265737360d01b60648201526084016105b1565b6109ad81611a7f565b600080516020613e5c833981519152546001600160a01b031690565b3361191961112b565b6001600160a01b0316146109ad5760405162461bcd60e51b81526004016105b190612453565b60006119496118f4565b905061195484611b45565b6000835111806119615750815b15611972576119708484611bd8565b505b7f4910fdfa16fed3260ed0e7147f7cc6da11a60208b5b9406d12a635614ffd9143805460ff16610f9957805460ff191660011781556040516119ed9086906119be90859060240161221d565b60408051601f198184030181529190526020810180516001600160e01b0316631b2ce7f360e11b179052611bd8565b50805460ff191681556119fe6118f4565b6001600160a01b0316826001600160a01b031614611a765760405162461bcd60e51b815260206004820152602f60248201527f45524331393637557067726164653a207570677261646520627265616b73206660448201526e75727468657220757067726164657360881b60648201526084016105b1565b610f9985611cc3565b603380546001600160a01b038381166001600160a01b0319831681179093556040519116919082907f8be0079c531659141344cd1fd0a4f28419497f9722a3daafe3b4186f6b6457e090600090a35050565b600054610100900460ff16611b3c5760405162461bcd60e51b815260206004820152602b60248201527f496e697469616c697a61626c653a20636f6e7472616374206973206e6f74206960448201526a6e697469616c697a696e6760a81b60648201526084016105b1565b610fda33611a7f565b803b611ba95760405162461bcd60e51b815260206004820152602d60248201527f455243313936373a206e657720696d706c656d656e746174696f6e206973206e60448201526c1bdd08184818dbdb9d1c9858dd609a1b60648201526084016105b1565b600080516020613e5c83398151915280546001600160a01b0319166001600160a01b0392909216919091179055565b6060823b611c375760405162461bcd60e51b815260206004820152602660248201527f416464726573733a2064656c65676174652063616c6c20746f206e6f6e2d636f6044820152651b9d1c9858dd60d21b60648201526084016105b1565b600080846001600160a01b031684604051611c529190612201565b600060405180830381855af49150503d8060008114611c8d576040519150601f19603f3d011682016040523d82523d6000602084013e611c92565b606091505b5091509150611cba8282604051806060016040528060278152602001613e7c60279139611d03565b95945050505050565b611ccc81611b45565b6040516001600160a01b038216907fbc7cd75a20ee27fd9adebab32041f755214dbc6bffa90cc0225b39da2e5c2d3b90600090a250565b60608315611d12575081611d3c565b825115611d225782518084602001fd5b8160405162461bcd60e51b81526004016105b19190612328565b9392505050565b61187b806125c183390190565b6000611d63611d5e846124b8565b612488565b9050828152838383011115611d7757600080fd5b828260208301376000602084830101529392505050565b80356001600160a01b0381168114611da557600080fd5b919050565b60008083601f840112611dbb578182fd5b5081356001600160401b03811115611dd1578182fd5b6020830191508360208260051b8501011115611dec57600080fd5b9250929050565b60008083601f840112611e04578182fd5b5081356001600160401b03811115611e1a578182fd5b602083019150836020828501011115611dec57600080fd5b600082601f830112611e42578081fd5b611d3c83833560208501611d50565b600060208284031215611e62578081fd5b611d3c82611d8e565b60008060008060008060008060a0898b031215611e86578384fd5b611e8f89611d8e565b9750611e9d60208a01611d8e565b965060408901356001600160401b0380821115611eb8578586fd5b611ec48c838d01611daa565b909850965060608b0135915080821115611edc578586fd5b611ee88c838d01611daa565b909650945060808b0135915080821115611f00578384fd5b50611f0d8b828c01611df3565b999c989b5096995094979396929594505050565b600080600080600060808688031215611f38578081fd5b611f4186611d8e565b9450611f4f60208701611d8e565b93506040860135925060608601356001600160401b03811115611f70578182fd5b611f7c88828901611df3565b969995985093965092949392505050565b60008060008060008060a08789031215611fa5578182fd5b611fae87611d8e565b9550611fbc60208801611d8e565b9450604087013593506060870135925060808701356001600160401b03811115611fe4578283fd5b611ff089828a01611df3565b979a9699509497509295939492505050565b60008060408385031215612014578182fd5b61201d83611d8e565b915060208301356001600160401b03811115612037578182fd5b8301601f81018513612047578182fd5b61205685823560208401611d50565b9150509250929050565b600060208284031215612071578081fd5b81518015158114611d3c578182fd5b600060208284031215612091578081fd5b81356001600160e01b031981168114611d3c578182fd5b6000602082840312156120b9578081fd5b81516001600160401b038111156120ce578182fd5b8201601f810184136120de578182fd5b80516120ec611d5e826124b8565b818152856020838501011115612100578384fd5b611cba82602083016020860161254d565b600080600060608486031215612125578283fd5b83356001600160401b038082111561213b578485fd5b61214787838801611e32565b9450602086013591508082111561215c578384fd5b5061216986828701611e32565b925050604084013590509250925092565b60006020828403121561218b578081fd5b5035919050565b6000602082840312156121a3578081fd5b5051919050565b600080604083850312156121bc578182fd5b823591506121cc60208401611d8e565b90509250929050565b600081518084526121ed81602086016020860161254d565b601f01601f19169290920160200192915050565b6000825161221381846020870161254d565b9190910192915050565b6001600160a01b0391909116815260200190565b6001600160a01b039384168152919092166020820152604081019190915260600190565b6001600160a01b03868116825285166020820152604081018490526060810183905260a06080820181905260009061228f908301846121d5565b979650505050505050565b6001600160a01b03929092168252602082015260400190565b6020808252825182820181905260009190848201906040850190845b818110156122f45783516001600160a01b0316835292840192918401916001016122cf565b50909695505050505050565b602081016005831061232257634e487b7160e01b600052602160045260246000fd5b91905290565b602081526000611d3c60208301846121d5565b60808152600061234e60808301876121d5565b828103602084015261236081876121d5565b604084019590955250506001600160a01b039190911660609091015292915050565b6020808252602c90820152600080516020613e3c83398151915260408201526b19195b1959d85d1958d85b1b60a21b606082015260800190565b6020808252603f908201527f546f2072756e2074686973206d6574686f6420796f75206e65656420746f206260408201527f6520616e20696e69746961746f72206f662074686520636f6e74726163742e00606082015260800190565b6020808252602c90820152600080516020613e3c83398151915260408201526b6163746976652070726f787960a01b606082015260800190565b6020808252818101527f4f776e61626c653a2063616c6c6572206973206e6f7420746865206f776e6572604082015260600190565b604051601f8201601f191681016001600160401b03811182821017156124b0576124b06125aa565b604052919050565b60006001600160401b038211156124d1576124d16125aa565b50601f01601f191660200190565b600082198211156124f2576124f2612594565b500190565b60008261251257634e487b7160e01b81526012600452602481fd5b500490565b600081600019048311821515161561253157612531612594565b500290565b60008282101561254857612548612594565b500390565b60005b83811015612568578181015183820152602001612550565b83811115610f9b5750506000910152565b600060001982141561258d5761258d612594565b5060010190565b634e487b7160e01b600052601160045260246000fd5b634e487b7160e01b600052604160045260246000fdfe60a06040523060601b60805234801561001757600080fd5b5060805160601c61183061004b600039600081816104b6015281816104f6015281816105f8015261063801526118306000f3fe6080604052600436106100d95760003560e01c806306fdde03146100de578063095ea7b31461010957806318160ddd1461013957806323b872dd14610158578063313ce567146101785780633659cfe61461019457806339509351146101b657806340c10f19146101d65780634f1ef286146101f657806370a0823114610209578063715018a61461023f5780638da5cb5b1461025457806395d89b4114610276578063a457c2d71461028b578063a9059cbb146102ab578063bd3a13f6146102cb578063dd62ed3e146102eb578063f2fde38b14610331575b600080fd5b3480156100ea57600080fd5b506100f3610351565b6040516101009190611494565b60405180910390f35b34801561011557600080fd5b506101296101243660046113c1565b6103e3565b6040519015158152602001610100565b34801561014557600080fd5b506035545b604051908152602001610100565b34801561016457600080fd5b50610129610173366004611328565b6103fa565b34801561018457600080fd5b5060405160128152602001610100565b3480156101a057600080fd5b506101b46101af3660046112dc565b6104ab565b005b3480156101c257600080fd5b506101296101d13660046113c1565b610574565b3480156101e257600080fd5b506101b46101f13660046113c1565b6105b0565b6101b4610204366004611363565b6105ed565b34801561021557600080fd5b5061014a6102243660046112dc565b6001600160a01b031660009081526033602052604090205490565b34801561024b57600080fd5b506101b46106a3565b34801561026057600080fd5b506102696106de565b6040516101009190611480565b34801561028257600080fd5b506100f36106ed565b34801561029757600080fd5b506101296102a63660046113c1565b6106fc565b3480156102b757600080fd5b506101296102c63660046113c1565b610795565b3480156102d757600080fd5b506101b46102e63660046113ea565b6107a2565b3480156102f757600080fd5b5061014a6103063660046112f6565b6001600160a01b03918216600090815260346020908152604080832093909416825291909152205490565b34801561033d57600080fd5b506101b461034c3660046112dc565b610890565b6060603680546103609061170c565b80601f016020809104026020016040519081016040528092919081815260200182805461038c9061170c565b80156103d95780601f106103ae576101008083540402835291602001916103d9565b820191906000526020600020905b8154815290600101906020018083116103bc57829003601f168201915b5050505050905090565b60006103f033848461092d565b5060015b92915050565b6000610407848484610a51565b6001600160a01b0384166000908152603460209081526040808320338452909152902054828110156104915760405162461bcd60e51b815260206004820152602860248201527f45524332303a207472616e7366657220616d6f756e74206578636565647320616044820152676c6c6f77616e636560c01b60648201526084015b60405180910390fd5b61049e853385840361092d565b60019150505b9392505050565b306001600160a01b037f00000000000000000000000000000000000000000000000000000000000000001614156104f45760405162461bcd60e51b8152600401610488906114c7565b7f00000000000000000000000000000000000000000000000000000000000000006001600160a01b0316610526610c0f565b6001600160a01b03161461054c5760405162461bcd60e51b815260040161048890611501565b61055581610c2b565b6040805160008082526020820190925261057191839190610c5a565b50565b3360008181526034602090815260408083206001600160a01b038716845290915281205490916103f09185906105ab9086906115bb565b61092d565b336105b96106de565b6001600160a01b0316146105df5760405162461bcd60e51b81526004016104889061153b565b6105e98282610d9a565b5050565b306001600160a01b037f00000000000000000000000000000000000000000000000000000000000000001614156106365760405162461bcd60e51b8152600401610488906114c7565b7f00000000000000000000000000000000000000000000000000000000000000006001600160a01b0316610668610c0f565b6001600160a01b03161461068e5760405162461bcd60e51b815260040161048890611501565b61069782610c2b565b6105e982826001610c5a565b336106ac6106de565b6001600160a01b0316146106d25760405162461bcd60e51b81526004016104889061153b565b6106dc6000610e67565b565b6065546001600160a01b031690565b6060603780546103609061170c565b3360009081526034602090815260408083206001600160a01b03861684529091528120548281101561077e5760405162461bcd60e51b815260206004820152602560248201527f45524332303a2064656372656173656420616c6c6f77616e63652062656c6f77604482015264207a65726f60d81b6064820152608401610488565b61078b338585840361092d565b5060019392505050565b60006103f0338484610a51565b600054610100900460ff166107bd5760005460ff16156107c1565b303b155b6108245760405162461bcd60e51b815260206004820152602e60248201527f496e697469616c697a61626c653a20636f6e747261637420697320616c72656160448201526d191e481a5b9a5d1a585b1a5e995960921b6064820152608401610488565b600054610100900460ff16158015610846576000805461ffff19166101011790555b6108508585610eb9565b610858610ef2565b610877826108686012600a611616565b61087290866116c1565b610d9a565b8015610889576000805461ff00191690555b5050505050565b336108996106de565b6001600160a01b0316146108bf5760405162461bcd60e51b81526004016104889061153b565b6001600160a01b0381166109245760405162461bcd60e51b815260206004820152602660248201527f4f776e61626c653a206e6577206f776e657220697320746865207a65726f206160448201526564647265737360d01b6064820152608401610488565b61057181610e67565b6001600160a01b03831661098f5760405162461bcd60e51b8152602060048201526024808201527f45524332303a20617070726f76652066726f6d20746865207a65726f206164646044820152637265737360e01b6064820152608401610488565b6001600160a01b0382166109f05760405162461bcd60e51b815260206004820152602260248201527f45524332303a20617070726f766520746f20746865207a65726f206164647265604482015261737360f01b6064820152608401610488565b6001600160a01b0383811660008181526034602090815260408083209487168084529482529182902085905590518481527f8c5be1e5ebec7d5bd14f71427d1e84f3dd0314c0f7b2291e5b200ac8c7c3b925910160405180910390a3505050565b6001600160a01b038316610ab55760405162461bcd60e51b815260206004820152602560248201527f45524332303a207472616e736665722066726f6d20746865207a65726f206164604482015264647265737360d81b6064820152608401610488565b6001600160a01b038216610b175760405162461bcd60e51b815260206004820152602360248201527f45524332303a207472616e7366657220746f20746865207a65726f206164647260448201526265737360e81b6064820152608401610488565b6001600160a01b03831660009081526033602052604090205481811015610b8f5760405162461bcd60e51b815260206004820152602660248201527f45524332303a207472616e7366657220616d6f756e7420657863656564732062604482015265616c616e636560d01b6064820152608401610488565b6001600160a01b03808516600090815260336020526040808220858503905591851681529081208054849290610bc69084906115bb565b92505081905550826001600160a01b0316846001600160a01b03166000805160206117db83398151915284604051610c0091815260200190565b60405180910390a35b50505050565b600080516020611794833981519152546001600160a01b031690565b33610c346106de565b6001600160a01b0316146105715760405162461bcd60e51b81526004016104889061153b565b6000610c64610c0f565b9050610c6f84610f27565b600083511180610c7c5750815b15610c8d57610c8b8484610fba565b505b7f4910fdfa16fed3260ed0e7147f7cc6da11a60208b5b9406d12a635614ffd9143805460ff1661088957805460ff19166001178155604051610d08908690610cd9908590602401611480565b60408051601f198184030181529190526020810180516001600160e01b0316631b2ce7f360e11b179052610fba565b50805460ff19168155610d19610c0f565b6001600160a01b0316826001600160a01b031614610d915760405162461bcd60e51b815260206004820152602f60248201527f45524331393637557067726164653a207570677261646520627265616b73206660448201526e75727468657220757067726164657360881b6064820152608401610488565b610889856110a5565b6001600160a01b038216610df05760405162461bcd60e51b815260206004820152601f60248201527f45524332303a206d696e7420746f20746865207a65726f2061646472657373006044820152606401610488565b8060356000828254610e0291906115bb565b90915550506001600160a01b03821660009081526033602052604081208054839290610e2f9084906115bb565b90915550506040518181526001600160a01b038316906000906000805160206117db8339815191529060200160405180910390a35050565b606580546001600160a01b038381166001600160a01b0319831681179093556040519116919082907f8be0079c531659141344cd1fd0a4f28419497f9722a3daafe3b4186f6b6457e090600090a35050565b600054610100900460ff16610ee05760405162461bcd60e51b815260040161048890611570565b610ee86110e5565b6105e9828261110c565b600054610100900460ff16610f195760405162461bcd60e51b815260040161048890611570565b6106dc33610e67565b505050565b803b610f8b5760405162461bcd60e51b815260206004820152602d60248201527f455243313936373a206e657720696d706c656d656e746174696f6e206973206e60448201526c1bdd08184818dbdb9d1c9858dd609a1b6064820152608401610488565b60008051602061179483398151915280546001600160a01b0319166001600160a01b0392909216919091179055565b6060823b6110195760405162461bcd60e51b815260206004820152602660248201527f416464726573733a2064656c65676174652063616c6c20746f206e6f6e2d636f6044820152651b9d1c9858dd60d21b6064820152608401610488565b600080846001600160a01b0316846040516110349190611464565b600060405180830381855af49150503d806000811461106f576040519150601f19603f3d011682016040523d82523d6000602084013e611074565b606091505b509150915061109c82826040518060600160405280602781526020016117b46027913961115a565b95945050505050565b6110ae81610f27565b6040516001600160a01b038216907fbc7cd75a20ee27fd9adebab32041f755214dbc6bffa90cc0225b39da2e5c2d3b90600090a250565b600054610100900460ff166106dc5760405162461bcd60e51b815260040161048890611570565b600054610100900460ff166111335760405162461bcd60e51b815260040161048890611570565b8151611146906036906020850190611193565b508051610f22906037906020840190611193565b606083156111695750816104a4565b8251156111795782518084602001fd5b8160405162461bcd60e51b81526004016104889190611494565b82805461119f9061170c565b90600052602060002090601f0160209004810192826111c15760008555611207565b82601f106111da57805160ff1916838001178555611207565b82800160010185558215611207579182015b828111156112075782518255916020019190600101906111ec565b50611213929150611217565b5090565b5b808211156112135760008155600101611218565b60006001600160401b03808411156112465761124661175d565b604051601f8501601f19908116603f0116810190828211818310171561126e5761126e61175d565b8160405280935085815286868601111561128757600080fd5b858560208301376000602087830101525050509392505050565b80356001600160a01b03811681146112b857600080fd5b919050565b600082601f8301126112cd578081fd5b6104a48383356020850161122c565b6000602082840312156112ed578081fd5b6104a4826112a1565b60008060408385031215611308578081fd5b611311836112a1565b915061131f602084016112a1565b90509250929050565b60008060006060848603121561133c578081fd5b611345846112a1565b9250611353602085016112a1565b9150604084013590509250925092565b60008060408385031215611375578182fd5b61137e836112a1565b915060208301356001600160401b03811115611398578182fd5b8301601f810185136113a8578182fd5b6113b78582356020840161122c565b9150509250929050565b600080604083850312156113d3578182fd5b6113dc836112a1565b946020939093013593505050565b600080600080608085870312156113ff578081fd5b84356001600160401b0380821115611415578283fd5b611421888389016112bd565b95506020870135915080821115611436578283fd5b50611443878288016112bd565b93505060408501359150611459606086016112a1565b905092959194509250565b600082516114768184602087016116e0565b9190910192915050565b6001600160a01b0391909116815260200190565b60208152600082518060208401526114b38160408501602087016116e0565b601f01601f19169190910160400192915050565b6020808252602c9082015260008051602061177483398151915260408201526b19195b1959d85d1958d85b1b60a21b606082015260800190565b6020808252602c9082015260008051602061177483398151915260408201526b6163746976652070726f787960a01b606082015260800190565b6020808252818101527f4f776e61626c653a2063616c6c6572206973206e6f7420746865206f776e6572604082015260600190565b6020808252602b908201527f496e697469616c697a61626c653a20636f6e7472616374206973206e6f74206960408201526a6e697469616c697a696e6760a81b606082015260800190565b600082198211156115ce576115ce611747565b500190565b600181815b8085111561160e5781600019048211156115f4576115f4611747565b8085161561160157918102915b93841c93908002906115d8565b509250929050565b60006104a460ff84168360008261162f575060016103f4565b8161163c575060006103f4565b8160018114611652576002811461165c57611678565b60019150506103f4565b60ff84111561166d5761166d611747565b50506001821b6103f4565b5060208310610133831016604e8410600b841016171561169b575081810a6103f4565b6116a583836115d3565b80600019048211156116b9576116b9611747565b029392505050565b60008160001904831182151516156116db576116db611747565b500290565b60005b838110156116fb5781810151838201526020016116e3565b83811115610c095750506000910152565b600181811c9082168061172057607f821691505b6020821081141561174157634e487b7160e01b600052602260045260246000fd5b50919050565b634e487b7160e01b600052601160045260246000fd5b634e487b7160e01b600052604160045260246000fdfe46756e6374696f6e206d7573742062652063616c6c6564207468726f75676820360894a13ba1a3210667c828492db98dca3e2076cc3735a920a3ca505d382bbc416464726573733a206c6f772d6c6576656c2064656c65676174652063616c6c206661696c6564ddf252ad1be2c89b69c2b068fc378daa952ba7f163c4a11628f55a4df523b3efa26469706673582212209d3e65192d3a8eade3a6dd6334d7eecef47278fe75c710d96188b87f292180dd64736f6c6343000804003346756e6374696f6e206d7573742062652063616c6c6564207468726f75676820360894a13ba1a3210667c828492db98dca3e2076cc3735a920a3ca505d382bbc416464726573733a206c6f772d6c6576656c2064656c65676174652063616c6c206661696c6564a26469706673582212204ae16e78d16eff1ea6df84dfbabbaec77041d3f1a6495225e2c902de6c33945f64736f6c63430008040033",
  "linkReferences": {},
  "deployedLinkReferences": {}
}