{
  "_format": "hh-sol-artifact-1",
  "contractName": "Vault",
  "sourceName": "contracts/Vault.sol",
  "abi": [
    {
      "inputs": [
        {
          "internalType": "address payable",
          "name": "executor_",
          "type": "address"
        },
        {
          "internalType": "address payable",
          "name": "multisig_",
          "type": "address"
        }
      ],
      "stateMutability": "nonpayable",
      "type": "constructor"
    },
    {
      "anonymous": false,
      "inputs": [
        {
          "indexed": false,
          "internalType": "bool",
          "name": "deposit",
          "type": "bool"
        },
        {
          "indexed": false,
          "internalType": "uint256",
          "name": "fundraising",
          "type": "uint256"
        },
        {
          "indexed": false,
          "internalType": "address",
          "name": "addr",
          "type": "address"
        },
        {
          "indexed": false,
          "internalType": "uint256",
          "name": "amount",
          "type": "uint256"
        }
      ],
      "name": "Transaction",
      "type": "event"
    },
    {
      "stateMutability": "nonpayable",
      "type": "fallback"
    },
    {
      "inputs": [
        {
          "internalType": "uint256",
          "name": "fundraising_id_",
          "type": "uint256"
        }
      ],
      "name": "deposit",
      "outputs": [],
      "stateMutability": "payable",
      "type": "function"
    },
    {
      "inputs": [],
      "name": "executor",
      "outputs": [
        {
          "internalType": "address payable",
          "name": "",
          "type": "address"
        }
      ],
      "stateMutability": "view",
      "type": "function"
    },
    {
      "inputs": [
        {
          "internalType": "uint256",
          "name": "fundraising_id_",
          "type": "uint256"
        },
        {
          "internalType": "address",
          "name": "depositor_",
          "type": "address"
        }
      ],
      "name": "fundraising",
      "outputs": [
        {
          "components": [
            {
              "internalType": "uint256",
              "name": "id",
              "type": "uint256"
            },
            {
              "internalType": "bool",
              "name": "locked",
              "type": "bool"
            },
            {
              "internalType": "uint256",
              "name": "total",
              "type": "uint256"
            },
            {
              "internalType": "uint256",
              "name": "deposit",
              "type": "uint256"
            }
          ],
          "internalType": "struct Vault.Fundraising",
          "name": "",
          "type": "tuple"
        }
      ],
      "stateMutability": "view",
      "type": "function"
    },
    {
      "inputs": [],
      "name": "gas_delta",
      "outputs": [
        {
          "internalType": "uint256",
          "name": "",
          "type": "uint256"
        }
      ],
      "stateMutability": "view",
      "type": "function"
    },
    {
      "inputs": [],
      "name": "gas_tank",
      "outputs": [
        {
          "internalType": "uint256",
          "name": "",
          "type": "uint256"
        }
      ],
      "stateMutability": "view",
      "type": "function"
    },
    {
      "inputs": [],
      "name": "initial_gas_tank",
      "outputs": [
        {
          "internalType": "uint256",
          "name": "",
          "type": "uint256"
        }
      ],
      "stateMutability": "view",
      "type": "function"
    },
    {
      "inputs": [],
      "name": "multisig",
      "outputs": [
        {
          "internalType": "address payable",
          "name": "",
          "type": "address"
        }
      ],
      "stateMutability": "view",
      "type": "function"
    },
    {
      "inputs": [
        {
          "internalType": "uint256",
          "name": "amount_",
          "type": "uint256"
        }
      ],
      "name": "request_fees_payback",
      "outputs": [],
      "stateMutability": "nonpayable",
      "type": "function"
    },
    {
      "inputs": [
        {
          "internalType": "address payable",
          "name": "executor_",
          "type": "address"
        }
      ],
      "name": "set_executor",
      "outputs": [],
      "stateMutability": "nonpayable",
      "type": "function"
    },
    {
      "inputs": [
        {
          "internalType": "address payable",
          "name": "multisig_",
          "type": "address"
        }
      ],
      "name": "set_multisig",
      "outputs": [],
      "stateMutability": "nonpayable",
      "type": "function"
    },
    {
      "inputs": [],
      "name": "top_up_tank",
      "outputs": [],
      "stateMutability": "payable",
      "type": "function"
    },
    {
      "inputs": [
        {
          "internalType": "uint256",
          "name": "fundraising_id_",
          "type": "uint256"
        },
        {
          "internalType": "uint256",
          "name": "amount_",
          "type": "uint256"
        },
        {
          "internalType": "bool",
          "name": "all",
          "type": "bool"
        }
      ],
      "name": "withdraw",
      "outputs": [],
      "stateMutability": "nonpayable",
      "type": "function"
    },
    {
      "inputs": [
        {
          "internalType": "uint256",
          "name": "fundraising_id_",
          "type": "uint256"
        }
      ],
      "name": "withdraw_commission",
      "outputs": [],
      "stateMutability": "nonpayable",
      "type": "function"
    }
  ],
  "bytecode": "0x60806040523480156200001157600080fd5b50604051620014d3380380620014d38339818101604052810190620000379190620000e6565b816000806101000a81548173ffffffffffffffffffffffffffffffffffffffff021916908373ffffffffffffffffffffffffffffffffffffffff16021790555080600160006101000a81548173ffffffffffffffffffffffffffffffffffffffff021916908373ffffffffffffffffffffffffffffffffffffffff160217905550670de0b6b3a7640000600281905550505062000175565b600081519050620000e0816200015b565b92915050565b60008060408385031215620000fa57600080fd5b60006200010a85828601620000cf565b92505060206200011d85828601620000cf565b9150509250929050565b600062000134826200013b565b9050919050565b600073ffffffffffffffffffffffffffffffffffffffff82169050919050565b620001668162000127565b81146200017257600080fd5b50565b61134e80620001856000396000f3fe6080604052600436106100c65760003560e01c806363e6f0801161007f578063b6b55f2511610059578063b6b55f2514610242578063bfac43301461025e578063c34c08e514610289578063e8c5d0a3146102b4576100c7565b806363e6f080146101b15780637fab0537146101dc57806381dddf0414610219576100c7565b80630ea12824146100d6578063117fc55f146100e057806333cfcd3b146101095780633ee16396146101325780634783c35b1461015b5780635c8a256014610186576100c7565b5b3480156100d357600080fd5b50005b6100de6102dd565b005b3480156100ec57600080fd5b5061010760048036038101906101029190610ca5565b6102f8565b005b34801561011557600080fd5b50610130600480360381019061012b9190610d0a565b6103ff565b005b34801561013e57600080fd5b5061015960048036038101906101549190610c7c565b6106ce565b005b34801561016757600080fd5b5061017061076b565b60405161017d9190610eef565b60405180910390f35b34801561019257600080fd5b5061019b610791565b6040516101a8919061100a565b60405180910390f35b3480156101bd57600080fd5b506101c66107a8565b6040516101d3919061100a565b60405180910390f35b3480156101e857600080fd5b5061020360048036038101906101fe9190610cce565b6107ae565b6040516102109190610fef565b60405180910390f35b34801561022557600080fd5b50610240600480360381019061023b9190610ca5565b610864565b005b61025c60048036038101906102579190610ca5565b610a03565b005b34801561026a57600080fd5b50610273610b36565b604051610280919061100a565b60405180910390f35b34801561029557600080fd5b5061029e610b3c565b6040516102ab9190610eef565b60405180910390f35b3480156102c057600080fd5b506102db60048036038101906102d69190610c7c565b610b60565b005b34600360008282546102ef9190611041565b92505081905550565b60008054906101000a900473ffffffffffffffffffffffffffffffffffffffff1673ffffffffffffffffffffffffffffffffffffffff163373ffffffffffffffffffffffffffffffffffffffff161461035057600080fd5b600354811115610395576040517f08c379a000000000000000000000000000000000000000000000000000000000815260040161038c90610f6f565b60405180910390fd5b60008054906101000a900473ffffffffffffffffffffffffffffffffffffffff1673ffffffffffffffffffffffffffffffffffffffff166108fc829081150290604051600060405180830381858888f193505050501580156103fb573d6000803e3d6000fd5b5050565b6006600084815260200190815260200160002060009054906101000a900460ff1615610460576040517f08c379a000000000000000000000000000000000000000000000000000000000815260040161045790610f8f565b60405180910390fd5b80156104ba576004600084815260200190815260200160002060003373ffffffffffffffffffffffffffffffffffffffff1673ffffffffffffffffffffffffffffffffffffffff1681526020019081526020016000205491505b816004600085815260200190815260200160002060003373ffffffffffffffffffffffffffffffffffffffff1673ffffffffffffffffffffffffffffffffffffffff16815260200190815260200160002054101561054d576040517f08c379a000000000000000000000000000000000000000000000000000000000815260040161054490610f4f565b60405180910390fd5b816004600085815260200190815260200160002060003373ffffffffffffffffffffffffffffffffffffffff1673ffffffffffffffffffffffffffffffffffffffff16815260200190815260200160002060008282546105ad9190611097565b92505081905550816005600085815260200190815260200160002060008282546105d79190611097565b9250508190555060003373ffffffffffffffffffffffffffffffffffffffff168360405161060490610eda565b60006040518083038185875af1925050503d8060008114610641576040519150601f19603f3d011682016040523d82523d6000602084013e610646565b606091505b505090508061068a576040517f08c379a000000000000000000000000000000000000000000000000000000000815260040161068190610faf565b60405180910390fd5b7f493902cc71cdb9f23fb20e1f7ed6c617f5627d43b1aa503cf3e287e444aafe9960008533866040516106c09493929190610f0a565b60405180910390a150505050565b600160009054906101000a900473ffffffffffffffffffffffffffffffffffffffff1673ffffffffffffffffffffffffffffffffffffffff163373ffffffffffffffffffffffffffffffffffffffff161461072857600080fd5b806000806101000a81548173ffffffffffffffffffffffffffffffffffffffff021916908373ffffffffffffffffffffffffffffffffffffffff16021790555050565b600160009054906101000a900473ffffffffffffffffffffffffffffffffffffffff1681565b60006003546002546107a39190611097565b905090565b60035481565b6107b6610bfe565b60405180608001604052808481526020016006600086815260200190815260200160002060009054906101000a900460ff1615158152602001600560008681526020019081526020016000205481526020016004600086815260200190815260200160002060008573ffffffffffffffffffffffffffffffffffffffff1673ffffffffffffffffffffffffffffffffffffffff16815260200190815260200160002054815250905092915050565b600160009054906101000a900473ffffffffffffffffffffffffffffffffffffffff1673ffffffffffffffffffffffffffffffffffffffff163373ffffffffffffffffffffffffffffffffffffffff16146108be57600080fd5b6007600082815260200190815260200160002060009054906101000a900460ff1661091e576040517f08c379a000000000000000000000000000000000000000000000000000000000815260040161091590610fcf565b60405180910390fd5b6000600160009054906101000a900473ffffffffffffffffffffffffffffffffffffffff1673ffffffffffffffffffffffffffffffffffffffff16600560008481526020019081526020016000205460405161097990610eda565b60006040518083038185875af1925050503d80600081146109b6576040519150601f19603f3d011682016040523d82523d6000602084013e6109bb565b606091505b50509050806109ff576040517f08c379a00000000000000000000000000000000000000000000000000000000081526004016109f690610faf565b60405180910390fd5b5050565b6006600082815260200190815260200160002060009054906101000a900460ff1615610a64576040517f08c379a0000000000000000000000000000000000000000000000000000000008152600401610a5b90610f8f565b60405180910390fd5b346004600083815260200190815260200160002060003373ffffffffffffffffffffffffffffffffffffffff1673ffffffffffffffffffffffffffffffffffffffff1681526020019081526020016000206000828254610ac49190611041565b9250508190555034600560008381526020019081526020016000206000828254610aee9190611041565b925050819055507f493902cc71cdb9f23fb20e1f7ed6c617f5627d43b1aa503cf3e287e444aafe996001823334604051610b2b9493929190610f0a565b60405180910390a150565b60025481565b60008054906101000a900473ffffffffffffffffffffffffffffffffffffffff1681565b600160009054906101000a900473ffffffffffffffffffffffffffffffffffffffff1673ffffffffffffffffffffffffffffffffffffffff163373ffffffffffffffffffffffffffffffffffffffff1614610bba57600080fd5b80600160006101000a81548173ffffffffffffffffffffffffffffffffffffffff021916908373ffffffffffffffffffffffffffffffffffffffff16021790555050565b60405180608001604052806000815260200160001515815260200160008152602001600081525090565b600081359050610c37816112bc565b92915050565b600081359050610c4c816112d3565b92915050565b600081359050610c61816112ea565b92915050565b600081359050610c7681611301565b92915050565b600060208284031215610c8e57600080fd5b6000610c9c84828501610c3d565b91505092915050565b600060208284031215610cb757600080fd5b6000610cc584828501610c67565b91505092915050565b60008060408385031215610ce157600080fd5b6000610cef85828601610c67565b9250506020610d0085828601610c28565b9150509250929050565b600080600060608486031215610d1f57600080fd5b6000610d2d86828701610c67565b9350506020610d3e86828701610c67565b9250506040610d4f86828701610c52565b9150509250925092565b610d62816110dd565b82525050565b610d71816110cb565b82525050565b610d80816110ef565b82525050565b610d8f816110ef565b82525050565b6000610da2602b83611030565b9150610dad82611154565b604082019050919050565b6000610dc5603c83611030565b9150610dd0826111a3565b604082019050919050565b6000610de8603c83611030565b9150610df3826111f2565b604082019050919050565b6000610e0b601183611030565b9150610e1682611241565b602082019050919050565b6000610e2e602783611030565b9150610e398261126a565b604082019050919050565b6000610e51600083611025565b9150610e5c826112b9565b600082019050919050565b608082016000820151610e7d6000850182610ebc565b506020820151610e906020850182610d77565b506040820151610ea36040850182610ebc565b506060820151610eb66060850182610ebc565b50505050565b610ec58161111b565b82525050565b610ed48161111b565b82525050565b6000610ee582610e44565b9150819050919050565b6000602082019050610f046000830184610d59565b92915050565b6000608082019050610f1f6000830187610d86565b610f2c6020830186610ecb565b610f396040830185610d68565b610f466060830184610ecb565b95945050505050565b60006020820190508181036000830152610f6881610d95565b9050919050565b60006020820190508181036000830152610f8881610db8565b9050919050565b60006020820190508181036000830152610fa881610ddb565b9050919050565b60006020820190508181036000830152610fc881610dfe565b9050919050565b60006020820190508181036000830152610fe881610e21565b9050919050565b60006080820190506110046000830184610e67565b92915050565b600060208201905061101f6000830184610ecb565b92915050565b600081905092915050565b600082825260208201905092915050565b600061104c8261111b565b91506110578361111b565b9250827fffffffffffffffffffffffffffffffffffffffffffffffffffffffffffffffff0382111561108c5761108b611125565b5b828201905092915050565b60006110a28261111b565b91506110ad8361111b565b9250828210156110c0576110bf611125565b5b828203905092915050565b60006110d6826110fb565b9050919050565b60006110e8826110fb565b9050919050565b60008115159050919050565b600073ffffffffffffffffffffffffffffffffffffffff82169050919050565b6000819050919050565b7f4e487b7100000000000000000000000000000000000000000000000000000000600052601160045260246000fd5b7f436f756c646e2774207769746864726177206d6f7265207468616e207573657260008201527f20706f6f6c207368617265000000000000000000000000000000000000000000602082015250565b7f576520646f6e277420616c6c6f77206578656375746f7220746f20726563656960008201527f7665206d6f72652c207468616e206761735f74616e6b2076616c756500000000602082015250565b7f46756e6472616973696e672069732066696e69736865642c206e6f206465706f60008201527f736974732f7769746864726177616c732061726520616c6c6f77656400000000602082015250565b7f5769746864726177616c204661696c6564000000000000000000000000000000600082015250565b7f46756e6472616973696e6720657865637574696f6e206469646e27742066696e60008201527f6973682079657400000000000000000000000000000000000000000000000000602082015250565b50565b6112c5816110cb565b81146112d057600080fd5b50565b6112dc816110dd565b81146112e757600080fd5b50565b6112f3816110ef565b81146112fe57600080fd5b50565b61130a8161111b565b811461131557600080fd5b5056fea264697066735822122047ca4866c7322c2fa9d2c202a17bd274a534908b9e44007b214770e8a67e71a664736f6c63430008040033",
  "linkReferences": {},
  "deployedLinkReferences": {}
}